{"abi":[{"inputs":[{"internalType":"string","name":"getName","type":"string"},{"internalType":"string","name":"getSymbol","type":"string"}],"stateMutability":"nonpayable","type":"constructor"},{"anonymous":false,"inputs":[{"indexed":true,"internalType":"address","name":"owner","type":"address"},{"indexed":true,"internalType":"address","name":"spender","type":"address"},{"indexed":false,"internalType":"uint256","name":"oldAmount","type":"uint256"},{"indexed":false,"internalType":"uint256","name":"amount","type":"uint256"}],"name":"Approval","type":"event"},{"anonymous":false,"inputs":[{"indexed":true,"internalType":"address","name":"from","type":"address"},{"indexed":true,"internalType":"address","name":"to","type":"address"},{"indexed":false,"internalType":"uint256","name":"amount","type":"uint256"}],"name":"Transfer","type":"event"},{"anonymous":false,"inputs":[{"indexed":true,"internalType":"address","name":"spender","type":"address"},{"indexed":true,"internalType":"address","name":"from","type":"address"},{"indexed":true,"internalType":"address","name":"to","type":"address"},{"indexed":false,"internalType":"uint256","name":"amount","type":"uint256"}],"name":"Transfer","type":"event"},{"inputs":[{"internalType":"address","name":"","type":"address"},{"internalType":"address","name":"","type":"address"}],"name":"_allowances","outputs":[{"internalType":"uint256","name":"","type":"uint256"}],"stateMutability":"view","type":"function"},{"inputs":[],"name":"_decimals","outputs":[{"internalType":"uint8","name":"","type":"uint8"}],"stateMutability":"view","type":"function"},{"inputs":[],"name":"_name","outputs":[{"internalType":"string","name":"","type":"string"}],"stateMutability":"view","type":"function"},{"inputs":[],"name":"_symbol","outputs":[{"internalType":"string","name":"","type":"string"}],"stateMutability":"view","type":"function"},{"inputs":[],"name":"_totalSupply","outputs":[{"internalType":"uint256","name":"","type":"uint256"}],"stateMutability":"view","type":"function"},{"inputs":[{"internalType":"address","name":"owner","type":"address"},{"internalType":"address","name":"spender","type":"address"}],"name":"allowance","outputs":[{"internalType":"uint256","name":"","type":"uint256"}],"stateMutability":"view","type":"function"},{"inputs":[{"internalType":"address","name":"spender","type":"address"},{"internalType":"uint256","name":"amount","type":"uint256"}],"name":"approve","outputs":[{"internalType":"bool","name":"","type":"bool"}],"stateMutability":"nonpayable","type":"function"},{"inputs":[{"internalType":"address","name":"account","type":"address"}],"name":"balanceOf","outputs":[{"internalType":"uint256","name":"","type":"uint256"}],"stateMutability":"view","type":"function"},{"inputs":[],"name":"decimals","outputs":[{"internalType":"uint8","name":"","type":"uint8"}],"stateMutability":"view","type":"function"},{"inputs":[],"name":"name","outputs":[{"internalType":"string","name":"","type":"string"}],"stateMutability":"view","type":"function"},{"inputs":[],"name":"symbol","outputs":[{"internalType":"string","name":"","type":"string"}],"stateMutability":"view","type":"function"},{"inputs":[],"name":"totalSupply","outputs":[{"internalType":"uint256","name":"","type":"uint256"}],"stateMutability":"view","type":"function"},{"inputs":[{"internalType":"address","name":"recipient","type":"address"},{"internalType":"uint256","name":"amount","type":"uint256"}],"name":"transfer","outputs":[{"internalType":"bool","name":"","type":"bool"}],"stateMutability":"nonpayable","type":"function"},{"inputs":[{"internalType":"address","name":"sender","type":"address"},{"internalType":"address","name":"recipient","type":"address"},{"internalType":"uint256","name":"amount","type":"uint256"}],"name":"transferFrom","outputs":[{"internalType":"bool","name":"","type":"bool"}],"stateMutability":"nonpayable","type":"function"}],"devdoc":{"kind":"dev","methods":{},"version":1},"evm":{"assembly":"    /* \"SimpleToken.sol\":1009:4667  contract SimpleToken is ERC20Interface {... */\n  mstore(0x40, 0x80)\n    /* \"SimpleToken.sol\":1292:1520  constructor(string memory getName, string memory getSymbol) {... */\n  callvalue\n  dup1\n  iszero\n  tag_1\n  jumpi\n  0x00\n  dup1\n  revert\ntag_1:\n  pop\n  mload(0x40)\n  sub(codesize, bytecodeSize)\n  dup1\n  bytecodeSize\n  dup4\n  codecopy\n  dup2\n  dup2\n  add\n  0x40\n  mstore\n  dup2\n  add\n  swap1\n  tag_2\n  swap2\n  swap1\n  tag_3\n  jump\t// in\ntag_2:\n    /* \"SimpleToken.sol\":1370:1377  getName */\n  dup2\n    /* \"SimpleToken.sol\":1362:1367  _name */\n  0x03\n    /* \"SimpleToken.sol\":1362:1377  _name = getName */\n  swap1\n  dup1\n  mload\n  swap1\n  0x20\n  add\n  swap1\n  tag_6\n  swap3\n  swap2\n  swap1\n  tag_7\n  jump\t// in\ntag_6:\n  pop\n    /* \"SimpleToken.sol\":1397:1406  getSymbol */\n  dup1\n    /* \"SimpleToken.sol\":1387:1394  _symbol */\n  0x04\n    /* \"SimpleToken.sol\":1387:1406  _symbol = getSymbol */\n  swap1\n  dup1\n  mload\n  swap1\n  0x20\n  add\n  swap1\n  tag_8\n  swap3\n  swap2\n  swap1\n  tag_7\n  jump\t// in\ntag_8:\n  pop\n    /* \"SimpleToken.sol\":1428:1430  18 */\n  0x12\n    /* \"SimpleToken.sol\":1416:1425  _decimals */\n  0x05\n  0x00\n    /* \"SimpleToken.sol\":1416:1430  _decimals = 18 */\n  0x0100\n  exp\n  dup2\n  sload\n  dup2\n  0xff\n  mul\n  not\n  and\n  swap1\n  dup4\n  0xff\n  and\n  mul\n  or\n  swap1\n  sstore\n  pop\n    /* \"SimpleToken.sol\":1455:1467  100000000e18 */\n  0x52b7d2dcc80cd2e4000000\n    /* \"SimpleToken.sol\":1440:1452  _totalSupply */\n  0x02\n    /* \"SimpleToken.sol\":1440:1467  _totalSupply = 100000000e18 */\n  dup2\n  swap1\n  sstore\n  pop\n    /* \"SimpleToken.sol\":1501:1513  _totalSupply */\n  sload(0x02)\n    /* \"SimpleToken.sol\":1477:1486  _balances */\n  0x00\n    /* \"SimpleToken.sol\":1477:1498  _balances[msg.sender] */\n  dup1\n    /* \"SimpleToken.sol\":1487:1497  msg.sender */\n  caller\n    /* \"SimpleToken.sol\":1477:1498  _balances[msg.sender] */\n  0xffffffffffffffffffffffffffffffffffffffff\n  and\n  0xffffffffffffffffffffffffffffffffffffffff\n  and\n  dup2\n  mstore\n  0x20\n  add\n  swap1\n  dup2\n  mstore\n  0x20\n  add\n  0x00\n  keccak256\n    /* \"SimpleToken.sol\":1477:1513  _balances[msg.sender] = _totalSupply */\n  dup2\n  swap1\n  sstore\n  pop\n    /* \"SimpleToken.sol\":1292:1520  constructor(string memory getName, string memory getSymbol) {... */\n  pop\n  pop\n    /* \"SimpleToken.sol\":1009:4667  contract SimpleToken is ERC20Interface {... */\n  jump(tag_9)\ntag_7:\n  dup3\n  dup1\n  sload\n  tag_10\n  swap1\n  tag_11\n  jump\t// in\ntag_10:\n  swap1\n  0x00\n  mstore\n  keccak256(0x00, 0x20)\n  swap1\n  0x1f\n  add\n  0x20\n  swap1\n  div\n  dup2\n  add\n  swap3\n  dup3\n  tag_13\n  jumpi\n  0x00\n  dup6\n  sstore\n  jump(tag_12)\ntag_13:\n  dup3\n  0x1f\n  lt\n  tag_14\n  jumpi\n  dup1\n  mload\n  not(0xff)\n  and\n  dup4\n  dup1\n  add\n  or\n  dup6\n  sstore\n  jump(tag_12)\ntag_14:\n  dup3\n  dup1\n  add\n  0x01\n  add\n  dup6\n  sstore\n  dup3\n  iszero\n  tag_12\n  jumpi\n  swap2\n  dup3\n  add\ntag_15:\n  dup3\n  dup2\n  gt\n  iszero\n  tag_16\n  jumpi\n  dup3\n  mload\n  dup3\n  sstore\n  swap2\n  0x20\n  add\n  swap2\n  swap1\n  0x01\n  add\n  swap1\n  jump(tag_15)\ntag_16:\ntag_12:\n  pop\n  swap1\n  pop\n  tag_17\n  swap2\n  swap1\n  tag_18\n  jump\t// in\ntag_17:\n  pop\n  swap1\n  jump\t// out\ntag_18:\ntag_19:\n  dup1\n  dup3\n  gt\n  iszero\n  tag_20\n  jumpi\n  0x00\n  dup2\n  0x00\n  swap1\n  sstore\n  pop\n  0x01\n  add\n  jump(tag_19)\ntag_20:\n  pop\n  swap1\n  jump\t// out\n    /* \"#utility.yul\":7:82   */\ntag_21:\n    /* \"#utility.yul\":40:46   */\n  0x00\n    /* \"#utility.yul\":73:75   */\n  0x40\n    /* \"#utility.yul\":67:76   */\n  mload\n    /* \"#utility.yul\":57:76   */\n  swap1\n  pop\n    /* \"#utility.yul\":7:82   */\n  swap1\n  jump\t// out\n    /* \"#utility.yul\":88:205   */\ntag_22:\n    /* \"#utility.yul\":197:198   */\n  0x00\n    /* \"#utility.yul\":194:195   */\n  dup1\n    /* \"#utility.yul\":187:199   */\n  revert\n    /* \"#utility.yul\":211:328   */\ntag_23:\n    /* \"#utility.yul\":320:321   */\n  0x00\n    /* \"#utility.yul\":317:318   */\n  dup1\n    /* \"#utility.yul\":310:322   */\n  revert\n    /* \"#utility.yul\":334:451   */\ntag_24:\n    /* \"#utility.yul\":443:444   */\n  0x00\n    /* \"#utility.yul\":440:441   */\n  dup1\n    /* \"#utility.yul\":433:445   */\n  revert\n    /* \"#utility.yul\":457:574   */\ntag_25:\n    /* \"#utility.yul\":566:567   */\n  0x00\n    /* \"#utility.yul\":563:564   */\n  dup1\n    /* \"#utility.yul\":556:568   */\n  revert\n    /* \"#utility.yul\":580:682   */\ntag_26:\n    /* \"#utility.yul\":621:627   */\n  0x00\n    /* \"#utility.yul\":672:674   */\n  0x1f\n    /* \"#utility.yul\":668:675   */\n  not\n    /* \"#utility.yul\":663:665   */\n  0x1f\n    /* \"#utility.yul\":656:661   */\n  dup4\n    /* \"#utility.yul\":652:666   */\n  add\n    /* \"#utility.yul\":648:676   */\n  and\n    /* \"#utility.yul\":638:676   */\n  swap1\n  pop\n    /* \"#utility.yul\":580:682   */\n  swap2\n  swap1\n  pop\n  jump\t// out\n    /* \"#utility.yul\":688:868   */\ntag_27:\n    /* \"#utility.yul\":736:813   */\n  0x4e487b7100000000000000000000000000000000000000000000000000000000\n    /* \"#utility.yul\":733:734   */\n  0x00\n    /* \"#utility.yul\":726:814   */\n  mstore\n    /* \"#utility.yul\":833:837   */\n  0x41\n    /* \"#utility.yul\":830:831   */\n  0x04\n    /* \"#utility.yul\":823:838   */\n  mstore\n    /* \"#utility.yul\":857:861   */\n  0x24\n    /* \"#utility.yul\":854:855   */\n  0x00\n    /* \"#utility.yul\":847:862   */\n  revert\n    /* \"#utility.yul\":874:1155   */\ntag_28:\n    /* \"#utility.yul\":957:984   */\n  tag_44\n    /* \"#utility.yul\":979:983   */\n  dup3\n    /* \"#utility.yul\":957:984   */\n  tag_26\n  jump\t// in\ntag_44:\n    /* \"#utility.yul\":949:955   */\n  dup2\n    /* \"#utility.yul\":945:985   */\n  add\n    /* \"#utility.yul\":1087:1093   */\n  dup2\n    /* \"#utility.yul\":1075:1085   */\n  dup2\n    /* \"#utility.yul\":1072:1094   */\n  lt\n    /* \"#utility.yul\":1051:1069   */\n  0xffffffffffffffff\n    /* \"#utility.yul\":1039:1049   */\n  dup3\n    /* \"#utility.yul\":1036:1070   */\n  gt\n    /* \"#utility.yul\":1033:1095   */\n  or\n    /* \"#utility.yul\":1030:1118   */\n  iszero\n  tag_45\n  jumpi\n    /* \"#utility.yul\":1098:1116   */\n  tag_46\n  tag_27\n  jump\t// in\ntag_46:\n    /* \"#utility.yul\":1030:1118   */\ntag_45:\n    /* \"#utility.yul\":1138:1148   */\n  dup1\n    /* \"#utility.yul\":1134:1136   */\n  0x40\n    /* \"#utility.yul\":1127:1149   */\n  mstore\n    /* \"#utility.yul\":917:1155   */\n  pop\n    /* \"#utility.yul\":874:1155   */\n  pop\n  pop\n  jump\t// out\n    /* \"#utility.yul\":1161:1290   */\ntag_29:\n    /* \"#utility.yul\":1195:1201   */\n  0x00\n    /* \"#utility.yul\":1222:1242   */\n  tag_48\n  tag_21\n  jump\t// in\ntag_48:\n    /* \"#utility.yul\":1212:1242   */\n  swap1\n  pop\n    /* \"#utility.yul\":1251:1284   */\n  tag_49\n    /* \"#utility.yul\":1279:1283   */\n  dup3\n    /* \"#utility.yul\":1271:1277   */\n  dup3\n    /* \"#utility.yul\":1251:1284   */\n  tag_28\n  jump\t// in\ntag_49:\n    /* \"#utility.yul\":1161:1290   */\n  swap2\n  swap1\n  pop\n  jump\t// out\n    /* \"#utility.yul\":1296:1604   */\ntag_30:\n    /* \"#utility.yul\":1358:1362   */\n  0x00\n    /* \"#utility.yul\":1448:1466   */\n  0xffffffffffffffff\n    /* \"#utility.yul\":1440:1446   */\n  dup3\n    /* \"#utility.yul\":1437:1467   */\n  gt\n    /* \"#utility.yul\":1434:1490   */\n  iszero\n  tag_51\n  jumpi\n    /* \"#utility.yul\":1470:1488   */\n  tag_52\n  tag_27\n  jump\t// in\ntag_52:\n    /* \"#utility.yul\":1434:1490   */\ntag_51:\n    /* \"#utility.yul\":1508:1537   */\n  tag_53\n    /* \"#utility.yul\":1530:1536   */\n  dup3\n    /* \"#utility.yul\":1508:1537   */\n  tag_26\n  jump\t// in\ntag_53:\n    /* \"#utility.yul\":1500:1537   */\n  swap1\n  pop\n    /* \"#utility.yul\":1592:1596   */\n  0x20\n    /* \"#utility.yul\":1586:1590   */\n  dup2\n    /* \"#utility.yul\":1582:1597   */\n  add\n    /* \"#utility.yul\":1574:1597   */\n  swap1\n  pop\n    /* \"#utility.yul\":1296:1604   */\n  swap2\n  swap1\n  pop\n  jump\t// out\n    /* \"#utility.yul\":1610:1917   */\ntag_31:\n    /* \"#utility.yul\":1678:1679   */\n  0x00\n    /* \"#utility.yul\":1688:1801   */\ntag_55:\n    /* \"#utility.yul\":1702:1708   */\n  dup4\n    /* \"#utility.yul\":1699:1700   */\n  dup2\n    /* \"#utility.yul\":1696:1709   */\n  lt\n    /* \"#utility.yul\":1688:1801   */\n  iszero\n  tag_57\n  jumpi\n    /* \"#utility.yul\":1787:1788   */\n  dup1\n    /* \"#utility.yul\":1782:1785   */\n  dup3\n    /* \"#utility.yul\":1778:1789   */\n  add\n    /* \"#utility.yul\":1772:1790   */\n  mload\n    /* \"#utility.yul\":1768:1769   */\n  dup2\n    /* \"#utility.yul\":1763:1766   */\n  dup5\n    /* \"#utility.yul\":1759:1770   */\n  add\n    /* \"#utility.yul\":1752:1791   */\n  mstore\n    /* \"#utility.yul\":1724:1726   */\n  0x20\n    /* \"#utility.yul\":1721:1722   */\n  dup2\n    /* \"#utility.yul\":1717:1727   */\n  add\n    /* \"#utility.yul\":1712:1727   */\n  swap1\n  pop\n    /* \"#utility.yul\":1688:1801   */\n  jump(tag_55)\ntag_57:\n    /* \"#utility.yul\":1819:1825   */\n  dup4\n    /* \"#utility.yul\":1816:1817   */\n  dup2\n    /* \"#utility.yul\":1813:1826   */\n  gt\n    /* \"#utility.yul\":1810:1911   */\n  iszero\n  tag_58\n  jumpi\n    /* \"#utility.yul\":1899:1900   */\n  0x00\n    /* \"#utility.yul\":1890:1896   */\n  dup5\n    /* \"#utility.yul\":1885:1888   */\n  dup5\n    /* \"#utility.yul\":1881:1897   */\n  add\n    /* \"#utility.yul\":1874:1901   */\n  mstore\n    /* \"#utility.yul\":1810:1911   */\ntag_58:\n    /* \"#utility.yul\":1659:1917   */\n  pop\n    /* \"#utility.yul\":1610:1917   */\n  pop\n  pop\n  pop\n  jump\t// out\n    /* \"#utility.yul\":1923:2344   */\ntag_32:\n    /* \"#utility.yul\":2012:2017   */\n  0x00\n    /* \"#utility.yul\":2037:2103   */\n  tag_60\n    /* \"#utility.yul\":2053:2102   */\n  tag_61\n    /* \"#utility.yul\":2095:2101   */\n  dup5\n    /* \"#utility.yul\":2053:2102   */\n  tag_30\n  jump\t// in\ntag_61:\n    /* \"#utility.yul\":2037:2103   */\n  tag_29\n  jump\t// in\ntag_60:\n    /* \"#utility.yul\":2028:2103   */\n  swap1\n  pop\n    /* \"#utility.yul\":2126:2132   */\n  dup3\n    /* \"#utility.yul\":2119:2124   */\n  dup2\n    /* \"#utility.yul\":2112:2133   */\n  mstore\n    /* \"#utility.yul\":2164:2168   */\n  0x20\n    /* \"#utility.yul\":2157:2162   */\n  dup2\n    /* \"#utility.yul\":2153:2169   */\n  add\n    /* \"#utility.yul\":2202:2205   */\n  dup5\n    /* \"#utility.yul\":2193:2199   */\n  dup5\n    /* \"#utility.yul\":2188:2191   */\n  dup5\n    /* \"#utility.yul\":2184:2200   */\n  add\n    /* \"#utility.yul\":2181:2206   */\n  gt\n    /* \"#utility.yul\":2178:2290   */\n  iszero\n  tag_62\n  jumpi\n    /* \"#utility.yul\":2209:2288   */\n  tag_63\n  tag_25\n  jump\t// in\ntag_63:\n    /* \"#utility.yul\":2178:2290   */\ntag_62:\n    /* \"#utility.yul\":2299:2338   */\n  tag_64\n    /* \"#utility.yul\":2331:2337   */\n  dup5\n    /* \"#utility.yul\":2326:2329   */\n  dup3\n    /* \"#utility.yul\":2321:2324   */\n  dup6\n    /* \"#utility.yul\":2299:2338   */\n  tag_31\n  jump\t// in\ntag_64:\n    /* \"#utility.yul\":2018:2344   */\n  pop\n    /* \"#utility.yul\":1923:2344   */\n  swap4\n  swap3\n  pop\n  pop\n  pop\n  jump\t// out\n    /* \"#utility.yul\":2364:2719   */\ntag_33:\n    /* \"#utility.yul\":2431:2436   */\n  0x00\n    /* \"#utility.yul\":2480:2483   */\n  dup3\n    /* \"#utility.yul\":2473:2477   */\n  0x1f\n    /* \"#utility.yul\":2465:2471   */\n  dup4\n    /* \"#utility.yul\":2461:2478   */\n  add\n    /* \"#utility.yul\":2457:2484   */\n  slt\n    /* \"#utility.yul\":2447:2569   */\n  tag_66\n  jumpi\n    /* \"#utility.yul\":2488:2567   */\n  tag_67\n  tag_24\n  jump\t// in\ntag_67:\n    /* \"#utility.yul\":2447:2569   */\ntag_66:\n    /* \"#utility.yul\":2598:2604   */\n  dup2\n    /* \"#utility.yul\":2592:2605   */\n  mload\n    /* \"#utility.yul\":2623:2713   */\n  tag_68\n    /* \"#utility.yul\":2709:2712   */\n  dup5\n    /* \"#utility.yul\":2701:2707   */\n  dup3\n    /* \"#utility.yul\":2694:2698   */\n  0x20\n    /* \"#utility.yul\":2686:2692   */\n  dup7\n    /* \"#utility.yul\":2682:2699   */\n  add\n    /* \"#utility.yul\":2623:2713   */\n  tag_32\n  jump\t// in\ntag_68:\n    /* \"#utility.yul\":2614:2713   */\n  swap2\n  pop\n    /* \"#utility.yul\":2437:2719   */\n  pop\n    /* \"#utility.yul\":2364:2719   */\n  swap3\n  swap2\n  pop\n  pop\n  jump\t// out\n    /* \"#utility.yul\":2725:3578   */\ntag_3:\n    /* \"#utility.yul\":2824:2830   */\n  0x00\n    /* \"#utility.yul\":2832:2838   */\n  dup1\n    /* \"#utility.yul\":2881:2883   */\n  0x40\n    /* \"#utility.yul\":2869:2878   */\n  dup4\n    /* \"#utility.yul\":2860:2867   */\n  dup6\n    /* \"#utility.yul\":2856:2879   */\n  sub\n    /* \"#utility.yul\":2852:2884   */\n  slt\n    /* \"#utility.yul\":2849:2968   */\n  iszero\n  tag_70\n  jumpi\n    /* \"#utility.yul\":2887:2966   */\n  tag_71\n  tag_22\n  jump\t// in\ntag_71:\n    /* \"#utility.yul\":2849:2968   */\ntag_70:\n    /* \"#utility.yul\":3028:3029   */\n  0x00\n    /* \"#utility.yul\":3017:3026   */\n  dup4\n    /* \"#utility.yul\":3013:3030   */\n  add\n    /* \"#utility.yul\":3007:3031   */\n  mload\n    /* \"#utility.yul\":3058:3076   */\n  0xffffffffffffffff\n    /* \"#utility.yul\":3050:3056   */\n  dup2\n    /* \"#utility.yul\":3047:3077   */\n  gt\n    /* \"#utility.yul\":3044:3161   */\n  iszero\n  tag_72\n  jumpi\n    /* \"#utility.yul\":3080:3159   */\n  tag_73\n  tag_23\n  jump\t// in\ntag_73:\n    /* \"#utility.yul\":3044:3161   */\ntag_72:\n    /* \"#utility.yul\":3185:3259   */\n  tag_74\n    /* \"#utility.yul\":3251:3258   */\n  dup6\n    /* \"#utility.yul\":3242:3248   */\n  dup3\n    /* \"#utility.yul\":3231:3240   */\n  dup7\n    /* \"#utility.yul\":3227:3249   */\n  add\n    /* \"#utility.yul\":3185:3259   */\n  tag_33\n  jump\t// in\ntag_74:\n    /* \"#utility.yul\":3175:3259   */\n  swap3\n  pop\n    /* \"#utility.yul\":2978:3269   */\n  pop\n    /* \"#utility.yul\":3329:3331   */\n  0x20\n    /* \"#utility.yul\":3318:3327   */\n  dup4\n    /* \"#utility.yul\":3314:3332   */\n  add\n    /* \"#utility.yul\":3308:3333   */\n  mload\n    /* \"#utility.yul\":3360:3378   */\n  0xffffffffffffffff\n    /* \"#utility.yul\":3352:3358   */\n  dup2\n    /* \"#utility.yul\":3349:3379   */\n  gt\n    /* \"#utility.yul\":3346:3463   */\n  iszero\n  tag_75\n  jumpi\n    /* \"#utility.yul\":3382:3461   */\n  tag_76\n  tag_23\n  jump\t// in\ntag_76:\n    /* \"#utility.yul\":3346:3463   */\ntag_75:\n    /* \"#utility.yul\":3487:3561   */\n  tag_77\n    /* \"#utility.yul\":3553:3560   */\n  dup6\n    /* \"#utility.yul\":3544:3550   */\n  dup3\n    /* \"#utility.yul\":3533:3542   */\n  dup7\n    /* \"#utility.yul\":3529:3551   */\n  add\n    /* \"#utility.yul\":3487:3561   */\n  tag_33\n  jump\t// in\ntag_77:\n    /* \"#utility.yul\":3477:3561   */\n  swap2\n  pop\n    /* \"#utility.yul\":3279:3571   */\n  pop\n    /* \"#utility.yul\":2725:3578   */\n  swap3\n  pop\n  swap3\n  swap1\n  pop\n  jump\t// out\n    /* \"#utility.yul\":3584:3764   */\ntag_34:\n    /* \"#utility.yul\":3632:3709   */\n  0x4e487b7100000000000000000000000000000000000000000000000000000000\n    /* \"#utility.yul\":3629:3630   */\n  0x00\n    /* \"#utility.yul\":3622:3710   */\n  mstore\n    /* \"#utility.yul\":3729:3733   */\n  0x22\n    /* \"#utility.yul\":3726:3727   */\n  0x04\n    /* \"#utility.yul\":3719:3734   */\n  mstore\n    /* \"#utility.yul\":3753:3757   */\n  0x24\n    /* \"#utility.yul\":3750:3751   */\n  0x00\n    /* \"#utility.yul\":3743:3758   */\n  revert\n    /* \"#utility.yul\":3770:4090   */\ntag_11:\n    /* \"#utility.yul\":3814:3820   */\n  0x00\n    /* \"#utility.yul\":3851:3852   */\n  0x02\n    /* \"#utility.yul\":3845:3849   */\n  dup3\n    /* \"#utility.yul\":3841:3853   */\n  div\n    /* \"#utility.yul\":3831:3853   */\n  swap1\n  pop\n    /* \"#utility.yul\":3898:3899   */\n  0x01\n    /* \"#utility.yul\":3892:3896   */\n  dup3\n    /* \"#utility.yul\":3888:3900   */\n  and\n    /* \"#utility.yul\":3919:3937   */\n  dup1\n    /* \"#utility.yul\":3909:3990   */\n  tag_80\n  jumpi\n    /* \"#utility.yul\":3975:3979   */\n  0x7f\n    /* \"#utility.yul\":3967:3973   */\n  dup3\n    /* \"#utility.yul\":3963:3980   */\n  and\n    /* \"#utility.yul\":3953:3980   */\n  swap2\n  pop\n    /* \"#utility.yul\":3909:3990   */\ntag_80:\n    /* \"#utility.yul\":4037:4039   */\n  0x20\n    /* \"#utility.yul\":4029:4035   */\n  dup3\n    /* \"#utility.yul\":4026:4040   */\n  lt\n    /* \"#utility.yul\":4006:4024   */\n  dup2\n    /* \"#utility.yul\":4003:4041   */\n  sub\n    /* \"#utility.yul\":4000:4084   */\n  tag_81\n  jumpi\n    /* \"#utility.yul\":4056:4074   */\n  tag_82\n  tag_34\n  jump\t// in\ntag_82:\n    /* \"#utility.yul\":4000:4084   */\ntag_81:\n    /* \"#utility.yul\":3821:4090   */\n  pop\n    /* \"#utility.yul\":3770:4090   */\n  swap2\n  swap1\n  pop\n  jump\t// out\n    /* \"SimpleToken.sol\":1009:4667  contract SimpleToken is ERC20Interface {... */\ntag_9:\n  dataSize(sub_0)\n  dup1\n  dataOffset(sub_0)\n  0x00\n  codecopy\n  0x00\n  return\nstop\n\nsub_0: assembly {\n        /* \"SimpleToken.sol\":1009:4667  contract SimpleToken is ERC20Interface {... */\n      mstore(0x40, 0x80)\n      callvalue\n      dup1\n      iszero\n      tag_1\n      jumpi\n      0x00\n      dup1\n      revert\n    tag_1:\n      pop\n      jumpi(tag_2, lt(calldatasize, 0x04))\n      shr(0xe0, calldataload(0x00))\n      dup1\n      0x3eaaf86b\n      gt\n      tag_17\n      jumpi\n      dup1\n      0xa9059cbb\n      gt\n      tag_18\n      jumpi\n      dup1\n      0xa9059cbb\n      eq\n      tag_13\n      jumpi\n      dup1\n      0xb09f1266\n      eq\n      tag_14\n      jumpi\n      dup1\n      0xd28d8852\n      eq\n      tag_15\n      jumpi\n      dup1\n      0xdd62ed3e\n      eq\n      tag_16\n      jumpi\n      jump(tag_2)\n    tag_18:\n      dup1\n      0x3eaaf86b\n      eq\n      tag_10\n      jumpi\n      dup1\n      0x70a08231\n      eq\n      tag_11\n      jumpi\n      dup1\n      0x95d89b41\n      eq\n      tag_12\n      jumpi\n      jump(tag_2)\n    tag_17:\n      dup1\n      0x18160ddd\n      gt\n      tag_19\n      jumpi\n      dup1\n      0x18160ddd\n      eq\n      tag_6\n      jumpi\n      dup1\n      0x23b872dd\n      eq\n      tag_7\n      jumpi\n      dup1\n      0x313ce567\n      eq\n      tag_8\n      jumpi\n      dup1\n      0x32424aa3\n      eq\n      tag_9\n      jumpi\n      jump(tag_2)\n    tag_19:\n      dup1\n      0x024c2ddd\n      eq\n      tag_3\n      jumpi\n      dup1\n      0x06fdde03\n      eq\n      tag_4\n      jumpi\n      dup1\n      0x095ea7b3\n      eq\n      tag_5\n      jumpi\n    tag_2:\n      0x00\n      dup1\n      revert\n        /* \"SimpleToken.sol\":1105:1171  mapping(address => mapping(address => uint256)) public _allowances */\n    tag_3:\n      tag_20\n      0x04\n      dup1\n      calldatasize\n      sub\n      dup2\n      add\n      swap1\n      tag_21\n      swap2\n      swap1\n      tag_22\n      jump\t// in\n    tag_21:\n      tag_23\n      jump\t// in\n    tag_20:\n      mload(0x40)\n      tag_24\n      swap2\n      swap1\n      tag_25\n      jump\t// in\n    tag_24:\n      mload(0x40)\n      dup1\n      swap2\n      sub\n      swap1\n      return\n        /* \"SimpleToken.sol\":1526:1607  function name() public view returns (string memory) {... */\n    tag_4:\n      tag_26\n      tag_27\n      jump\t// in\n    tag_26:\n      mload(0x40)\n      tag_28\n      swap2\n      swap1\n      tag_29\n      jump\t// in\n    tag_28:\n      mload(0x40)\n      dup1\n      swap2\n      sub\n      swap1\n      return\n        /* \"SimpleToken.sol\":2533:2945  function approve(address spender, uint256 amount)... */\n    tag_5:\n      tag_30\n      0x04\n      dup1\n      calldatasize\n      sub\n      dup2\n      add\n      swap1\n      tag_31\n      swap2\n      swap1\n      tag_32\n      jump\t// in\n    tag_31:\n      tag_33\n      jump\t// in\n    tag_30:\n      mload(0x40)\n      tag_34\n      swap2\n      swap1\n      tag_35\n      jump\t// in\n    tag_34:\n      mload(0x40)\n      dup1\n      swap2\n      sub\n      swap1\n      return\n        /* \"SimpleToken.sol\":1791:1899  function totalSupply() external view virtual override returns (uint256) {... */\n    tag_6:\n      tag_36\n      tag_37\n      jump\t// in\n    tag_36:\n      mload(0x40)\n      tag_38\n      swap2\n      swap1\n      tag_25\n      jump\t// in\n    tag_38:\n      mload(0x40)\n      dup1\n      swap2\n      sub\n      swap1\n      return\n        /* \"SimpleToken.sol\":2951:3563  function transferFrom(... */\n    tag_7:\n      tag_39\n      0x04\n      dup1\n      calldatasize\n      sub\n      dup2\n      add\n      swap1\n      tag_40\n      swap2\n      swap1\n      tag_41\n      jump\t// in\n    tag_40:\n      tag_42\n      jump\t// in\n    tag_39:\n      mload(0x40)\n      tag_43\n      swap2\n      swap1\n      tag_35\n      jump\t// in\n    tag_43:\n      mload(0x40)\n      dup1\n      swap2\n      sub\n      swap1\n      return\n        /* \"SimpleToken.sol\":1704:1785  function decimals() public view returns (uint8) {... */\n    tag_8:\n      tag_44\n      tag_45\n      jump\t// in\n    tag_44:\n      mload(0x40)\n      tag_46\n      swap2\n      swap1\n      tag_47\n      jump\t// in\n    tag_46:\n      mload(0x40)\n      dup1\n      swap2\n      sub\n      swap1\n      return\n        /* \"SimpleToken.sol\":1263:1285  uint8 public _decimals */\n    tag_9:\n      tag_48\n      tag_49\n      jump\t// in\n    tag_48:\n      mload(0x40)\n      tag_50\n      swap2\n      swap1\n      tag_47\n      jump\t// in\n    tag_50:\n      mload(0x40)\n      dup1\n      swap2\n      sub\n      swap1\n      return\n        /* \"SimpleToken.sol\":1178:1205  uint256 public _totalSupply */\n    tag_10:\n      tag_51\n      tag_52\n      jump\t// in\n    tag_51:\n      mload(0x40)\n      tag_53\n      swap2\n      swap1\n      tag_25\n      jump\t// in\n    tag_53:\n      mload(0x40)\n      dup1\n      swap2\n      sub\n      swap1\n      return\n        /* \"SimpleToken.sol\":1905:2076  function balanceOf(address account)... */\n    tag_11:\n      tag_54\n      0x04\n      dup1\n      calldatasize\n      sub\n      dup2\n      add\n      swap1\n      tag_55\n      swap2\n      swap1\n      tag_56\n      jump\t// in\n    tag_55:\n      tag_57\n      jump\t// in\n    tag_54:\n      mload(0x40)\n      tag_58\n      swap2\n      swap1\n      tag_25\n      jump\t// in\n    tag_58:\n      mload(0x40)\n      dup1\n      swap2\n      sub\n      swap1\n      return\n        /* \"SimpleToken.sol\":1613:1698  function symbol() public view returns (string memory) {... */\n    tag_12:\n      tag_59\n      tag_60\n      jump\t// in\n    tag_59:\n      mload(0x40)\n      tag_61\n      swap2\n      swap1\n      tag_29\n      jump\t// in\n    tag_61:\n      mload(0x40)\n      dup1\n      swap2\n      sub\n      swap1\n      return\n        /* \"SimpleToken.sol\":2082:2342  function transfer(address recipient, uint256 amount)... */\n    tag_13:\n      tag_62\n      0x04\n      dup1\n      calldatasize\n      sub\n      dup2\n      add\n      swap1\n      tag_63\n      swap2\n      swap1\n      tag_32\n      jump\t// in\n    tag_63:\n      tag_64\n      jump\t// in\n    tag_62:\n      mload(0x40)\n      tag_65\n      swap2\n      swap1\n      tag_35\n      jump\t// in\n    tag_65:\n      mload(0x40)\n      dup1\n      swap2\n      sub\n      swap1\n      return\n        /* \"SimpleToken.sol\":1236:1257  string public _symbol */\n    tag_14:\n      tag_66\n      tag_67\n      jump\t// in\n    tag_66:\n      mload(0x40)\n      tag_68\n      swap2\n      swap1\n      tag_29\n      jump\t// in\n    tag_68:\n      mload(0x40)\n      dup1\n      swap2\n      sub\n      swap1\n      return\n        /* \"SimpleToken.sol\":1211:1230  string public _name */\n    tag_15:\n      tag_69\n      tag_70\n      jump\t// in\n    tag_69:\n      mload(0x40)\n      tag_71\n      swap2\n      swap1\n      tag_29\n      jump\t// in\n    tag_71:\n      mload(0x40)\n      dup1\n      swap2\n      sub\n      swap1\n      return\n        /* \"SimpleToken.sol\":2348:2527  function allowance(address owner, address spender)... */\n    tag_16:\n      tag_72\n      0x04\n      dup1\n      calldatasize\n      sub\n      dup2\n      add\n      swap1\n      tag_73\n      swap2\n      swap1\n      tag_22\n      jump\t// in\n    tag_73:\n      tag_74\n      jump\t// in\n    tag_72:\n      mload(0x40)\n      tag_75\n      swap2\n      swap1\n      tag_25\n      jump\t// in\n    tag_75:\n      mload(0x40)\n      dup1\n      swap2\n      sub\n      swap1\n      return\n        /* \"SimpleToken.sol\":1105:1171  mapping(address => mapping(address => uint256)) public _allowances */\n    tag_23:\n      mstore(0x20, 0x01)\n      dup2\n      0x00\n      mstore\n      mstore(0x20, keccak256(0x00, 0x40))\n      dup1\n      0x00\n      mstore\n      keccak256(0x00, 0x40)\n      0x00\n      swap2\n      pop\n      swap2\n      pop\n      pop\n      sload\n      dup2\n      jump\t// out\n        /* \"SimpleToken.sol\":1526:1607  function name() public view returns (string memory) {... */\n    tag_27:\n        /* \"SimpleToken.sol\":1563:1576  string memory */\n      0x60\n        /* \"SimpleToken.sol\":1595:1600  _name */\n      0x03\n        /* \"SimpleToken.sol\":1588:1600  return _name */\n      dup1\n      sload\n      tag_77\n      swap1\n      tag_78\n      jump\t// in\n    tag_77:\n      dup1\n      0x1f\n      add\n      0x20\n      dup1\n      swap2\n      div\n      mul\n      0x20\n      add\n      mload(0x40)\n      swap1\n      dup2\n      add\n      0x40\n      mstore\n      dup1\n      swap3\n      swap2\n      swap1\n      dup2\n      dup2\n      mstore\n      0x20\n      add\n      dup3\n      dup1\n      sload\n      tag_79\n      swap1\n      tag_78\n      jump\t// in\n    tag_79:\n      dup1\n      iszero\n      tag_80\n      jumpi\n      dup1\n      0x1f\n      lt\n      tag_81\n      jumpi\n      0x0100\n      dup1\n      dup4\n      sload\n      div\n      mul\n      dup4\n      mstore\n      swap2\n      0x20\n      add\n      swap2\n      jump(tag_80)\n    tag_81:\n      dup3\n      add\n      swap2\n      swap1\n      0x00\n      mstore\n      keccak256(0x00, 0x20)\n      swap1\n    tag_82:\n      dup2\n      sload\n      dup2\n      mstore\n      swap1\n      0x01\n      add\n      swap1\n      0x20\n      add\n      dup1\n      dup4\n      gt\n      tag_82\n      jumpi\n      dup3\n      swap1\n      sub\n      0x1f\n      and\n      dup3\n      add\n      swap2\n    tag_80:\n      pop\n      pop\n      pop\n      pop\n      pop\n      swap1\n      pop\n        /* \"SimpleToken.sol\":1526:1607  function name() public view returns (string memory) {... */\n      swap1\n      jump\t// out\n        /* \"SimpleToken.sol\":2533:2945  function approve(address spender, uint256 amount)... */\n    tag_33:\n        /* \"SimpleToken.sol\":2650:2654  bool */\n      0x00\n        /* \"SimpleToken.sol\":2670:2694  uint256 currentAllownace */\n      dup1\n        /* \"SimpleToken.sol\":2697:2708  _allowances */\n      0x01\n        /* \"SimpleToken.sol\":2697:2720  _allowances[msg.sender] */\n      0x00\n        /* \"SimpleToken.sol\":2709:2719  msg.sender */\n      caller\n        /* \"SimpleToken.sol\":2697:2720  _allowances[msg.sender] */\n      0xffffffffffffffffffffffffffffffffffffffff\n      and\n      0xffffffffffffffffffffffffffffffffffffffff\n      and\n      dup2\n      mstore\n      0x20\n      add\n      swap1\n      dup2\n      mstore\n      0x20\n      add\n      0x00\n      keccak256\n        /* \"SimpleToken.sol\":2697:2729  _allowances[msg.sender][spender] */\n      0x00\n        /* \"SimpleToken.sol\":2721:2728  spender */\n      dup6\n        /* \"SimpleToken.sol\":2697:2729  _allowances[msg.sender][spender] */\n      0xffffffffffffffffffffffffffffffffffffffff\n      and\n      0xffffffffffffffffffffffffffffffffffffffff\n      and\n      dup2\n      mstore\n      0x20\n      add\n      swap1\n      dup2\n      mstore\n      0x20\n      add\n      0x00\n      keccak256\n      sload\n        /* \"SimpleToken.sol\":2670:2729  uint256 currentAllownace = _allowances[msg.sender][spender] */\n      swap1\n      pop\n        /* \"SimpleToken.sol\":2780:2786  amount */\n      dup3\n        /* \"SimpleToken.sol\":2760:2776  currentAllownace */\n      dup2\n        /* \"SimpleToken.sol\":2760:2786  currentAllownace >= amount */\n      lt\n      iszero\n        /* \"SimpleToken.sol\":2739:2852  require(... */\n      tag_84\n      jumpi\n      mload(0x40)\n      0x08c379a000000000000000000000000000000000000000000000000000000000\n      dup2\n      mstore\n      0x04\n      add\n      tag_85\n      swap1\n      tag_86\n      jump\t// in\n    tag_85:\n      mload(0x40)\n      dup1\n      swap2\n      sub\n      swap1\n      revert\n    tag_84:\n        /* \"SimpleToken.sol\":2862:2917  _approve(msg.sender, spender, currentAllownace, amount) */\n      tag_87\n        /* \"SimpleToken.sol\":2871:2881  msg.sender */\n      caller\n        /* \"SimpleToken.sol\":2883:2890  spender */\n      dup6\n        /* \"SimpleToken.sol\":2892:2908  currentAllownace */\n      dup4\n        /* \"SimpleToken.sol\":2910:2916  amount */\n      dup7\n        /* \"SimpleToken.sol\":2862:2870  _approve */\n      tag_88\n        /* \"SimpleToken.sol\":2862:2917  _approve(msg.sender, spender, currentAllownace, amount) */\n      jump\t// in\n    tag_87:\n        /* \"SimpleToken.sol\":2934:2938  true */\n      0x01\n        /* \"SimpleToken.sol\":2927:2938  return true */\n      swap2\n      pop\n      pop\n        /* \"SimpleToken.sol\":2533:2945  function approve(address spender, uint256 amount)... */\n      swap3\n      swap2\n      pop\n      pop\n      jump\t// out\n        /* \"SimpleToken.sol\":1791:1899  function totalSupply() external view virtual override returns (uint256) {... */\n    tag_37:\n        /* \"SimpleToken.sol\":1854:1861  uint256 */\n      0x00\n        /* \"SimpleToken.sol\":1880:1892  _totalSupply */\n      sload(0x02)\n        /* \"SimpleToken.sol\":1873:1892  return _totalSupply */\n      swap1\n      pop\n        /* \"SimpleToken.sol\":1791:1899  function totalSupply() external view virtual override returns (uint256) {... */\n      swap1\n      jump\t// out\n        /* \"SimpleToken.sol\":2951:3563  function transferFrom(... */\n    tag_42:\n        /* \"SimpleToken.sol\":3089:3093  bool */\n      0x00\n        /* \"SimpleToken.sol\":3105:3141  _transfer(sender, recipient, amount) */\n      tag_91\n        /* \"SimpleToken.sol\":3115:3121  sender */\n      dup5\n        /* \"SimpleToken.sol\":3123:3132  recipient */\n      dup5\n        /* \"SimpleToken.sol\":3134:3140  amount */\n      dup5\n        /* \"SimpleToken.sol\":3105:3114  _transfer */\n      tag_92\n        /* \"SimpleToken.sol\":3105:3141  _transfer(sender, recipient, amount) */\n      jump\t// in\n    tag_91:\n        /* \"SimpleToken.sol\":3185:3194  recipient */\n      dup3\n        /* \"SimpleToken.sol\":3156:3203  Transfer(msg.sender, sender, recipient, amount) */\n      0xffffffffffffffffffffffffffffffffffffffff\n      and\n        /* \"SimpleToken.sol\":3177:3183  sender */\n      dup5\n        /* \"SimpleToken.sol\":3156:3203  Transfer(msg.sender, sender, recipient, amount) */\n      0xffffffffffffffffffffffffffffffffffffffff\n      and\n        /* \"SimpleToken.sol\":3165:3175  msg.sender */\n      caller\n        /* \"SimpleToken.sol\":3156:3203  Transfer(msg.sender, sender, recipient, amount) */\n      0xffffffffffffffffffffffffffffffffffffffff\n      and\n      0xd1398bee19313d6bf672ccb116e51f4a1a947e91c757907f51fbb5b5e56c698f\n        /* \"SimpleToken.sol\":3196:3202  amount */\n      dup6\n        /* \"SimpleToken.sol\":3156:3203  Transfer(msg.sender, sender, recipient, amount) */\n      mload(0x40)\n      tag_93\n      swap2\n      swap1\n      tag_25\n      jump\t// in\n    tag_93:\n      mload(0x40)\n      dup1\n      swap2\n      sub\n      swap1\n      log4\n        /* \"SimpleToken.sol\":3213:3237  uint256 currentAllowance */\n      0x00\n        /* \"SimpleToken.sol\":3240:3251  _allowances */\n      0x01\n        /* \"SimpleToken.sol\":3240:3259  _allowances[sender] */\n      0x00\n        /* \"SimpleToken.sol\":3252:3258  sender */\n      dup7\n        /* \"SimpleToken.sol\":3240:3259  _allowances[sender] */\n      0xffffffffffffffffffffffffffffffffffffffff\n      and\n      0xffffffffffffffffffffffffffffffffffffffff\n      and\n      dup2\n      mstore\n      0x20\n      add\n      swap1\n      dup2\n      mstore\n      0x20\n      add\n      0x00\n      keccak256\n        /* \"SimpleToken.sol\":3240:3271  _allowances[sender][msg.sender] */\n      0x00\n        /* \"SimpleToken.sol\":3260:3270  msg.sender */\n      caller\n        /* \"SimpleToken.sol\":3240:3271  _allowances[sender][msg.sender] */\n      0xffffffffffffffffffffffffffffffffffffffff\n      and\n      0xffffffffffffffffffffffffffffffffffffffff\n      and\n      dup2\n      mstore\n      0x20\n      add\n      swap1\n      dup2\n      mstore\n      0x20\n      add\n      0x00\n      keccak256\n      sload\n        /* \"SimpleToken.sol\":3213:3271  uint256 currentAllowance = _allowances[sender][msg.sender] */\n      swap1\n      pop\n        /* \"SimpleToken.sol\":3322:3328  amount */\n      dup3\n        /* \"SimpleToken.sol\":3302:3318  currentAllowance */\n      dup2\n        /* \"SimpleToken.sol\":3302:3328  currentAllowance >= amount */\n      lt\n      iszero\n        /* \"SimpleToken.sol\":3281:3394  require(... */\n      tag_94\n      jumpi\n      mload(0x40)\n      0x08c379a000000000000000000000000000000000000000000000000000000000\n      dup2\n      mstore\n      0x04\n      add\n      tag_95\n      swap1\n      tag_96\n      jump\t// in\n    tag_95:\n      mload(0x40)\n      dup1\n      swap2\n      sub\n      swap1\n      revert\n    tag_94:\n        /* \"SimpleToken.sol\":3404:3535  _approve(... */\n      tag_97\n        /* \"SimpleToken.sol\":3426:3432  sender */\n      dup6\n        /* \"SimpleToken.sol\":3446:3456  msg.sender */\n      caller\n        /* \"SimpleToken.sol\":3470:3486  currentAllowance */\n      dup4\n        /* \"SimpleToken.sol\":3519:3525  amount */\n      dup7\n        /* \"SimpleToken.sol\":3500:3516  currentAllowance */\n      dup6\n        /* \"SimpleToken.sol\":3500:3525  currentAllowance - amount */\n      tag_98\n      swap2\n      swap1\n      tag_99\n      jump\t// in\n    tag_98:\n        /* \"SimpleToken.sol\":3404:3412  _approve */\n      tag_88\n        /* \"SimpleToken.sol\":3404:3535  _approve(... */\n      jump\t// in\n    tag_97:\n        /* \"SimpleToken.sol\":3552:3556  true */\n      0x01\n        /* \"SimpleToken.sol\":3545:3556  return true */\n      swap2\n      pop\n      pop\n        /* \"SimpleToken.sol\":2951:3563  function transferFrom(... */\n      swap4\n      swap3\n      pop\n      pop\n      pop\n      jump\t// out\n        /* \"SimpleToken.sol\":1704:1785  function decimals() public view returns (uint8) {... */\n    tag_45:\n        /* \"SimpleToken.sol\":1745:1750  uint8 */\n      0x00\n        /* \"SimpleToken.sol\":1769:1778  _decimals */\n      0x05\n      0x00\n      swap1\n      sload\n      swap1\n      0x0100\n      exp\n      swap1\n      div\n      0xff\n      and\n        /* \"SimpleToken.sol\":1762:1778  return _decimals */\n      swap1\n      pop\n        /* \"SimpleToken.sol\":1704:1785  function decimals() public view returns (uint8) {... */\n      swap1\n      jump\t// out\n        /* \"SimpleToken.sol\":1263:1285  uint8 public _decimals */\n    tag_49:\n      0x05\n      0x00\n      swap1\n      sload\n      swap1\n      0x0100\n      exp\n      swap1\n      div\n      0xff\n      and\n      dup2\n      jump\t// out\n        /* \"SimpleToken.sol\":1178:1205  uint256 public _totalSupply */\n    tag_52:\n      sload(0x02)\n      dup2\n      jump\t// out\n        /* \"SimpleToken.sol\":1905:2076  function balanceOf(address account)... */\n    tag_57:\n        /* \"SimpleToken.sol\":2021:2028  uint256 */\n      0x00\n        /* \"SimpleToken.sol\":2051:2060  _balances */\n      dup1\n        /* \"SimpleToken.sol\":2051:2069  _balances[account] */\n      0x00\n        /* \"SimpleToken.sol\":2061:2068  account */\n      dup4\n        /* \"SimpleToken.sol\":2051:2069  _balances[account] */\n      0xffffffffffffffffffffffffffffffffffffffff\n      and\n      0xffffffffffffffffffffffffffffffffffffffff\n      and\n      dup2\n      mstore\n      0x20\n      add\n      swap1\n      dup2\n      mstore\n      0x20\n      add\n      0x00\n      keccak256\n      sload\n        /* \"SimpleToken.sol\":2044:2069  return _balances[account] */\n      swap1\n      pop\n        /* \"SimpleToken.sol\":1905:2076  function balanceOf(address account)... */\n      swap2\n      swap1\n      pop\n      jump\t// out\n        /* \"SimpleToken.sol\":1613:1698  function symbol() public view returns (string memory) {... */\n    tag_60:\n        /* \"SimpleToken.sol\":1652:1665  string memory */\n      0x60\n        /* \"SimpleToken.sol\":1684:1691  _symbol */\n      0x04\n        /* \"SimpleToken.sol\":1677:1691  return _symbol */\n      dup1\n      sload\n      tag_103\n      swap1\n      tag_78\n      jump\t// in\n    tag_103:\n      dup1\n      0x1f\n      add\n      0x20\n      dup1\n      swap2\n      div\n      mul\n      0x20\n      add\n      mload(0x40)\n      swap1\n      dup2\n      add\n      0x40\n      mstore\n      dup1\n      swap3\n      swap2\n      swap1\n      dup2\n      dup2\n      mstore\n      0x20\n      add\n      dup3\n      dup1\n      sload\n      tag_104\n      swap1\n      tag_78\n      jump\t// in\n    tag_104:\n      dup1\n      iszero\n      tag_105\n      jumpi\n      dup1\n      0x1f\n      lt\n      tag_106\n      jumpi\n      0x0100\n      dup1\n      dup4\n      sload\n      div\n      mul\n      dup4\n      mstore\n      swap2\n      0x20\n      add\n      swap2\n      jump(tag_105)\n    tag_106:\n      dup3\n      add\n      swap2\n      swap1\n      0x00\n      mstore\n      keccak256(0x00, 0x20)\n      swap1\n    tag_107:\n      dup2\n      sload\n      dup2\n      mstore\n      swap1\n      0x01\n      add\n      swap1\n      0x20\n      add\n      dup1\n      dup4\n      gt\n      tag_107\n      jumpi\n      dup3\n      swap1\n      sub\n      0x1f\n      and\n      dup3\n      add\n      swap2\n    tag_105:\n      pop\n      pop\n      pop\n      pop\n      pop\n      swap1\n      pop\n        /* \"SimpleToken.sol\":1613:1698  function symbol() public view returns (string memory) {... */\n      swap1\n      jump\t// out\n        /* \"SimpleToken.sol\":2082:2342  function transfer(address recipient, uint256 amount)... */\n    tag_64:\n        /* \"SimpleToken.sol\":2200:2204  bool */\n      0x00\n        /* \"SimpleToken.sol\":2220:2260  _transfer(msg.sender, recipient, amount) */\n      tag_109\n        /* \"SimpleToken.sol\":2230:2240  msg.sender */\n      caller\n        /* \"SimpleToken.sol\":2242:2251  recipient */\n      dup5\n        /* \"SimpleToken.sol\":2253:2259  amount */\n      dup5\n        /* \"SimpleToken.sol\":2220:2229  _transfer */\n      tag_92\n        /* \"SimpleToken.sol\":2220:2260  _transfer(msg.sender, recipient, amount) */\n      jump\t// in\n    tag_109:\n        /* \"SimpleToken.sol\":2296:2305  recipient */\n      dup3\n        /* \"SimpleToken.sol\":2275:2314  Transfer(msg.sender, recipient, amount) */\n      0xffffffffffffffffffffffffffffffffffffffff\n      and\n        /* \"SimpleToken.sol\":2284:2294  msg.sender */\n      caller\n        /* \"SimpleToken.sol\":2275:2314  Transfer(msg.sender, recipient, amount) */\n      0xffffffffffffffffffffffffffffffffffffffff\n      and\n      0xddf252ad1be2c89b69c2b068fc378daa952ba7f163c4a11628f55a4df523b3ef\n        /* \"SimpleToken.sol\":2307:2313  amount */\n      dup5\n        /* \"SimpleToken.sol\":2275:2314  Transfer(msg.sender, recipient, amount) */\n      mload(0x40)\n      tag_110\n      swap2\n      swap1\n      tag_25\n      jump\t// in\n    tag_110:\n      mload(0x40)\n      dup1\n      swap2\n      sub\n      swap1\n      log3\n        /* \"SimpleToken.sol\":2331:2335  true */\n      0x01\n        /* \"SimpleToken.sol\":2324:2335  return true */\n      swap1\n      pop\n        /* \"SimpleToken.sol\":2082:2342  function transfer(address recipient, uint256 amount)... */\n      swap3\n      swap2\n      pop\n      pop\n      jump\t// out\n        /* \"SimpleToken.sol\":1236:1257  string public _symbol */\n    tag_67:\n      0x04\n      dup1\n      sload\n      tag_111\n      swap1\n      tag_78\n      jump\t// in\n    tag_111:\n      dup1\n      0x1f\n      add\n      0x20\n      dup1\n      swap2\n      div\n      mul\n      0x20\n      add\n      mload(0x40)\n      swap1\n      dup2\n      add\n      0x40\n      mstore\n      dup1\n      swap3\n      swap2\n      swap1\n      dup2\n      dup2\n      mstore\n      0x20\n      add\n      dup3\n      dup1\n      sload\n      tag_112\n      swap1\n      tag_78\n      jump\t// in\n    tag_112:\n      dup1\n      iszero\n      tag_113\n      jumpi\n      dup1\n      0x1f\n      lt\n      tag_114\n      jumpi\n      0x0100\n      dup1\n      dup4\n      sload\n      div\n      mul\n      dup4\n      mstore\n      swap2\n      0x20\n      add\n      swap2\n      jump(tag_113)\n    tag_114:\n      dup3\n      add\n      swap2\n      swap1\n      0x00\n      mstore\n      keccak256(0x00, 0x20)\n      swap1\n    tag_115:\n      dup2\n      sload\n      dup2\n      mstore\n      swap1\n      0x01\n      add\n      swap1\n      0x20\n      add\n      dup1\n      dup4\n      gt\n      tag_115\n      jumpi\n      dup3\n      swap1\n      sub\n      0x1f\n      and\n      dup3\n      add\n      swap2\n    tag_113:\n      pop\n      pop\n      pop\n      pop\n      pop\n      dup2\n      jump\t// out\n        /* \"SimpleToken.sol\":1211:1230  string public _name */\n    tag_70:\n      0x03\n      dup1\n      sload\n      tag_116\n      swap1\n      tag_78\n      jump\t// in\n    tag_116:\n      dup1\n      0x1f\n      add\n      0x20\n      dup1\n      swap2\n      div\n      mul\n      0x20\n      add\n      mload(0x40)\n      swap1\n      dup2\n      add\n      0x40\n      mstore\n      dup1\n      swap3\n      swap2\n      swap1\n      dup2\n      dup2\n      mstore\n      0x20\n      add\n      dup3\n      dup1\n      sload\n      tag_117\n      swap1\n      tag_78\n      jump\t// in\n    tag_117:\n      dup1\n      iszero\n      tag_118\n      jumpi\n      dup1\n      0x1f\n      lt\n      tag_119\n      jumpi\n      0x0100\n      dup1\n      dup4\n      sload\n      div\n      mul\n      dup4\n      mstore\n      swap2\n      0x20\n      add\n      swap2\n      jump(tag_118)\n    tag_119:\n      dup3\n      add\n      swap2\n      swap1\n      0x00\n      mstore\n      keccak256(0x00, 0x20)\n      swap1\n    tag_120:\n      dup2\n      sload\n      dup2\n      mstore\n      swap1\n      0x01\n      add\n      swap1\n      0x20\n      add\n      dup1\n      dup4\n      gt\n      tag_120\n      jumpi\n      dup3\n      swap1\n      sub\n      0x1f\n      and\n      dup3\n      add\n      swap2\n    tag_118:\n      pop\n      pop\n      pop\n      pop\n      pop\n      dup2\n      jump\t// out\n        /* \"SimpleToken.sol\":2348:2527  function allowance(address owner, address spender)... */\n    tag_74:\n        /* \"SimpleToken.sol\":2463:2470  uint256 */\n      0x00\n        /* \"SimpleToken.sol\":2493:2504  _allowances */\n      0x01\n        /* \"SimpleToken.sol\":2493:2511  _allowances[owner] */\n      0x00\n        /* \"SimpleToken.sol\":2505:2510  owner */\n      dup5\n        /* \"SimpleToken.sol\":2493:2511  _allowances[owner] */\n      0xffffffffffffffffffffffffffffffffffffffff\n      and\n      0xffffffffffffffffffffffffffffffffffffffff\n      and\n      dup2\n      mstore\n      0x20\n      add\n      swap1\n      dup2\n      mstore\n      0x20\n      add\n      0x00\n      keccak256\n        /* \"SimpleToken.sol\":2493:2520  _allowances[owner][spender] */\n      0x00\n        /* \"SimpleToken.sol\":2512:2519  spender */\n      dup4\n        /* \"SimpleToken.sol\":2493:2520  _allowances[owner][spender] */\n      0xffffffffffffffffffffffffffffffffffffffff\n      and\n      0xffffffffffffffffffffffffffffffffffffffff\n      and\n      dup2\n      mstore\n      0x20\n      add\n      swap1\n      dup2\n      mstore\n      0x20\n      add\n      0x00\n      keccak256\n      sload\n        /* \"SimpleToken.sol\":2486:2520  return _allowances[owner][spender] */\n      swap1\n      pop\n        /* \"SimpleToken.sol\":2348:2527  function allowance(address owner, address spender)... */\n      swap3\n      swap2\n      pop\n      pop\n      jump\t// out\n        /* \"SimpleToken.sol\":4121:4665  function _approve(... */\n    tag_88:\n        /* \"SimpleToken.sol\":4300:4301  0 */\n      0x00\n        /* \"SimpleToken.sol\":4283:4302  owner != address(0) */\n      0xffffffffffffffffffffffffffffffffffffffff\n      and\n        /* \"SimpleToken.sol\":4283:4288  owner */\n      dup5\n        /* \"SimpleToken.sol\":4283:4302  owner != address(0) */\n      0xffffffffffffffffffffffffffffffffffffffff\n      and\n      sub\n        /* \"SimpleToken.sol\":4275:4343  require(owner != address(0), \"ERC20: approve from the zero address\") */\n      tag_123\n      jumpi\n      mload(0x40)\n      0x08c379a000000000000000000000000000000000000000000000000000000000\n      dup2\n      mstore\n      0x04\n      add\n      tag_124\n      swap1\n      tag_125\n      jump\t// in\n    tag_124:\n      mload(0x40)\n      dup1\n      swap2\n      sub\n      swap1\n      revert\n    tag_123:\n        /* \"SimpleToken.sol\":4380:4381  0 */\n      0x00\n        /* \"SimpleToken.sol\":4361:4382  spender != address(0) */\n      0xffffffffffffffffffffffffffffffffffffffff\n      and\n        /* \"SimpleToken.sol\":4361:4368  spender */\n      dup4\n        /* \"SimpleToken.sol\":4361:4382  spender != address(0) */\n      0xffffffffffffffffffffffffffffffffffffffff\n      and\n      sub\n        /* \"SimpleToken.sol\":4353:4421  require(spender != address(0), \"ERC20: approve to the zero address\") */\n      tag_126\n      jumpi\n      mload(0x40)\n      0x08c379a000000000000000000000000000000000000000000000000000000000\n      dup2\n      mstore\n      0x04\n      add\n      tag_127\n      swap1\n      tag_128\n      jump\t// in\n    tag_127:\n      mload(0x40)\n      dup1\n      swap2\n      sub\n      swap1\n      revert\n    tag_126:\n        /* \"SimpleToken.sol\":4469:4480  _allowances */\n      0x01\n        /* \"SimpleToken.sol\":4469:4487  _allowances[owner] */\n      0x00\n        /* \"SimpleToken.sol\":4481:4486  owner */\n      dup6\n        /* \"SimpleToken.sol\":4469:4487  _allowances[owner] */\n      0xffffffffffffffffffffffffffffffffffffffff\n      and\n      0xffffffffffffffffffffffffffffffffffffffff\n      and\n      dup2\n      mstore\n      0x20\n      add\n      swap1\n      dup2\n      mstore\n      0x20\n      add\n      0x00\n      keccak256\n        /* \"SimpleToken.sol\":4469:4496  _allowances[owner][spender] */\n      0x00\n        /* \"SimpleToken.sol\":4488:4495  spender */\n      dup5\n        /* \"SimpleToken.sol\":4469:4496  _allowances[owner][spender] */\n      0xffffffffffffffffffffffffffffffffffffffff\n      and\n      0xffffffffffffffffffffffffffffffffffffffff\n      and\n      dup2\n      mstore\n      0x20\n      add\n      swap1\n      dup2\n      mstore\n      0x20\n      add\n      0x00\n      keccak256\n      sload\n        /* \"SimpleToken.sol\":4452:4465  currentAmount */\n      dup3\n        /* \"SimpleToken.sol\":4452:4496  currentAmount == _allowances[owner][spender] */\n      eq\n        /* \"SimpleToken.sol\":4431:4550  require(... */\n      tag_129\n      jumpi\n      mload(0x40)\n      0x08c379a000000000000000000000000000000000000000000000000000000000\n      dup2\n      mstore\n      0x04\n      add\n      tag_130\n      swap1\n      tag_131\n      jump\t// in\n    tag_130:\n      mload(0x40)\n      dup1\n      swap2\n      sub\n      swap1\n      revert\n    tag_129:\n        /* \"SimpleToken.sol\":4590:4596  amount */\n      dup1\n        /* \"SimpleToken.sol\":4560:4571  _allowances */\n      0x01\n        /* \"SimpleToken.sol\":4560:4578  _allowances[owner] */\n      0x00\n        /* \"SimpleToken.sol\":4572:4577  owner */\n      dup7\n        /* \"SimpleToken.sol\":4560:4578  _allowances[owner] */\n      0xffffffffffffffffffffffffffffffffffffffff\n      and\n      0xffffffffffffffffffffffffffffffffffffffff\n      and\n      dup2\n      mstore\n      0x20\n      add\n      swap1\n      dup2\n      mstore\n      0x20\n      add\n      0x00\n      keccak256\n        /* \"SimpleToken.sol\":4560:4587  _allowances[owner][spender] */\n      0x00\n        /* \"SimpleToken.sol\":4579:4586  spender */\n      dup6\n        /* \"SimpleToken.sol\":4560:4587  _allowances[owner][spender] */\n      0xffffffffffffffffffffffffffffffffffffffff\n      and\n      0xffffffffffffffffffffffffffffffffffffffff\n      and\n      dup2\n      mstore\n      0x20\n      add\n      swap1\n      dup2\n      mstore\n      0x20\n      add\n      0x00\n      keccak256\n        /* \"SimpleToken.sol\":4560:4596  _allowances[owner][spender] = amount */\n      dup2\n      swap1\n      sstore\n      pop\n        /* \"SimpleToken.sol\":4627:4634  spender */\n      dup3\n        /* \"SimpleToken.sol\":4611:4658  Approval(owner, spender, currentAmount, amount) */\n      0xffffffffffffffffffffffffffffffffffffffff\n      and\n        /* \"SimpleToken.sol\":4620:4625  owner */\n      dup5\n        /* \"SimpleToken.sol\":4611:4658  Approval(owner, spender, currentAmount, amount) */\n      0xffffffffffffffffffffffffffffffffffffffff\n      and\n      0xb3fd5071835887567a0671151121894ddccc2842f1d10bedad13e0d17cace9a7\n        /* \"SimpleToken.sol\":4636:4649  currentAmount */\n      dup5\n        /* \"SimpleToken.sol\":4651:4657  amount */\n      dup5\n        /* \"SimpleToken.sol\":4611:4658  Approval(owner, spender, currentAmount, amount) */\n      mload(0x40)\n      tag_132\n      swap3\n      swap2\n      swap1\n      tag_133\n      jump\t// in\n    tag_132:\n      mload(0x40)\n      dup1\n      swap2\n      sub\n      swap1\n      log3\n        /* \"SimpleToken.sol\":4121:4665  function _approve(... */\n      pop\n      pop\n      pop\n      pop\n      jump\t// out\n        /* \"SimpleToken.sol\":3569:4115  function _transfer(... */\n    tag_92:\n        /* \"SimpleToken.sol\":3722:3723  0 */\n      0x00\n        /* \"SimpleToken.sol\":3704:3724  sender != address(0) */\n      0xffffffffffffffffffffffffffffffffffffffff\n      and\n        /* \"SimpleToken.sol\":3704:3710  sender */\n      dup4\n        /* \"SimpleToken.sol\":3704:3724  sender != address(0) */\n      0xffffffffffffffffffffffffffffffffffffffff\n      and\n      sub\n        /* \"SimpleToken.sol\":3696:3766  require(sender != address(0), \"ERC20: transfer from the zero address\") */\n      tag_135\n      jumpi\n      mload(0x40)\n      0x08c379a000000000000000000000000000000000000000000000000000000000\n      dup2\n      mstore\n      0x04\n      add\n      tag_136\n      swap1\n      tag_137\n      jump\t// in\n    tag_136:\n      mload(0x40)\n      dup1\n      swap2\n      sub\n      swap1\n      revert\n    tag_135:\n        /* \"SimpleToken.sol\":3805:3806  0 */\n      0x00\n        /* \"SimpleToken.sol\":3784:3807  recipient != address(0) */\n      0xffffffffffffffffffffffffffffffffffffffff\n      and\n        /* \"SimpleToken.sol\":3784:3793  recipient */\n      dup3\n        /* \"SimpleToken.sol\":3784:3807  recipient != address(0) */\n      0xffffffffffffffffffffffffffffffffffffffff\n      and\n      sub\n        /* \"SimpleToken.sol\":3776:3847  require(recipient != address(0), \"ERC20: transfer to the zero address\") */\n      tag_138\n      jumpi\n      mload(0x40)\n      0x08c379a000000000000000000000000000000000000000000000000000000000\n      dup2\n      mstore\n      0x04\n      add\n      tag_139\n      swap1\n      tag_140\n      jump\t// in\n    tag_139:\n      mload(0x40)\n      dup1\n      swap2\n      sub\n      swap1\n      revert\n    tag_138:\n        /* \"SimpleToken.sol\":3857:3878  uint256 senderBalance */\n      0x00\n        /* \"SimpleToken.sol\":3881:3890  _balances */\n      dup1\n        /* \"SimpleToken.sol\":3881:3898  _balances[sender] */\n      0x00\n        /* \"SimpleToken.sol\":3891:3897  sender */\n      dup6\n        /* \"SimpleToken.sol\":3881:3898  _balances[sender] */\n      0xffffffffffffffffffffffffffffffffffffffff\n      and\n      0xffffffffffffffffffffffffffffffffffffffff\n      and\n      dup2\n      mstore\n      0x20\n      add\n      swap1\n      dup2\n      mstore\n      0x20\n      add\n      0x00\n      keccak256\n      sload\n        /* \"SimpleToken.sol\":3857:3898  uint256 senderBalance = _balances[sender] */\n      swap1\n      pop\n        /* \"SimpleToken.sol\":3946:3952  amount */\n      dup2\n        /* \"SimpleToken.sol\":3929:3942  senderBalance */\n      dup2\n        /* \"SimpleToken.sol\":3929:3952  senderBalance >= amount */\n      lt\n      iszero\n        /* \"SimpleToken.sol\":3908:4016  require(... */\n      tag_141\n      jumpi\n      mload(0x40)\n      0x08c379a000000000000000000000000000000000000000000000000000000000\n      dup2\n      mstore\n      0x04\n      add\n      tag_142\n      swap1\n      tag_143\n      jump\t// in\n    tag_142:\n      mload(0x40)\n      dup1\n      swap2\n      sub\n      swap1\n      revert\n    tag_141:\n        /* \"SimpleToken.sol\":4062:4068  amount */\n      dup2\n        /* \"SimpleToken.sol\":4046:4059  senderBalance */\n      dup2\n        /* \"SimpleToken.sol\":4046:4068  senderBalance - amount */\n      tag_144\n      swap2\n      swap1\n      tag_99\n      jump\t// in\n    tag_144:\n        /* \"SimpleToken.sol\":4026:4035  _balances */\n      0x00\n        /* \"SimpleToken.sol\":4026:4043  _balances[sender] */\n      dup1\n        /* \"SimpleToken.sol\":4036:4042  sender */\n      dup7\n        /* \"SimpleToken.sol\":4026:4043  _balances[sender] */\n      0xffffffffffffffffffffffffffffffffffffffff\n      and\n      0xffffffffffffffffffffffffffffffffffffffff\n      and\n      dup2\n      mstore\n      0x20\n      add\n      swap1\n      dup2\n      mstore\n      0x20\n      add\n      0x00\n      keccak256\n        /* \"SimpleToken.sol\":4026:4068  _balances[sender] = senderBalance - amount */\n      dup2\n      swap1\n      sstore\n      pop\n        /* \"SimpleToken.sol\":4102:4108  amount */\n      dup2\n        /* \"SimpleToken.sol\":4078:4087  _balances */\n      0x00\n        /* \"SimpleToken.sol\":4078:4098  _balances[recipient] */\n      dup1\n        /* \"SimpleToken.sol\":4088:4097  recipient */\n      dup6\n        /* \"SimpleToken.sol\":4078:4098  _balances[recipient] */\n      0xffffffffffffffffffffffffffffffffffffffff\n      and\n      0xffffffffffffffffffffffffffffffffffffffff\n      and\n      dup2\n      mstore\n      0x20\n      add\n      swap1\n      dup2\n      mstore\n      0x20\n      add\n      0x00\n      keccak256\n      0x00\n        /* \"SimpleToken.sol\":4078:4108  _balances[recipient] += amount */\n      dup3\n      dup3\n      sload\n      tag_145\n      swap2\n      swap1\n      tag_146\n      jump\t// in\n    tag_145:\n      swap3\n      pop\n      pop\n      dup2\n      swap1\n      sstore\n      pop\n        /* \"SimpleToken.sol\":3686:4115  {... */\n      pop\n        /* \"SimpleToken.sol\":3569:4115  function _transfer(... */\n      pop\n      pop\n      pop\n      jump\t// out\n        /* \"#utility.yul\":88:205   */\n    tag_148:\n        /* \"#utility.yul\":197:198   */\n      0x00\n        /* \"#utility.yul\":194:195   */\n      dup1\n        /* \"#utility.yul\":187:199   */\n      revert\n        /* \"#utility.yul\":334:460   */\n    tag_150:\n        /* \"#utility.yul\":371:378   */\n      0x00\n        /* \"#utility.yul\":411:453   */\n      0xffffffffffffffffffffffffffffffffffffffff\n        /* \"#utility.yul\":404:409   */\n      dup3\n        /* \"#utility.yul\":400:454   */\n      and\n        /* \"#utility.yul\":389:454   */\n      swap1\n      pop\n        /* \"#utility.yul\":334:460   */\n      swap2\n      swap1\n      pop\n      jump\t// out\n        /* \"#utility.yul\":466:562   */\n    tag_151:\n        /* \"#utility.yul\":503:510   */\n      0x00\n        /* \"#utility.yul\":532:556   */\n      tag_191\n        /* \"#utility.yul\":550:555   */\n      dup3\n        /* \"#utility.yul\":532:556   */\n      tag_150\n      jump\t// in\n    tag_191:\n        /* \"#utility.yul\":521:556   */\n      swap1\n      pop\n        /* \"#utility.yul\":466:562   */\n      swap2\n      swap1\n      pop\n      jump\t// out\n        /* \"#utility.yul\":568:690   */\n    tag_152:\n        /* \"#utility.yul\":641:665   */\n      tag_193\n        /* \"#utility.yul\":659:664   */\n      dup2\n        /* \"#utility.yul\":641:665   */\n      tag_151\n      jump\t// in\n    tag_193:\n        /* \"#utility.yul\":634:639   */\n      dup2\n        /* \"#utility.yul\":631:666   */\n      eq\n        /* \"#utility.yul\":621:684   */\n      tag_194\n      jumpi\n        /* \"#utility.yul\":680:681   */\n      0x00\n        /* \"#utility.yul\":677:678   */\n      dup1\n        /* \"#utility.yul\":670:682   */\n      revert\n        /* \"#utility.yul\":621:684   */\n    tag_194:\n        /* \"#utility.yul\":568:690   */\n      pop\n      jump\t// out\n        /* \"#utility.yul\":696:835   */\n    tag_153:\n        /* \"#utility.yul\":742:747   */\n      0x00\n        /* \"#utility.yul\":780:786   */\n      dup2\n        /* \"#utility.yul\":767:787   */\n      calldataload\n        /* \"#utility.yul\":758:787   */\n      swap1\n      pop\n        /* \"#utility.yul\":796:829   */\n      tag_196\n        /* \"#utility.yul\":823:828   */\n      dup2\n        /* \"#utility.yul\":796:829   */\n      tag_152\n      jump\t// in\n    tag_196:\n        /* \"#utility.yul\":696:835   */\n      swap3\n      swap2\n      pop\n      pop\n      jump\t// out\n        /* \"#utility.yul\":841:1315   */\n    tag_22:\n        /* \"#utility.yul\":909:915   */\n      0x00\n        /* \"#utility.yul\":917:923   */\n      dup1\n        /* \"#utility.yul\":966:968   */\n      0x40\n        /* \"#utility.yul\":954:963   */\n      dup4\n        /* \"#utility.yul\":945:952   */\n      dup6\n        /* \"#utility.yul\":941:964   */\n      sub\n        /* \"#utility.yul\":937:969   */\n      slt\n        /* \"#utility.yul\":934:1053   */\n      iszero\n      tag_198\n      jumpi\n        /* \"#utility.yul\":972:1051   */\n      tag_199\n      tag_148\n      jump\t// in\n    tag_199:\n        /* \"#utility.yul\":934:1053   */\n    tag_198:\n        /* \"#utility.yul\":1092:1093   */\n      0x00\n        /* \"#utility.yul\":1117:1170   */\n      tag_200\n        /* \"#utility.yul\":1162:1169   */\n      dup6\n        /* \"#utility.yul\":1153:1159   */\n      dup3\n        /* \"#utility.yul\":1142:1151   */\n      dup7\n        /* \"#utility.yul\":1138:1160   */\n      add\n        /* \"#utility.yul\":1117:1170   */\n      tag_153\n      jump\t// in\n    tag_200:\n        /* \"#utility.yul\":1107:1170   */\n      swap3\n      pop\n        /* \"#utility.yul\":1063:1180   */\n      pop\n        /* \"#utility.yul\":1219:1221   */\n      0x20\n        /* \"#utility.yul\":1245:1298   */\n      tag_201\n        /* \"#utility.yul\":1290:1297   */\n      dup6\n        /* \"#utility.yul\":1281:1287   */\n      dup3\n        /* \"#utility.yul\":1270:1279   */\n      dup7\n        /* \"#utility.yul\":1266:1288   */\n      add\n        /* \"#utility.yul\":1245:1298   */\n      tag_153\n      jump\t// in\n    tag_201:\n        /* \"#utility.yul\":1235:1298   */\n      swap2\n      pop\n        /* \"#utility.yul\":1190:1308   */\n      pop\n        /* \"#utility.yul\":841:1315   */\n      swap3\n      pop\n      swap3\n      swap1\n      pop\n      jump\t// out\n        /* \"#utility.yul\":1321:1398   */\n    tag_154:\n        /* \"#utility.yul\":1358:1365   */\n      0x00\n        /* \"#utility.yul\":1387:1392   */\n      dup2\n        /* \"#utility.yul\":1376:1392   */\n      swap1\n      pop\n        /* \"#utility.yul\":1321:1398   */\n      swap2\n      swap1\n      pop\n      jump\t// out\n        /* \"#utility.yul\":1404:1522   */\n    tag_155:\n        /* \"#utility.yul\":1491:1515   */\n      tag_204\n        /* \"#utility.yul\":1509:1514   */\n      dup2\n        /* \"#utility.yul\":1491:1515   */\n      tag_154\n      jump\t// in\n    tag_204:\n        /* \"#utility.yul\":1486:1489   */\n      dup3\n        /* \"#utility.yul\":1479:1516   */\n      mstore\n        /* \"#utility.yul\":1404:1522   */\n      pop\n      pop\n      jump\t// out\n        /* \"#utility.yul\":1528:1750   */\n    tag_25:\n        /* \"#utility.yul\":1621:1625   */\n      0x00\n        /* \"#utility.yul\":1659:1661   */\n      0x20\n        /* \"#utility.yul\":1648:1657   */\n      dup3\n        /* \"#utility.yul\":1644:1662   */\n      add\n        /* \"#utility.yul\":1636:1662   */\n      swap1\n      pop\n        /* \"#utility.yul\":1672:1743   */\n      tag_206\n        /* \"#utility.yul\":1740:1741   */\n      0x00\n        /* \"#utility.yul\":1729:1738   */\n      dup4\n        /* \"#utility.yul\":1725:1742   */\n      add\n        /* \"#utility.yul\":1716:1722   */\n      dup5\n        /* \"#utility.yul\":1672:1743   */\n      tag_155\n      jump\t// in\n    tag_206:\n        /* \"#utility.yul\":1528:1750   */\n      swap3\n      swap2\n      pop\n      pop\n      jump\t// out\n        /* \"#utility.yul\":1756:1855   */\n    tag_156:\n        /* \"#utility.yul\":1808:1814   */\n      0x00\n        /* \"#utility.yul\":1842:1847   */\n      dup2\n        /* \"#utility.yul\":1836:1848   */\n      mload\n        /* \"#utility.yul\":1826:1848   */\n      swap1\n      pop\n        /* \"#utility.yul\":1756:1855   */\n      swap2\n      swap1\n      pop\n      jump\t// out\n        /* \"#utility.yul\":1861:2030   */\n    tag_157:\n        /* \"#utility.yul\":1945:1956   */\n      0x00\n        /* \"#utility.yul\":1979:1985   */\n      dup3\n        /* \"#utility.yul\":1974:1977   */\n      dup3\n        /* \"#utility.yul\":1967:1986   */\n      mstore\n        /* \"#utility.yul\":2019:2023   */\n      0x20\n        /* \"#utility.yul\":2014:2017   */\n      dup3\n        /* \"#utility.yul\":2010:2024   */\n      add\n        /* \"#utility.yul\":1995:2024   */\n      swap1\n      pop\n        /* \"#utility.yul\":1861:2030   */\n      swap3\n      swap2\n      pop\n      pop\n      jump\t// out\n        /* \"#utility.yul\":2036:2343   */\n    tag_158:\n        /* \"#utility.yul\":2104:2105   */\n      0x00\n        /* \"#utility.yul\":2114:2227   */\n    tag_210:\n        /* \"#utility.yul\":2128:2134   */\n      dup4\n        /* \"#utility.yul\":2125:2126   */\n      dup2\n        /* \"#utility.yul\":2122:2135   */\n      lt\n        /* \"#utility.yul\":2114:2227   */\n      iszero\n      tag_212\n      jumpi\n        /* \"#utility.yul\":2213:2214   */\n      dup1\n        /* \"#utility.yul\":2208:2211   */\n      dup3\n        /* \"#utility.yul\":2204:2215   */\n      add\n        /* \"#utility.yul\":2198:2216   */\n      mload\n        /* \"#utility.yul\":2194:2195   */\n      dup2\n        /* \"#utility.yul\":2189:2192   */\n      dup5\n        /* \"#utility.yul\":2185:2196   */\n      add\n        /* \"#utility.yul\":2178:2217   */\n      mstore\n        /* \"#utility.yul\":2150:2152   */\n      0x20\n        /* \"#utility.yul\":2147:2148   */\n      dup2\n        /* \"#utility.yul\":2143:2153   */\n      add\n        /* \"#utility.yul\":2138:2153   */\n      swap1\n      pop\n        /* \"#utility.yul\":2114:2227   */\n      jump(tag_210)\n    tag_212:\n        /* \"#utility.yul\":2245:2251   */\n      dup4\n        /* \"#utility.yul\":2242:2243   */\n      dup2\n        /* \"#utility.yul\":2239:2252   */\n      gt\n        /* \"#utility.yul\":2236:2337   */\n      iszero\n      tag_213\n      jumpi\n        /* \"#utility.yul\":2325:2326   */\n      0x00\n        /* \"#utility.yul\":2316:2322   */\n      dup5\n        /* \"#utility.yul\":2311:2314   */\n      dup5\n        /* \"#utility.yul\":2307:2323   */\n      add\n        /* \"#utility.yul\":2300:2327   */\n      mstore\n        /* \"#utility.yul\":2236:2337   */\n    tag_213:\n        /* \"#utility.yul\":2085:2343   */\n      pop\n        /* \"#utility.yul\":2036:2343   */\n      pop\n      pop\n      pop\n      jump\t// out\n        /* \"#utility.yul\":2349:2451   */\n    tag_159:\n        /* \"#utility.yul\":2390:2396   */\n      0x00\n        /* \"#utility.yul\":2441:2443   */\n      0x1f\n        /* \"#utility.yul\":2437:2444   */\n      not\n        /* \"#utility.yul\":2432:2434   */\n      0x1f\n        /* \"#utility.yul\":2425:2430   */\n      dup4\n        /* \"#utility.yul\":2421:2435   */\n      add\n        /* \"#utility.yul\":2417:2445   */\n      and\n        /* \"#utility.yul\":2407:2445   */\n      swap1\n      pop\n        /* \"#utility.yul\":2349:2451   */\n      swap2\n      swap1\n      pop\n      jump\t// out\n        /* \"#utility.yul\":2457:2821   */\n    tag_160:\n        /* \"#utility.yul\":2545:2548   */\n      0x00\n        /* \"#utility.yul\":2573:2612   */\n      tag_216\n        /* \"#utility.yul\":2606:2611   */\n      dup3\n        /* \"#utility.yul\":2573:2612   */\n      tag_156\n      jump\t// in\n    tag_216:\n        /* \"#utility.yul\":2628:2699   */\n      tag_217\n        /* \"#utility.yul\":2692:2698   */\n      dup2\n        /* \"#utility.yul\":2687:2690   */\n      dup6\n        /* \"#utility.yul\":2628:2699   */\n      tag_157\n      jump\t// in\n    tag_217:\n        /* \"#utility.yul\":2621:2699   */\n      swap4\n      pop\n        /* \"#utility.yul\":2708:2760   */\n      tag_218\n        /* \"#utility.yul\":2753:2759   */\n      dup2\n        /* \"#utility.yul\":2748:2751   */\n      dup6\n        /* \"#utility.yul\":2741:2745   */\n      0x20\n        /* \"#utility.yul\":2734:2739   */\n      dup7\n        /* \"#utility.yul\":2730:2746   */\n      add\n        /* \"#utility.yul\":2708:2760   */\n      tag_158\n      jump\t// in\n    tag_218:\n        /* \"#utility.yul\":2785:2814   */\n      tag_219\n        /* \"#utility.yul\":2807:2813   */\n      dup2\n        /* \"#utility.yul\":2785:2814   */\n      tag_159\n      jump\t// in\n    tag_219:\n        /* \"#utility.yul\":2780:2783   */\n      dup5\n        /* \"#utility.yul\":2776:2815   */\n      add\n        /* \"#utility.yul\":2769:2815   */\n      swap2\n      pop\n        /* \"#utility.yul\":2549:2821   */\n      pop\n        /* \"#utility.yul\":2457:2821   */\n      swap3\n      swap2\n      pop\n      pop\n      jump\t// out\n        /* \"#utility.yul\":2827:3140   */\n    tag_29:\n        /* \"#utility.yul\":2940:2944   */\n      0x00\n        /* \"#utility.yul\":2978:2980   */\n      0x20\n        /* \"#utility.yul\":2967:2976   */\n      dup3\n        /* \"#utility.yul\":2963:2981   */\n      add\n        /* \"#utility.yul\":2955:2981   */\n      swap1\n      pop\n        /* \"#utility.yul\":3027:3036   */\n      dup2\n        /* \"#utility.yul\":3021:3025   */\n      dup2\n        /* \"#utility.yul\":3017:3037   */\n      sub\n        /* \"#utility.yul\":3013:3014   */\n      0x00\n        /* \"#utility.yul\":3002:3011   */\n      dup4\n        /* \"#utility.yul\":2998:3015   */\n      add\n        /* \"#utility.yul\":2991:3038   */\n      mstore\n        /* \"#utility.yul\":3055:3133   */\n      tag_221\n        /* \"#utility.yul\":3128:3132   */\n      dup2\n        /* \"#utility.yul\":3119:3125   */\n      dup5\n        /* \"#utility.yul\":3055:3133   */\n      tag_160\n      jump\t// in\n    tag_221:\n        /* \"#utility.yul\":3047:3133   */\n      swap1\n      pop\n        /* \"#utility.yul\":2827:3140   */\n      swap3\n      swap2\n      pop\n      pop\n      jump\t// out\n        /* \"#utility.yul\":3146:3268   */\n    tag_161:\n        /* \"#utility.yul\":3219:3243   */\n      tag_223\n        /* \"#utility.yul\":3237:3242   */\n      dup2\n        /* \"#utility.yul\":3219:3243   */\n      tag_154\n      jump\t// in\n    tag_223:\n        /* \"#utility.yul\":3212:3217   */\n      dup2\n        /* \"#utility.yul\":3209:3244   */\n      eq\n        /* \"#utility.yul\":3199:3262   */\n      tag_224\n      jumpi\n        /* \"#utility.yul\":3258:3259   */\n      0x00\n        /* \"#utility.yul\":3255:3256   */\n      dup1\n        /* \"#utility.yul\":3248:3260   */\n      revert\n        /* \"#utility.yul\":3199:3262   */\n    tag_224:\n        /* \"#utility.yul\":3146:3268   */\n      pop\n      jump\t// out\n        /* \"#utility.yul\":3274:3413   */\n    tag_162:\n        /* \"#utility.yul\":3320:3325   */\n      0x00\n        /* \"#utility.yul\":3358:3364   */\n      dup2\n        /* \"#utility.yul\":3345:3365   */\n      calldataload\n        /* \"#utility.yul\":3336:3365   */\n      swap1\n      pop\n        /* \"#utility.yul\":3374:3407   */\n      tag_226\n        /* \"#utility.yul\":3401:3406   */\n      dup2\n        /* \"#utility.yul\":3374:3407   */\n      tag_161\n      jump\t// in\n    tag_226:\n        /* \"#utility.yul\":3274:3413   */\n      swap3\n      swap2\n      pop\n      pop\n      jump\t// out\n        /* \"#utility.yul\":3419:3893   */\n    tag_32:\n        /* \"#utility.yul\":3487:3493   */\n      0x00\n        /* \"#utility.yul\":3495:3501   */\n      dup1\n        /* \"#utility.yul\":3544:3546   */\n      0x40\n        /* \"#utility.yul\":3532:3541   */\n      dup4\n        /* \"#utility.yul\":3523:3530   */\n      dup6\n        /* \"#utility.yul\":3519:3542   */\n      sub\n        /* \"#utility.yul\":3515:3547   */\n      slt\n        /* \"#utility.yul\":3512:3631   */\n      iszero\n      tag_228\n      jumpi\n        /* \"#utility.yul\":3550:3629   */\n      tag_229\n      tag_148\n      jump\t// in\n    tag_229:\n        /* \"#utility.yul\":3512:3631   */\n    tag_228:\n        /* \"#utility.yul\":3670:3671   */\n      0x00\n        /* \"#utility.yul\":3695:3748   */\n      tag_230\n        /* \"#utility.yul\":3740:3747   */\n      dup6\n        /* \"#utility.yul\":3731:3737   */\n      dup3\n        /* \"#utility.yul\":3720:3729   */\n      dup7\n        /* \"#utility.yul\":3716:3738   */\n      add\n        /* \"#utility.yul\":3695:3748   */\n      tag_153\n      jump\t// in\n    tag_230:\n        /* \"#utility.yul\":3685:3748   */\n      swap3\n      pop\n        /* \"#utility.yul\":3641:3758   */\n      pop\n        /* \"#utility.yul\":3797:3799   */\n      0x20\n        /* \"#utility.yul\":3823:3876   */\n      tag_231\n        /* \"#utility.yul\":3868:3875   */\n      dup6\n        /* \"#utility.yul\":3859:3865   */\n      dup3\n        /* \"#utility.yul\":3848:3857   */\n      dup7\n        /* \"#utility.yul\":3844:3866   */\n      add\n        /* \"#utility.yul\":3823:3876   */\n      tag_162\n      jump\t// in\n    tag_231:\n        /* \"#utility.yul\":3813:3876   */\n      swap2\n      pop\n        /* \"#utility.yul\":3768:3886   */\n      pop\n        /* \"#utility.yul\":3419:3893   */\n      swap3\n      pop\n      swap3\n      swap1\n      pop\n      jump\t// out\n        /* \"#utility.yul\":3899:3989   */\n    tag_163:\n        /* \"#utility.yul\":3933:3940   */\n      0x00\n        /* \"#utility.yul\":3976:3981   */\n      dup2\n        /* \"#utility.yul\":3969:3982   */\n      iszero\n        /* \"#utility.yul\":3962:3983   */\n      iszero\n        /* \"#utility.yul\":3951:3983   */\n      swap1\n      pop\n        /* \"#utility.yul\":3899:3989   */\n      swap2\n      swap1\n      pop\n      jump\t// out\n        /* \"#utility.yul\":3995:4104   */\n    tag_164:\n        /* \"#utility.yul\":4076:4097   */\n      tag_234\n        /* \"#utility.yul\":4091:4096   */\n      dup2\n        /* \"#utility.yul\":4076:4097   */\n      tag_163\n      jump\t// in\n    tag_234:\n        /* \"#utility.yul\":4071:4074   */\n      dup3\n        /* \"#utility.yul\":4064:4098   */\n      mstore\n        /* \"#utility.yul\":3995:4104   */\n      pop\n      pop\n      jump\t// out\n        /* \"#utility.yul\":4110:4320   */\n    tag_35:\n        /* \"#utility.yul\":4197:4201   */\n      0x00\n        /* \"#utility.yul\":4235:4237   */\n      0x20\n        /* \"#utility.yul\":4224:4233   */\n      dup3\n        /* \"#utility.yul\":4220:4238   */\n      add\n        /* \"#utility.yul\":4212:4238   */\n      swap1\n      pop\n        /* \"#utility.yul\":4248:4313   */\n      tag_236\n        /* \"#utility.yul\":4310:4311   */\n      0x00\n        /* \"#utility.yul\":4299:4308   */\n      dup4\n        /* \"#utility.yul\":4295:4312   */\n      add\n        /* \"#utility.yul\":4286:4292   */\n      dup5\n        /* \"#utility.yul\":4248:4313   */\n      tag_164\n      jump\t// in\n    tag_236:\n        /* \"#utility.yul\":4110:4320   */\n      swap3\n      swap2\n      pop\n      pop\n      jump\t// out\n        /* \"#utility.yul\":4326:4945   */\n    tag_41:\n        /* \"#utility.yul\":4403:4409   */\n      0x00\n        /* \"#utility.yul\":4411:4417   */\n      dup1\n        /* \"#utility.yul\":4419:4425   */\n      0x00\n        /* \"#utility.yul\":4468:4470   */\n      0x60\n        /* \"#utility.yul\":4456:4465   */\n      dup5\n        /* \"#utility.yul\":4447:4454   */\n      dup7\n        /* \"#utility.yul\":4443:4466   */\n      sub\n        /* \"#utility.yul\":4439:4471   */\n      slt\n        /* \"#utility.yul\":4436:4555   */\n      iszero\n      tag_238\n      jumpi\n        /* \"#utility.yul\":4474:4553   */\n      tag_239\n      tag_148\n      jump\t// in\n    tag_239:\n        /* \"#utility.yul\":4436:4555   */\n    tag_238:\n        /* \"#utility.yul\":4594:4595   */\n      0x00\n        /* \"#utility.yul\":4619:4672   */\n      tag_240\n        /* \"#utility.yul\":4664:4671   */\n      dup7\n        /* \"#utility.yul\":4655:4661   */\n      dup3\n        /* \"#utility.yul\":4644:4653   */\n      dup8\n        /* \"#utility.yul\":4640:4662   */\n      add\n        /* \"#utility.yul\":4619:4672   */\n      tag_153\n      jump\t// in\n    tag_240:\n        /* \"#utility.yul\":4609:4672   */\n      swap4\n      pop\n        /* \"#utility.yul\":4565:4682   */\n      pop\n        /* \"#utility.yul\":4721:4723   */\n      0x20\n        /* \"#utility.yul\":4747:4800   */\n      tag_241\n        /* \"#utility.yul\":4792:4799   */\n      dup7\n        /* \"#utility.yul\":4783:4789   */\n      dup3\n        /* \"#utility.yul\":4772:4781   */\n      dup8\n        /* \"#utility.yul\":4768:4790   */\n      add\n        /* \"#utility.yul\":4747:4800   */\n      tag_153\n      jump\t// in\n    tag_241:\n        /* \"#utility.yul\":4737:4800   */\n      swap3\n      pop\n        /* \"#utility.yul\":4692:4810   */\n      pop\n        /* \"#utility.yul\":4849:4851   */\n      0x40\n        /* \"#utility.yul\":4875:4928   */\n      tag_242\n        /* \"#utility.yul\":4920:4927   */\n      dup7\n        /* \"#utility.yul\":4911:4917   */\n      dup3\n        /* \"#utility.yul\":4900:4909   */\n      dup8\n        /* \"#utility.yul\":4896:4918   */\n      add\n        /* \"#utility.yul\":4875:4928   */\n      tag_162\n      jump\t// in\n    tag_242:\n        /* \"#utility.yul\":4865:4928   */\n      swap2\n      pop\n        /* \"#utility.yul\":4820:4938   */\n      pop\n        /* \"#utility.yul\":4326:4945   */\n      swap3\n      pop\n      swap3\n      pop\n      swap3\n      jump\t// out\n        /* \"#utility.yul\":4951:5037   */\n    tag_165:\n        /* \"#utility.yul\":4986:4993   */\n      0x00\n        /* \"#utility.yul\":5026:5030   */\n      0xff\n        /* \"#utility.yul\":5019:5024   */\n      dup3\n        /* \"#utility.yul\":5015:5031   */\n      and\n        /* \"#utility.yul\":5004:5031   */\n      swap1\n      pop\n        /* \"#utility.yul\":4951:5037   */\n      swap2\n      swap1\n      pop\n      jump\t// out\n        /* \"#utility.yul\":5043:5155   */\n    tag_166:\n        /* \"#utility.yul\":5126:5148   */\n      tag_245\n        /* \"#utility.yul\":5142:5147   */\n      dup2\n        /* \"#utility.yul\":5126:5148   */\n      tag_165\n      jump\t// in\n    tag_245:\n        /* \"#utility.yul\":5121:5124   */\n      dup3\n        /* \"#utility.yul\":5114:5149   */\n      mstore\n        /* \"#utility.yul\":5043:5155   */\n      pop\n      pop\n      jump\t// out\n        /* \"#utility.yul\":5161:5375   */\n    tag_47:\n        /* \"#utility.yul\":5250:5254   */\n      0x00\n        /* \"#utility.yul\":5288:5290   */\n      0x20\n        /* \"#utility.yul\":5277:5286   */\n      dup3\n        /* \"#utility.yul\":5273:5291   */\n      add\n        /* \"#utility.yul\":5265:5291   */\n      swap1\n      pop\n        /* \"#utility.yul\":5301:5368   */\n      tag_247\n        /* \"#utility.yul\":5365:5366   */\n      0x00\n        /* \"#utility.yul\":5354:5363   */\n      dup4\n        /* \"#utility.yul\":5350:5367   */\n      add\n        /* \"#utility.yul\":5341:5347   */\n      dup5\n        /* \"#utility.yul\":5301:5368   */\n      tag_166\n      jump\t// in\n    tag_247:\n        /* \"#utility.yul\":5161:5375   */\n      swap3\n      swap2\n      pop\n      pop\n      jump\t// out\n        /* \"#utility.yul\":5381:5710   */\n    tag_56:\n        /* \"#utility.yul\":5440:5446   */\n      0x00\n        /* \"#utility.yul\":5489:5491   */\n      0x20\n        /* \"#utility.yul\":5477:5486   */\n      dup3\n        /* \"#utility.yul\":5468:5475   */\n      dup5\n        /* \"#utility.yul\":5464:5487   */\n      sub\n        /* \"#utility.yul\":5460:5492   */\n      slt\n        /* \"#utility.yul\":5457:5576   */\n      iszero\n      tag_249\n      jumpi\n        /* \"#utility.yul\":5495:5574   */\n      tag_250\n      tag_148\n      jump\t// in\n    tag_250:\n        /* \"#utility.yul\":5457:5576   */\n    tag_249:\n        /* \"#utility.yul\":5615:5616   */\n      0x00\n        /* \"#utility.yul\":5640:5693   */\n      tag_251\n        /* \"#utility.yul\":5685:5692   */\n      dup5\n        /* \"#utility.yul\":5676:5682   */\n      dup3\n        /* \"#utility.yul\":5665:5674   */\n      dup6\n        /* \"#utility.yul\":5661:5683   */\n      add\n        /* \"#utility.yul\":5640:5693   */\n      tag_153\n      jump\t// in\n    tag_251:\n        /* \"#utility.yul\":5630:5693   */\n      swap2\n      pop\n        /* \"#utility.yul\":5586:5703   */\n      pop\n        /* \"#utility.yul\":5381:5710   */\n      swap3\n      swap2\n      pop\n      pop\n      jump\t// out\n        /* \"#utility.yul\":5716:5896   */\n    tag_167:\n        /* \"#utility.yul\":5764:5841   */\n      0x4e487b7100000000000000000000000000000000000000000000000000000000\n        /* \"#utility.yul\":5761:5762   */\n      0x00\n        /* \"#utility.yul\":5754:5842   */\n      mstore\n        /* \"#utility.yul\":5861:5865   */\n      0x22\n        /* \"#utility.yul\":5858:5859   */\n      0x04\n        /* \"#utility.yul\":5851:5866   */\n      mstore\n        /* \"#utility.yul\":5885:5889   */\n      0x24\n        /* \"#utility.yul\":5882:5883   */\n      0x00\n        /* \"#utility.yul\":5875:5890   */\n      revert\n        /* \"#utility.yul\":5902:6222   */\n    tag_78:\n        /* \"#utility.yul\":5946:5952   */\n      0x00\n        /* \"#utility.yul\":5983:5984   */\n      0x02\n        /* \"#utility.yul\":5977:5981   */\n      dup3\n        /* \"#utility.yul\":5973:5985   */\n      div\n        /* \"#utility.yul\":5963:5985   */\n      swap1\n      pop\n        /* \"#utility.yul\":6030:6031   */\n      0x01\n        /* \"#utility.yul\":6024:6028   */\n      dup3\n        /* \"#utility.yul\":6020:6032   */\n      and\n        /* \"#utility.yul\":6051:6069   */\n      dup1\n        /* \"#utility.yul\":6041:6122   */\n      tag_254\n      jumpi\n        /* \"#utility.yul\":6107:6111   */\n      0x7f\n        /* \"#utility.yul\":6099:6105   */\n      dup3\n        /* \"#utility.yul\":6095:6112   */\n      and\n        /* \"#utility.yul\":6085:6112   */\n      swap2\n      pop\n        /* \"#utility.yul\":6041:6122   */\n    tag_254:\n        /* \"#utility.yul\":6169:6171   */\n      0x20\n        /* \"#utility.yul\":6161:6167   */\n      dup3\n        /* \"#utility.yul\":6158:6172   */\n      lt\n        /* \"#utility.yul\":6138:6156   */\n      dup2\n        /* \"#utility.yul\":6135:6173   */\n      sub\n        /* \"#utility.yul\":6132:6216   */\n      tag_255\n      jumpi\n        /* \"#utility.yul\":6188:6206   */\n      tag_256\n      tag_167\n      jump\t// in\n    tag_256:\n        /* \"#utility.yul\":6132:6216   */\n    tag_255:\n        /* \"#utility.yul\":5953:6222   */\n      pop\n        /* \"#utility.yul\":5902:6222   */\n      swap2\n      swap1\n      pop\n      jump\t// out\n        /* \"#utility.yul\":6228:6455   */\n    tag_168:\n        /* \"#utility.yul\":6368:6402   */\n      0x45524332303a205472616e7366657220616d6f756e7420657863656564732061\n        /* \"#utility.yul\":6364:6365   */\n      0x00\n        /* \"#utility.yul\":6356:6362   */\n      dup3\n        /* \"#utility.yul\":6352:6366   */\n      add\n        /* \"#utility.yul\":6345:6403   */\n      mstore\n        /* \"#utility.yul\":6437:6447   */\n      0x6c6c6f77616e6365000000000000000000000000000000000000000000000000\n        /* \"#utility.yul\":6432:6434   */\n      0x20\n        /* \"#utility.yul\":6424:6430   */\n      dup3\n        /* \"#utility.yul\":6420:6435   */\n      add\n        /* \"#utility.yul\":6413:6448   */\n      mstore\n        /* \"#utility.yul\":6228:6455   */\n      pop\n      jump\t// out\n        /* \"#utility.yul\":6461:6827   */\n    tag_169:\n        /* \"#utility.yul\":6603:6606   */\n      0x00\n        /* \"#utility.yul\":6624:6691   */\n      tag_259\n        /* \"#utility.yul\":6688:6690   */\n      0x28\n        /* \"#utility.yul\":6683:6686   */\n      dup4\n        /* \"#utility.yul\":6624:6691   */\n      tag_157\n      jump\t// in\n    tag_259:\n        /* \"#utility.yul\":6617:6691   */\n      swap2\n      pop\n        /* \"#utility.yul\":6700:6793   */\n      tag_260\n        /* \"#utility.yul\":6789:6792   */\n      dup3\n        /* \"#utility.yul\":6700:6793   */\n      tag_168\n      jump\t// in\n    tag_260:\n        /* \"#utility.yul\":6818:6820   */\n      0x40\n        /* \"#utility.yul\":6813:6816   */\n      dup3\n        /* \"#utility.yul\":6809:6821   */\n      add\n        /* \"#utility.yul\":6802:6821   */\n      swap1\n      pop\n        /* \"#utility.yul\":6461:6827   */\n      swap2\n      swap1\n      pop\n      jump\t// out\n        /* \"#utility.yul\":6833:7252   */\n    tag_86:\n        /* \"#utility.yul\":6999:7003   */\n      0x00\n        /* \"#utility.yul\":7037:7039   */\n      0x20\n        /* \"#utility.yul\":7026:7035   */\n      dup3\n        /* \"#utility.yul\":7022:7040   */\n      add\n        /* \"#utility.yul\":7014:7040   */\n      swap1\n      pop\n        /* \"#utility.yul\":7086:7095   */\n      dup2\n        /* \"#utility.yul\":7080:7084   */\n      dup2\n        /* \"#utility.yul\":7076:7096   */\n      sub\n        /* \"#utility.yul\":7072:7073   */\n      0x00\n        /* \"#utility.yul\":7061:7070   */\n      dup4\n        /* \"#utility.yul\":7057:7074   */\n      add\n        /* \"#utility.yul\":7050:7097   */\n      mstore\n        /* \"#utility.yul\":7114:7245   */\n      tag_262\n        /* \"#utility.yul\":7240:7244   */\n      dup2\n        /* \"#utility.yul\":7114:7245   */\n      tag_169\n      jump\t// in\n    tag_262:\n        /* \"#utility.yul\":7106:7245   */\n      swap1\n      pop\n        /* \"#utility.yul\":6833:7252   */\n      swap2\n      swap1\n      pop\n      jump\t// out\n        /* \"#utility.yul\":7258:7485   */\n    tag_170:\n        /* \"#utility.yul\":7398:7432   */\n      0x45524332303a207472616e7366657220616d6f756e7420657863656564732061\n        /* \"#utility.yul\":7394:7395   */\n      0x00\n        /* \"#utility.yul\":7386:7392   */\n      dup3\n        /* \"#utility.yul\":7382:7396   */\n      add\n        /* \"#utility.yul\":7375:7433   */\n      mstore\n        /* \"#utility.yul\":7467:7477   */\n      0x6c6c6f77616e6365000000000000000000000000000000000000000000000000\n        /* \"#utility.yul\":7462:7464   */\n      0x20\n        /* \"#utility.yul\":7454:7460   */\n      dup3\n        /* \"#utility.yul\":7450:7465   */\n      add\n        /* \"#utility.yul\":7443:7478   */\n      mstore\n        /* \"#utility.yul\":7258:7485   */\n      pop\n      jump\t// out\n        /* \"#utility.yul\":7491:7857   */\n    tag_171:\n        /* \"#utility.yul\":7633:7636   */\n      0x00\n        /* \"#utility.yul\":7654:7721   */\n      tag_265\n        /* \"#utility.yul\":7718:7720   */\n      0x28\n        /* \"#utility.yul\":7713:7716   */\n      dup4\n        /* \"#utility.yul\":7654:7721   */\n      tag_157\n      jump\t// in\n    tag_265:\n        /* \"#utility.yul\":7647:7721   */\n      swap2\n      pop\n        /* \"#utility.yul\":7730:7823   */\n      tag_266\n        /* \"#utility.yul\":7819:7822   */\n      dup3\n        /* \"#utility.yul\":7730:7823   */\n      tag_170\n      jump\t// in\n    tag_266:\n        /* \"#utility.yul\":7848:7850   */\n      0x40\n        /* \"#utility.yul\":7843:7846   */\n      dup3\n        /* \"#utility.yul\":7839:7851   */\n      add\n        /* \"#utility.yul\":7832:7851   */\n      swap1\n      pop\n        /* \"#utility.yul\":7491:7857   */\n      swap2\n      swap1\n      pop\n      jump\t// out\n        /* \"#utility.yul\":7863:8282   */\n    tag_96:\n        /* \"#utility.yul\":8029:8033   */\n      0x00\n        /* \"#utility.yul\":8067:8069   */\n      0x20\n        /* \"#utility.yul\":8056:8065   */\n      dup3\n        /* \"#utility.yul\":8052:8070   */\n      add\n        /* \"#utility.yul\":8044:8070   */\n      swap1\n      pop\n        /* \"#utility.yul\":8116:8125   */\n      dup2\n        /* \"#utility.yul\":8110:8114   */\n      dup2\n        /* \"#utility.yul\":8106:8126   */\n      sub\n        /* \"#utility.yul\":8102:8103   */\n      0x00\n        /* \"#utility.yul\":8091:8100   */\n      dup4\n        /* \"#utility.yul\":8087:8104   */\n      add\n        /* \"#utility.yul\":8080:8127   */\n      mstore\n        /* \"#utility.yul\":8144:8275   */\n      tag_268\n        /* \"#utility.yul\":8270:8274   */\n      dup2\n        /* \"#utility.yul\":8144:8275   */\n      tag_171\n      jump\t// in\n    tag_268:\n        /* \"#utility.yul\":8136:8275   */\n      swap1\n      pop\n        /* \"#utility.yul\":7863:8282   */\n      swap2\n      swap1\n      pop\n      jump\t// out\n        /* \"#utility.yul\":8288:8468   */\n    tag_172:\n        /* \"#utility.yul\":8336:8413   */\n      0x4e487b7100000000000000000000000000000000000000000000000000000000\n        /* \"#utility.yul\":8333:8334   */\n      0x00\n        /* \"#utility.yul\":8326:8414   */\n      mstore\n        /* \"#utility.yul\":8433:8437   */\n      0x11\n        /* \"#utility.yul\":8430:8431   */\n      0x04\n        /* \"#utility.yul\":8423:8438   */\n      mstore\n        /* \"#utility.yul\":8457:8461   */\n      0x24\n        /* \"#utility.yul\":8454:8455   */\n      0x00\n        /* \"#utility.yul\":8447:8462   */\n      revert\n        /* \"#utility.yul\":8474:8665   */\n    tag_99:\n        /* \"#utility.yul\":8514:8518   */\n      0x00\n        /* \"#utility.yul\":8534:8554   */\n      tag_271\n        /* \"#utility.yul\":8552:8553   */\n      dup3\n        /* \"#utility.yul\":8534:8554   */\n      tag_154\n      jump\t// in\n    tag_271:\n        /* \"#utility.yul\":8529:8554   */\n      swap2\n      pop\n        /* \"#utility.yul\":8568:8588   */\n      tag_272\n        /* \"#utility.yul\":8586:8587   */\n      dup4\n        /* \"#utility.yul\":8568:8588   */\n      tag_154\n      jump\t// in\n    tag_272:\n        /* \"#utility.yul\":8563:8588   */\n      swap3\n      pop\n        /* \"#utility.yul\":8607:8608   */\n      dup3\n        /* \"#utility.yul\":8604:8605   */\n      dup3\n        /* \"#utility.yul\":8601:8609   */\n      lt\n        /* \"#utility.yul\":8598:8632   */\n      iszero\n      tag_273\n      jumpi\n        /* \"#utility.yul\":8612:8630   */\n      tag_274\n      tag_172\n      jump\t// in\n    tag_274:\n        /* \"#utility.yul\":8598:8632   */\n    tag_273:\n        /* \"#utility.yul\":8657:8658   */\n      dup3\n        /* \"#utility.yul\":8654:8655   */\n      dup3\n        /* \"#utility.yul\":8650:8659   */\n      sub\n        /* \"#utility.yul\":8642:8659   */\n      swap1\n      pop\n        /* \"#utility.yul\":8474:8665   */\n      swap3\n      swap2\n      pop\n      pop\n      jump\t// out\n        /* \"#utility.yul\":8671:8894   */\n    tag_173:\n        /* \"#utility.yul\":8811:8845   */\n      0x45524332303a20617070726f76652066726f6d20746865207a65726f20616464\n        /* \"#utility.yul\":8807:8808   */\n      0x00\n        /* \"#utility.yul\":8799:8805   */\n      dup3\n        /* \"#utility.yul\":8795:8809   */\n      add\n        /* \"#utility.yul\":8788:8846   */\n      mstore\n        /* \"#utility.yul\":8880:8886   */\n      0x7265737300000000000000000000000000000000000000000000000000000000\n        /* \"#utility.yul\":8875:8877   */\n      0x20\n        /* \"#utility.yul\":8867:8873   */\n      dup3\n        /* \"#utility.yul\":8863:8878   */\n      add\n        /* \"#utility.yul\":8856:8887   */\n      mstore\n        /* \"#utility.yul\":8671:8894   */\n      pop\n      jump\t// out\n        /* \"#utility.yul\":8900:9266   */\n    tag_174:\n        /* \"#utility.yul\":9042:9045   */\n      0x00\n        /* \"#utility.yul\":9063:9130   */\n      tag_277\n        /* \"#utility.yul\":9127:9129   */\n      0x24\n        /* \"#utility.yul\":9122:9125   */\n      dup4\n        /* \"#utility.yul\":9063:9130   */\n      tag_157\n      jump\t// in\n    tag_277:\n        /* \"#utility.yul\":9056:9130   */\n      swap2\n      pop\n        /* \"#utility.yul\":9139:9232   */\n      tag_278\n        /* \"#utility.yul\":9228:9231   */\n      dup3\n        /* \"#utility.yul\":9139:9232   */\n      tag_173\n      jump\t// in\n    tag_278:\n        /* \"#utility.yul\":9257:9259   */\n      0x40\n        /* \"#utility.yul\":9252:9255   */\n      dup3\n        /* \"#utility.yul\":9248:9260   */\n      add\n        /* \"#utility.yul\":9241:9260   */\n      swap1\n      pop\n        /* \"#utility.yul\":8900:9266   */\n      swap2\n      swap1\n      pop\n      jump\t// out\n        /* \"#utility.yul\":9272:9691   */\n    tag_125:\n        /* \"#utility.yul\":9438:9442   */\n      0x00\n        /* \"#utility.yul\":9476:9478   */\n      0x20\n        /* \"#utility.yul\":9465:9474   */\n      dup3\n        /* \"#utility.yul\":9461:9479   */\n      add\n        /* \"#utility.yul\":9453:9479   */\n      swap1\n      pop\n        /* \"#utility.yul\":9525:9534   */\n      dup2\n        /* \"#utility.yul\":9519:9523   */\n      dup2\n        /* \"#utility.yul\":9515:9535   */\n      sub\n        /* \"#utility.yul\":9511:9512   */\n      0x00\n        /* \"#utility.yul\":9500:9509   */\n      dup4\n        /* \"#utility.yul\":9496:9513   */\n      add\n        /* \"#utility.yul\":9489:9536   */\n      mstore\n        /* \"#utility.yul\":9553:9684   */\n      tag_280\n        /* \"#utility.yul\":9679:9683   */\n      dup2\n        /* \"#utility.yul\":9553:9684   */\n      tag_174\n      jump\t// in\n    tag_280:\n        /* \"#utility.yul\":9545:9684   */\n      swap1\n      pop\n        /* \"#utility.yul\":9272:9691   */\n      swap2\n      swap1\n      pop\n      jump\t// out\n        /* \"#utility.yul\":9697:9918   */\n    tag_175:\n        /* \"#utility.yul\":9837:9871   */\n      0x45524332303a20617070726f766520746f20746865207a65726f206164647265\n        /* \"#utility.yul\":9833:9834   */\n      0x00\n        /* \"#utility.yul\":9825:9831   */\n      dup3\n        /* \"#utility.yul\":9821:9835   */\n      add\n        /* \"#utility.yul\":9814:9872   */\n      mstore\n        /* \"#utility.yul\":9906:9910   */\n      0x7373000000000000000000000000000000000000000000000000000000000000\n        /* \"#utility.yul\":9901:9903   */\n      0x20\n        /* \"#utility.yul\":9893:9899   */\n      dup3\n        /* \"#utility.yul\":9889:9904   */\n      add\n        /* \"#utility.yul\":9882:9911   */\n      mstore\n        /* \"#utility.yul\":9697:9918   */\n      pop\n      jump\t// out\n        /* \"#utility.yul\":9924:10290   */\n    tag_176:\n        /* \"#utility.yul\":10066:10069   */\n      0x00\n        /* \"#utility.yul\":10087:10154   */\n      tag_283\n        /* \"#utility.yul\":10151:10153   */\n      0x22\n        /* \"#utility.yul\":10146:10149   */\n      dup4\n        /* \"#utility.yul\":10087:10154   */\n      tag_157\n      jump\t// in\n    tag_283:\n        /* \"#utility.yul\":10080:10154   */\n      swap2\n      pop\n        /* \"#utility.yul\":10163:10256   */\n      tag_284\n        /* \"#utility.yul\":10252:10255   */\n      dup3\n        /* \"#utility.yul\":10163:10256   */\n      tag_175\n      jump\t// in\n    tag_284:\n        /* \"#utility.yul\":10281:10283   */\n      0x40\n        /* \"#utility.yul\":10276:10279   */\n      dup3\n        /* \"#utility.yul\":10272:10284   */\n      add\n        /* \"#utility.yul\":10265:10284   */\n      swap1\n      pop\n        /* \"#utility.yul\":9924:10290   */\n      swap2\n      swap1\n      pop\n      jump\t// out\n        /* \"#utility.yul\":10296:10715   */\n    tag_128:\n        /* \"#utility.yul\":10462:10466   */\n      0x00\n        /* \"#utility.yul\":10500:10502   */\n      0x20\n        /* \"#utility.yul\":10489:10498   */\n      dup3\n        /* \"#utility.yul\":10485:10503   */\n      add\n        /* \"#utility.yul\":10477:10503   */\n      swap1\n      pop\n        /* \"#utility.yul\":10549:10558   */\n      dup2\n        /* \"#utility.yul\":10543:10547   */\n      dup2\n        /* \"#utility.yul\":10539:10559   */\n      sub\n        /* \"#utility.yul\":10535:10536   */\n      0x00\n        /* \"#utility.yul\":10524:10533   */\n      dup4\n        /* \"#utility.yul\":10520:10537   */\n      add\n        /* \"#utility.yul\":10513:10560   */\n      mstore\n        /* \"#utility.yul\":10577:10708   */\n      tag_286\n        /* \"#utility.yul\":10703:10707   */\n      dup2\n        /* \"#utility.yul\":10577:10708   */\n      tag_176\n      jump\t// in\n    tag_286:\n        /* \"#utility.yul\":10569:10708   */\n      swap1\n      pop\n        /* \"#utility.yul\":10296:10715   */\n      swap2\n      swap1\n      pop\n      jump\t// out\n        /* \"#utility.yul\":10721:10899   */\n    tag_177:\n        /* \"#utility.yul\":10861:10891   */\n      0x45524332303a20696e76616c69642063757272656e74416d6f756e7400000000\n        /* \"#utility.yul\":10857:10858   */\n      0x00\n        /* \"#utility.yul\":10849:10855   */\n      dup3\n        /* \"#utility.yul\":10845:10859   */\n      add\n        /* \"#utility.yul\":10838:10892   */\n      mstore\n        /* \"#utility.yul\":10721:10899   */\n      pop\n      jump\t// out\n        /* \"#utility.yul\":10905:11271   */\n    tag_178:\n        /* \"#utility.yul\":11047:11050   */\n      0x00\n        /* \"#utility.yul\":11068:11135   */\n      tag_289\n        /* \"#utility.yul\":11132:11134   */\n      0x1c\n        /* \"#utility.yul\":11127:11130   */\n      dup4\n        /* \"#utility.yul\":11068:11135   */\n      tag_157\n      jump\t// in\n    tag_289:\n        /* \"#utility.yul\":11061:11135   */\n      swap2\n      pop\n        /* \"#utility.yul\":11144:11237   */\n      tag_290\n        /* \"#utility.yul\":11233:11236   */\n      dup3\n        /* \"#utility.yul\":11144:11237   */\n      tag_177\n      jump\t// in\n    tag_290:\n        /* \"#utility.yul\":11262:11264   */\n      0x20\n        /* \"#utility.yul\":11257:11260   */\n      dup3\n        /* \"#utility.yul\":11253:11265   */\n      add\n        /* \"#utility.yul\":11246:11265   */\n      swap1\n      pop\n        /* \"#utility.yul\":10905:11271   */\n      swap2\n      swap1\n      pop\n      jump\t// out\n        /* \"#utility.yul\":11277:11696   */\n    tag_131:\n        /* \"#utility.yul\":11443:11447   */\n      0x00\n        /* \"#utility.yul\":11481:11483   */\n      0x20\n        /* \"#utility.yul\":11470:11479   */\n      dup3\n        /* \"#utility.yul\":11466:11484   */\n      add\n        /* \"#utility.yul\":11458:11484   */\n      swap1\n      pop\n        /* \"#utility.yul\":11530:11539   */\n      dup2\n        /* \"#utility.yul\":11524:11528   */\n      dup2\n        /* \"#utility.yul\":11520:11540   */\n      sub\n        /* \"#utility.yul\":11516:11517   */\n      0x00\n        /* \"#utility.yul\":11505:11514   */\n      dup4\n        /* \"#utility.yul\":11501:11518   */\n      add\n        /* \"#utility.yul\":11494:11541   */\n      mstore\n        /* \"#utility.yul\":11558:11689   */\n      tag_292\n        /* \"#utility.yul\":11684:11688   */\n      dup2\n        /* \"#utility.yul\":11558:11689   */\n      tag_178\n      jump\t// in\n    tag_292:\n        /* \"#utility.yul\":11550:11689   */\n      swap1\n      pop\n        /* \"#utility.yul\":11277:11696   */\n      swap2\n      swap1\n      pop\n      jump\t// out\n        /* \"#utility.yul\":11702:12034   */\n    tag_133:\n        /* \"#utility.yul\":11823:11827   */\n      0x00\n        /* \"#utility.yul\":11861:11863   */\n      0x40\n        /* \"#utility.yul\":11850:11859   */\n      dup3\n        /* \"#utility.yul\":11846:11864   */\n      add\n        /* \"#utility.yul\":11838:11864   */\n      swap1\n      pop\n        /* \"#utility.yul\":11874:11945   */\n      tag_294\n        /* \"#utility.yul\":11942:11943   */\n      0x00\n        /* \"#utility.yul\":11931:11940   */\n      dup4\n        /* \"#utility.yul\":11927:11944   */\n      add\n        /* \"#utility.yul\":11918:11924   */\n      dup6\n        /* \"#utility.yul\":11874:11945   */\n      tag_155\n      jump\t// in\n    tag_294:\n        /* \"#utility.yul\":11955:12027   */\n      tag_295\n        /* \"#utility.yul\":12023:12025   */\n      0x20\n        /* \"#utility.yul\":12012:12021   */\n      dup4\n        /* \"#utility.yul\":12008:12026   */\n      add\n        /* \"#utility.yul\":11999:12005   */\n      dup5\n        /* \"#utility.yul\":11955:12027   */\n      tag_155\n      jump\t// in\n    tag_295:\n        /* \"#utility.yul\":11702:12034   */\n      swap4\n      swap3\n      pop\n      pop\n      pop\n      jump\t// out\n        /* \"#utility.yul\":12040:12264   */\n    tag_179:\n        /* \"#utility.yul\":12180:12214   */\n      0x45524332303a207472616e736665722066726f6d20746865207a65726f206164\n        /* \"#utility.yul\":12176:12177   */\n      0x00\n        /* \"#utility.yul\":12168:12174   */\n      dup3\n        /* \"#utility.yul\":12164:12178   */\n      add\n        /* \"#utility.yul\":12157:12215   */\n      mstore\n        /* \"#utility.yul\":12249:12256   */\n      0x6472657373000000000000000000000000000000000000000000000000000000\n        /* \"#utility.yul\":12244:12246   */\n      0x20\n        /* \"#utility.yul\":12236:12242   */\n      dup3\n        /* \"#utility.yul\":12232:12247   */\n      add\n        /* \"#utility.yul\":12225:12257   */\n      mstore\n        /* \"#utility.yul\":12040:12264   */\n      pop\n      jump\t// out\n        /* \"#utility.yul\":12270:12636   */\n    tag_180:\n        /* \"#utility.yul\":12412:12415   */\n      0x00\n        /* \"#utility.yul\":12433:12500   */\n      tag_298\n        /* \"#utility.yul\":12497:12499   */\n      0x25\n        /* \"#utility.yul\":12492:12495   */\n      dup4\n        /* \"#utility.yul\":12433:12500   */\n      tag_157\n      jump\t// in\n    tag_298:\n        /* \"#utility.yul\":12426:12500   */\n      swap2\n      pop\n        /* \"#utility.yul\":12509:12602   */\n      tag_299\n        /* \"#utility.yul\":12598:12601   */\n      dup3\n        /* \"#utility.yul\":12509:12602   */\n      tag_179\n      jump\t// in\n    tag_299:\n        /* \"#utility.yul\":12627:12629   */\n      0x40\n        /* \"#utility.yul\":12622:12625   */\n      dup3\n        /* \"#utility.yul\":12618:12630   */\n      add\n        /* \"#utility.yul\":12611:12630   */\n      swap1\n      pop\n        /* \"#utility.yul\":12270:12636   */\n      swap2\n      swap1\n      pop\n      jump\t// out\n        /* \"#utility.yul\":12642:13061   */\n    tag_137:\n        /* \"#utility.yul\":12808:12812   */\n      0x00\n        /* \"#utility.yul\":12846:12848   */\n      0x20\n        /* \"#utility.yul\":12835:12844   */\n      dup3\n        /* \"#utility.yul\":12831:12849   */\n      add\n        /* \"#utility.yul\":12823:12849   */\n      swap1\n      pop\n        /* \"#utility.yul\":12895:12904   */\n      dup2\n        /* \"#utility.yul\":12889:12893   */\n      dup2\n        /* \"#utility.yul\":12885:12905   */\n      sub\n        /* \"#utility.yul\":12881:12882   */\n      0x00\n        /* \"#utility.yul\":12870:12879   */\n      dup4\n        /* \"#utility.yul\":12866:12883   */\n      add\n        /* \"#utility.yul\":12859:12906   */\n      mstore\n        /* \"#utility.yul\":12923:13054   */\n      tag_301\n        /* \"#utility.yul\":13049:13053   */\n      dup2\n        /* \"#utility.yul\":12923:13054   */\n      tag_180\n      jump\t// in\n    tag_301:\n        /* \"#utility.yul\":12915:13054   */\n      swap1\n      pop\n        /* \"#utility.yul\":12642:13061   */\n      swap2\n      swap1\n      pop\n      jump\t// out\n        /* \"#utility.yul\":13067:13289   */\n    tag_181:\n        /* \"#utility.yul\":13207:13241   */\n      0x45524332303a207472616e7366657220746f20746865207a65726f2061646472\n        /* \"#utility.yul\":13203:13204   */\n      0x00\n        /* \"#utility.yul\":13195:13201   */\n      dup3\n        /* \"#utility.yul\":13191:13205   */\n      add\n        /* \"#utility.yul\":13184:13242   */\n      mstore\n        /* \"#utility.yul\":13276:13281   */\n      0x6573730000000000000000000000000000000000000000000000000000000000\n        /* \"#utility.yul\":13271:13273   */\n      0x20\n        /* \"#utility.yul\":13263:13269   */\n      dup3\n        /* \"#utility.yul\":13259:13274   */\n      add\n        /* \"#utility.yul\":13252:13282   */\n      mstore\n        /* \"#utility.yul\":13067:13289   */\n      pop\n      jump\t// out\n        /* \"#utility.yul\":13295:13661   */\n    tag_182:\n        /* \"#utility.yul\":13437:13440   */\n      0x00\n        /* \"#utility.yul\":13458:13525   */\n      tag_304\n        /* \"#utility.yul\":13522:13524   */\n      0x23\n        /* \"#utility.yul\":13517:13520   */\n      dup4\n        /* \"#utility.yul\":13458:13525   */\n      tag_157\n      jump\t// in\n    tag_304:\n        /* \"#utility.yul\":13451:13525   */\n      swap2\n      pop\n        /* \"#utility.yul\":13534:13627   */\n      tag_305\n        /* \"#utility.yul\":13623:13626   */\n      dup3\n        /* \"#utility.yul\":13534:13627   */\n      tag_181\n      jump\t// in\n    tag_305:\n        /* \"#utility.yul\":13652:13654   */\n      0x40\n        /* \"#utility.yul\":13647:13650   */\n      dup3\n        /* \"#utility.yul\":13643:13655   */\n      add\n        /* \"#utility.yul\":13636:13655   */\n      swap1\n      pop\n        /* \"#utility.yul\":13295:13661   */\n      swap2\n      swap1\n      pop\n      jump\t// out\n        /* \"#utility.yul\":13667:14086   */\n    tag_140:\n        /* \"#utility.yul\":13833:13837   */\n      0x00\n        /* \"#utility.yul\":13871:13873   */\n      0x20\n        /* \"#utility.yul\":13860:13869   */\n      dup3\n        /* \"#utility.yul\":13856:13874   */\n      add\n        /* \"#utility.yul\":13848:13874   */\n      swap1\n      pop\n        /* \"#utility.yul\":13920:13929   */\n      dup2\n        /* \"#utility.yul\":13914:13918   */\n      dup2\n        /* \"#utility.yul\":13910:13930   */\n      sub\n        /* \"#utility.yul\":13906:13907   */\n      0x00\n        /* \"#utility.yul\":13895:13904   */\n      dup4\n        /* \"#utility.yul\":13891:13908   */\n      add\n        /* \"#utility.yul\":13884:13931   */\n      mstore\n        /* \"#utility.yul\":13948:14079   */\n      tag_307\n        /* \"#utility.yul\":14074:14078   */\n      dup2\n        /* \"#utility.yul\":13948:14079   */\n      tag_182\n      jump\t// in\n    tag_307:\n        /* \"#utility.yul\":13940:14079   */\n      swap1\n      pop\n        /* \"#utility.yul\":13667:14086   */\n      swap2\n      swap1\n      pop\n      jump\t// out\n        /* \"#utility.yul\":14092:14317   */\n    tag_183:\n        /* \"#utility.yul\":14232:14266   */\n      0x45524332303a207472616e7366657220616d6f756e7420657863656564732062\n        /* \"#utility.yul\":14228:14229   */\n      0x00\n        /* \"#utility.yul\":14220:14226   */\n      dup3\n        /* \"#utility.yul\":14216:14230   */\n      add\n        /* \"#utility.yul\":14209:14267   */\n      mstore\n        /* \"#utility.yul\":14301:14309   */\n      0x616c616e63650000000000000000000000000000000000000000000000000000\n        /* \"#utility.yul\":14296:14298   */\n      0x20\n        /* \"#utility.yul\":14288:14294   */\n      dup3\n        /* \"#utility.yul\":14284:14299   */\n      add\n        /* \"#utility.yul\":14277:14310   */\n      mstore\n        /* \"#utility.yul\":14092:14317   */\n      pop\n      jump\t// out\n        /* \"#utility.yul\":14323:14689   */\n    tag_184:\n        /* \"#utility.yul\":14465:14468   */\n      0x00\n        /* \"#utility.yul\":14486:14553   */\n      tag_310\n        /* \"#utility.yul\":14550:14552   */\n      0x26\n        /* \"#utility.yul\":14545:14548   */\n      dup4\n        /* \"#utility.yul\":14486:14553   */\n      tag_157\n      jump\t// in\n    tag_310:\n        /* \"#utility.yul\":14479:14553   */\n      swap2\n      pop\n        /* \"#utility.yul\":14562:14655   */\n      tag_311\n        /* \"#utility.yul\":14651:14654   */\n      dup3\n        /* \"#utility.yul\":14562:14655   */\n      tag_183\n      jump\t// in\n    tag_311:\n        /* \"#utility.yul\":14680:14682   */\n      0x40\n        /* \"#utility.yul\":14675:14678   */\n      dup3\n        /* \"#utility.yul\":14671:14683   */\n      add\n        /* \"#utility.yul\":14664:14683   */\n      swap1\n      pop\n        /* \"#utility.yul\":14323:14689   */\n      swap2\n      swap1\n      pop\n      jump\t// out\n        /* \"#utility.yul\":14695:15114   */\n    tag_143:\n        /* \"#utility.yul\":14861:14865   */\n      0x00\n        /* \"#utility.yul\":14899:14901   */\n      0x20\n        /* \"#utility.yul\":14888:14897   */\n      dup3\n        /* \"#utility.yul\":14884:14902   */\n      add\n        /* \"#utility.yul\":14876:14902   */\n      swap1\n      pop\n        /* \"#utility.yul\":14948:14957   */\n      dup2\n        /* \"#utility.yul\":14942:14946   */\n      dup2\n        /* \"#utility.yul\":14938:14958   */\n      sub\n        /* \"#utility.yul\":14934:14935   */\n      0x00\n        /* \"#utility.yul\":14923:14932   */\n      dup4\n        /* \"#utility.yul\":14919:14936   */\n      add\n        /* \"#utility.yul\":14912:14959   */\n      mstore\n        /* \"#utility.yul\":14976:15107   */\n      tag_313\n        /* \"#utility.yul\":15102:15106   */\n      dup2\n        /* \"#utility.yul\":14976:15107   */\n      tag_184\n      jump\t// in\n    tag_313:\n        /* \"#utility.yul\":14968:15107   */\n      swap1\n      pop\n        /* \"#utility.yul\":14695:15114   */\n      swap2\n      swap1\n      pop\n      jump\t// out\n        /* \"#utility.yul\":15120:15425   */\n    tag_146:\n        /* \"#utility.yul\":15160:15163   */\n      0x00\n        /* \"#utility.yul\":15179:15199   */\n      tag_315\n        /* \"#utility.yul\":15197:15198   */\n      dup3\n        /* \"#utility.yul\":15179:15199   */\n      tag_154\n      jump\t// in\n    tag_315:\n        /* \"#utility.yul\":15174:15199   */\n      swap2\n      pop\n        /* \"#utility.yul\":15213:15233   */\n      tag_316\n        /* \"#utility.yul\":15231:15232   */\n      dup4\n        /* \"#utility.yul\":15213:15233   */\n      tag_154\n      jump\t// in\n    tag_316:\n        /* \"#utility.yul\":15208:15233   */\n      swap3\n      pop\n        /* \"#utility.yul\":15367:15368   */\n      dup3\n        /* \"#utility.yul\":15299:15365   */\n      0xffffffffffffffffffffffffffffffffffffffffffffffffffffffffffffffff\n        /* \"#utility.yul\":15295:15369   */\n      sub\n        /* \"#utility.yul\":15292:15293   */\n      dup3\n        /* \"#utility.yul\":15289:15370   */\n      gt\n        /* \"#utility.yul\":15286:15393   */\n      iszero\n      tag_317\n      jumpi\n        /* \"#utility.yul\":15373:15391   */\n      tag_318\n      tag_172\n      jump\t// in\n    tag_318:\n        /* \"#utility.yul\":15286:15393   */\n    tag_317:\n        /* \"#utility.yul\":15417:15418   */\n      dup3\n        /* \"#utility.yul\":15414:15415   */\n      dup3\n        /* \"#utility.yul\":15410:15419   */\n      add\n        /* \"#utility.yul\":15403:15419   */\n      swap1\n      pop\n        /* \"#utility.yul\":15120:15425   */\n      swap3\n      swap2\n      pop\n      pop\n      jump\t// out\n\n    auxdata: 0xa2646970667358221220e93608018b7fff49ecd23d77c5d04ea9152bca0b8681d2740cec580d58fd440164736f6c634300080d0033\n}\n","bytecode":{"linkReferences":{},"object":"60806040523480156200001157600080fd5b5060405162001ac338038062001ac3833981810160405281019062000037919062000331565b81600390805190602001906200004f929190620000e4565b50806004908051906020019062000068929190620000e4565b506012600560006101000a81548160ff021916908360ff1602179055506a52b7d2dcc80cd2e40000006002819055506002546000803373ffffffffffffffffffffffffffffffffffffffff1673ffffffffffffffffffffffffffffffffffffffff1681526020019081526020016000208190555050506200041a565b828054620000f290620003e5565b90600052602060002090601f01602090048101928262000116576000855562000162565b82601f106200013157805160ff191683800117855562000162565b8280016001018555821562000162579182015b828111156200016157825182559160200191906001019062000144565b5b50905062000171919062000175565b5090565b5b808211156200019057600081600090555060010162000176565b5090565b6000604051905090565b600080fd5b600080fd5b600080fd5b600080fd5b6000601f19601f8301169050919050565b7f4e487b7100000000000000000000000000000000000000000000000000000000600052604160045260246000fd5b620001fd82620001b2565b810181811067ffffffffffffffff821117156200021f576200021e620001c3565b5b80604052505050565b60006200023462000194565b9050620002428282620001f2565b919050565b600067ffffffffffffffff821115620002655762000264620001c3565b5b6200027082620001b2565b9050602081019050919050565b60005b838110156200029d57808201518184015260208101905062000280565b83811115620002ad576000848401525b50505050565b6000620002ca620002c48462000247565b62000228565b905082815260208101848484011115620002e957620002e8620001ad565b5b620002f68482856200027d565b509392505050565b600082601f830112620003165762000315620001a8565b5b815162000328848260208601620002b3565b91505092915050565b600080604083850312156200034b576200034a6200019e565b5b600083015167ffffffffffffffff8111156200036c576200036b620001a3565b5b6200037a85828601620002fe565b925050602083015167ffffffffffffffff8111156200039e576200039d620001a3565b5b620003ac85828601620002fe565b9150509250929050565b7f4e487b7100000000000000000000000000000000000000000000000000000000600052602260045260246000fd5b60006002820490506001821680620003fe57607f821691505b602082108103620004145762000413620003b6565b5b50919050565b611699806200042a6000396000f3fe608060405234801561001057600080fd5b50600436106100ea5760003560e01c80633eaaf86b1161008c578063a9059cbb11610066578063a9059cbb14610263578063b09f126614610293578063d28d8852146102b1578063dd62ed3e146102cf576100ea565b80633eaaf86b146101f757806370a082311461021557806395d89b4114610245576100ea565b806318160ddd116100c857806318160ddd1461016d57806323b872dd1461018b578063313ce567146101bb57806332424aa3146101d9576100ea565b8063024c2ddd146100ef57806306fdde031461011f578063095ea7b31461013d575b600080fd5b61010960048036038101906101049190610e2f565b6102ff565b6040516101169190610e88565b60405180910390f35b610127610324565b6040516101349190610f3c565b60405180910390f35b61015760048036038101906101529190610f8a565b6103b6565b6040516101649190610fe5565b60405180910390f35b610175610492565b6040516101829190610e88565b60405180910390f35b6101a560048036038101906101a09190611000565b61049c565b6040516101b29190610fe5565b60405180910390f35b6101c361060c565b6040516101d0919061106f565b60405180910390f35b6101e1610623565b6040516101ee919061106f565b60405180910390f35b6101ff610636565b60405161020c9190610e88565b60405180910390f35b61022f600480360381019061022a919061108a565b61063c565b60405161023c9190610e88565b60405180910390f35b61024d610684565b60405161025a9190610f3c565b60405180910390f35b61027d60048036038101906102789190610f8a565b610716565b60405161028a9190610fe5565b60405180910390f35b61029b610792565b6040516102a89190610f3c565b60405180910390f35b6102b9610820565b6040516102c69190610f3c565b60405180910390f35b6102e960048036038101906102e49190610e2f565b6108ae565b6040516102f69190610e88565b60405180910390f35b6001602052816000526040600020602052806000526040600020600091509150505481565b606060038054610333906110e6565b80601f016020809104026020016040519081016040528092919081815260200182805461035f906110e6565b80156103ac5780601f10610381576101008083540402835291602001916103ac565b820191906000526020600020905b81548152906001019060200180831161038f57829003601f168201915b5050505050905090565b600080600160003373ffffffffffffffffffffffffffffffffffffffff1673ffffffffffffffffffffffffffffffffffffffff16815260200190815260200160002060008573ffffffffffffffffffffffffffffffffffffffff1673ffffffffffffffffffffffffffffffffffffffff1681526020019081526020016000205490508281101561047b576040517f08c379a000000000000000000000000000000000000000000000000000000000815260040161047290611189565b60405180910390fd5b61048733858386610935565b600191505092915050565b6000600254905090565b60006104a9848484610bbf565b8273ffffffffffffffffffffffffffffffffffffffff168473ffffffffffffffffffffffffffffffffffffffff163373ffffffffffffffffffffffffffffffffffffffff167fd1398bee19313d6bf672ccb116e51f4a1a947e91c757907f51fbb5b5e56c698f8560405161051d9190610e88565b60405180910390a46000600160008673ffffffffffffffffffffffffffffffffffffffff1673ffffffffffffffffffffffffffffffffffffffff16815260200190815260200160002060003373ffffffffffffffffffffffffffffffffffffffff1673ffffffffffffffffffffffffffffffffffffffff168152602001908152602001600020549050828110156105e9576040517f08c379a00000000000000000000000000000000000000000000000000000000081526004016105e09061121b565b60405180910390fd5b61060085338386856105fb919061126a565b610935565b60019150509392505050565b6000600560009054906101000a900460ff16905090565b600560009054906101000a900460ff1681565b60025481565b60008060008373ffffffffffffffffffffffffffffffffffffffff1673ffffffffffffffffffffffffffffffffffffffff168152602001908152602001600020549050919050565b606060048054610693906110e6565b80601f01602080910402602001604051908101604052809291908181526020018280546106bf906110e6565b801561070c5780601f106106e15761010080835404028352916020019161070c565b820191906000526020600020905b8154815290600101906020018083116106ef57829003601f168201915b5050505050905090565b6000610723338484610bbf565b8273ffffffffffffffffffffffffffffffffffffffff163373ffffffffffffffffffffffffffffffffffffffff167fddf252ad1be2c89b69c2b068fc378daa952ba7f163c4a11628f55a4df523b3ef846040516107809190610e88565b60405180910390a36001905092915050565b6004805461079f906110e6565b80601f01602080910402602001604051908101604052809291908181526020018280546107cb906110e6565b80156108185780601f106107ed57610100808354040283529160200191610818565b820191906000526020600020905b8154815290600101906020018083116107fb57829003601f168201915b505050505081565b6003805461082d906110e6565b80601f0160208091040260200160405190810160405280929190818152602001828054610859906110e6565b80156108a65780601f1061087b576101008083540402835291602001916108a6565b820191906000526020600020905b81548152906001019060200180831161088957829003601f168201915b505050505081565b6000600160008473ffffffffffffffffffffffffffffffffffffffff1673ffffffffffffffffffffffffffffffffffffffff16815260200190815260200160002060008373ffffffffffffffffffffffffffffffffffffffff1673ffffffffffffffffffffffffffffffffffffffff16815260200190815260200160002054905092915050565b600073ffffffffffffffffffffffffffffffffffffffff168473ffffffffffffffffffffffffffffffffffffffff16036109a4576040517f08c379a000000000000000000000000000000000000000000000000000000000815260040161099b90611310565b60405180910390fd5b600073ffffffffffffffffffffffffffffffffffffffff168373ffffffffffffffffffffffffffffffffffffffff1603610a13576040517f08c379a0000000000000000000000000000000000000000000000000000000008152600401610a0a906113a2565b60405180910390fd5b600160008573ffffffffffffffffffffffffffffffffffffffff1673ffffffffffffffffffffffffffffffffffffffff16815260200190815260200160002060008473ffffffffffffffffffffffffffffffffffffffff1673ffffffffffffffffffffffffffffffffffffffff168152602001908152602001600020548214610ad1576040517f08c379a0000000000000000000000000000000000000000000000000000000008152600401610ac89061140e565b60405180910390fd5b80600160008673ffffffffffffffffffffffffffffffffffffffff1673ffffffffffffffffffffffffffffffffffffffff16815260200190815260200160002060008573ffffffffffffffffffffffffffffffffffffffff1673ffffffffffffffffffffffffffffffffffffffff168152602001908152602001600020819055508273ffffffffffffffffffffffffffffffffffffffff168473ffffffffffffffffffffffffffffffffffffffff167fb3fd5071835887567a0671151121894ddccc2842f1d10bedad13e0d17cace9a78484604051610bb192919061142e565b60405180910390a350505050565b600073ffffffffffffffffffffffffffffffffffffffff168373ffffffffffffffffffffffffffffffffffffffff1603610c2e576040517f08c379a0000000000000000000000000000000000000000000000000000000008152600401610c25906114c9565b60405180910390fd5b600073ffffffffffffffffffffffffffffffffffffffff168273ffffffffffffffffffffffffffffffffffffffff1603610c9d576040517f08c379a0000000000000000000000000000000000000000000000000000000008152600401610c949061155b565b60405180910390fd5b60008060008573ffffffffffffffffffffffffffffffffffffffff1673ffffffffffffffffffffffffffffffffffffffff16815260200190815260200160002054905081811015610d23576040517f08c379a0000000000000000000000000000000000000000000000000000000008152600401610d1a906115ed565b60405180910390fd5b8181610d2f919061126a565b6000808673ffffffffffffffffffffffffffffffffffffffff1673ffffffffffffffffffffffffffffffffffffffff16815260200190815260200160002081905550816000808573ffffffffffffffffffffffffffffffffffffffff1673ffffffffffffffffffffffffffffffffffffffff1681526020019081526020016000206000828254610dbf919061160d565b9250508190555050505050565b600080fd5b600073ffffffffffffffffffffffffffffffffffffffff82169050919050565b6000610dfc82610dd1565b9050919050565b610e0c81610df1565b8114610e1757600080fd5b50565b600081359050610e2981610e03565b92915050565b60008060408385031215610e4657610e45610dcc565b5b6000610e5485828601610e1a565b9250506020610e6585828601610e1a565b9150509250929050565b6000819050919050565b610e8281610e6f565b82525050565b6000602082019050610e9d6000830184610e79565b92915050565b600081519050919050565b600082825260208201905092915050565b60005b83811015610edd578082015181840152602081019050610ec2565b83811115610eec576000848401525b50505050565b6000601f19601f8301169050919050565b6000610f0e82610ea3565b610f188185610eae565b9350610f28818560208601610ebf565b610f3181610ef2565b840191505092915050565b60006020820190508181036000830152610f568184610f03565b905092915050565b610f6781610e6f565b8114610f7257600080fd5b50565b600081359050610f8481610f5e565b92915050565b60008060408385031215610fa157610fa0610dcc565b5b6000610faf85828601610e1a565b9250506020610fc085828601610f75565b9150509250929050565b60008115159050919050565b610fdf81610fca565b82525050565b6000602082019050610ffa6000830184610fd6565b92915050565b60008060006060848603121561101957611018610dcc565b5b600061102786828701610e1a565b935050602061103886828701610e1a565b925050604061104986828701610f75565b9150509250925092565b600060ff82169050919050565b61106981611053565b82525050565b60006020820190506110846000830184611060565b92915050565b6000602082840312156110a05761109f610dcc565b5b60006110ae84828501610e1a565b91505092915050565b7f4e487b7100000000000000000000000000000000000000000000000000000000600052602260045260246000fd5b600060028204905060018216806110fe57607f821691505b602082108103611111576111106110b7565b5b50919050565b7f45524332303a205472616e7366657220616d6f756e742065786365656473206160008201527f6c6c6f77616e6365000000000000000000000000000000000000000000000000602082015250565b6000611173602883610eae565b915061117e82611117565b604082019050919050565b600060208201905081810360008301526111a281611166565b9050919050565b7f45524332303a207472616e7366657220616d6f756e742065786365656473206160008201527f6c6c6f77616e6365000000000000000000000000000000000000000000000000602082015250565b6000611205602883610eae565b9150611210826111a9565b604082019050919050565b60006020820190508181036000830152611234816111f8565b9050919050565b7f4e487b7100000000000000000000000000000000000000000000000000000000600052601160045260246000fd5b600061127582610e6f565b915061128083610e6f565b9250828210156112935761129261123b565b5b828203905092915050565b7f45524332303a20617070726f76652066726f6d20746865207a65726f2061646460008201527f7265737300000000000000000000000000000000000000000000000000000000602082015250565b60006112fa602483610eae565b91506113058261129e565b604082019050919050565b60006020820190508181036000830152611329816112ed565b9050919050565b7f45524332303a20617070726f766520746f20746865207a65726f20616464726560008201527f7373000000000000000000000000000000000000000000000000000000000000602082015250565b600061138c602283610eae565b915061139782611330565b604082019050919050565b600060208201905081810360008301526113bb8161137f565b9050919050565b7f45524332303a20696e76616c69642063757272656e74416d6f756e7400000000600082015250565b60006113f8601c83610eae565b9150611403826113c2565b602082019050919050565b60006020820190508181036000830152611427816113eb565b9050919050565b60006040820190506114436000830185610e79565b6114506020830184610e79565b9392505050565b7f45524332303a207472616e736665722066726f6d20746865207a65726f20616460008201527f6472657373000000000000000000000000000000000000000000000000000000602082015250565b60006114b3602583610eae565b91506114be82611457565b604082019050919050565b600060208201905081810360008301526114e2816114a6565b9050919050565b7f45524332303a207472616e7366657220746f20746865207a65726f206164647260008201527f6573730000000000000000000000000000000000000000000000000000000000602082015250565b6000611545602383610eae565b9150611550826114e9565b604082019050919050565b6000602082019050818103600083015261157481611538565b9050919050565b7f45524332303a207472616e7366657220616d6f756e742065786365656473206260008201527f616c616e63650000000000000000000000000000000000000000000000000000602082015250565b60006115d7602683610eae565b91506115e28261157b565b604082019050919050565b60006020820190508181036000830152611606816115ca565b9050919050565b600061161882610e6f565b915061162383610e6f565b9250827fffffffffffffffffffffffffffffffffffffffffffffffffffffffffffffffff038211156116585761165761123b565b5b82820190509291505056fea2646970667358221220e93608018b7fff49ecd23d77c5d04ea9152bca0b8681d2740cec580d58fd440164736f6c634300080d0033","opcodes":"PUSH1 0x80 PUSH1 0x40 MSTORE CALLVALUE DUP1 ISZERO PUSH3 0x11 JUMPI PUSH1 0x0 DUP1 REVERT JUMPDEST POP PUSH1 0x40 MLOAD PUSH3 0x1AC3 CODESIZE SUB DUP1 PUSH3 0x1AC3 DUP4 CODECOPY DUP2 DUP2 ADD PUSH1 0x40 MSTORE DUP2 ADD SWAP1 PUSH3 0x37 SWAP2 SWAP1 PUSH3 0x331 JUMP JUMPDEST DUP2 PUSH1 0x3 SWAP1 DUP1 MLOAD SWAP1 PUSH1 0x20 ADD SWAP1 PUSH3 0x4F SWAP3 SWAP2 SWAP1 PUSH3 0xE4 JUMP JUMPDEST POP DUP1 PUSH1 0x4 SWAP1 DUP1 MLOAD SWAP1 PUSH1 0x20 ADD SWAP1 PUSH3 0x68 SWAP3 SWAP2 SWAP1 PUSH3 0xE4 JUMP JUMPDEST POP PUSH1 0x12 PUSH1 0x5 PUSH1 0x0 PUSH2 0x100 EXP DUP2 SLOAD DUP2 PUSH1 0xFF MUL NOT AND SWAP1 DUP4 PUSH1 0xFF AND MUL OR SWAP1 SSTORE POP PUSH11 0x52B7D2DCC80CD2E4000000 PUSH1 0x2 DUP2 SWAP1 SSTORE POP PUSH1 0x2 SLOAD PUSH1 0x0 DUP1 CALLER PUSH20 0xFFFFFFFFFFFFFFFFFFFFFFFFFFFFFFFFFFFFFFFF AND PUSH20 0xFFFFFFFFFFFFFFFFFFFFFFFFFFFFFFFFFFFFFFFF AND DUP2 MSTORE PUSH1 0x20 ADD SWAP1 DUP2 MSTORE PUSH1 0x20 ADD PUSH1 0x0 KECCAK256 DUP2 SWAP1 SSTORE POP POP POP PUSH3 0x41A JUMP JUMPDEST DUP3 DUP1 SLOAD PUSH3 0xF2 SWAP1 PUSH3 0x3E5 JUMP JUMPDEST SWAP1 PUSH1 0x0 MSTORE PUSH1 0x20 PUSH1 0x0 KECCAK256 SWAP1 PUSH1 0x1F ADD PUSH1 0x20 SWAP1 DIV DUP2 ADD SWAP3 DUP3 PUSH3 0x116 JUMPI PUSH1 0x0 DUP6 SSTORE PUSH3 0x162 JUMP JUMPDEST DUP3 PUSH1 0x1F LT PUSH3 0x131 JUMPI DUP1 MLOAD PUSH1 0xFF NOT AND DUP4 DUP1 ADD OR DUP6 SSTORE PUSH3 0x162 JUMP JUMPDEST DUP3 DUP1 ADD PUSH1 0x1 ADD DUP6 SSTORE DUP3 ISZERO PUSH3 0x162 JUMPI SWAP2 DUP3 ADD JUMPDEST DUP3 DUP2 GT ISZERO PUSH3 0x161 JUMPI DUP3 MLOAD DUP3 SSTORE SWAP2 PUSH1 0x20 ADD SWAP2 SWAP1 PUSH1 0x1 ADD SWAP1 PUSH3 0x144 JUMP JUMPDEST JUMPDEST POP SWAP1 POP PUSH3 0x171 SWAP2 SWAP1 PUSH3 0x175 JUMP JUMPDEST POP SWAP1 JUMP JUMPDEST JUMPDEST DUP1 DUP3 GT ISZERO PUSH3 0x190 JUMPI PUSH1 0x0 DUP2 PUSH1 0x0 SWAP1 SSTORE POP PUSH1 0x1 ADD PUSH3 0x176 JUMP JUMPDEST POP SWAP1 JUMP JUMPDEST PUSH1 0x0 PUSH1 0x40 MLOAD SWAP1 POP SWAP1 JUMP JUMPDEST PUSH1 0x0 DUP1 REVERT JUMPDEST PUSH1 0x0 DUP1 REVERT JUMPDEST PUSH1 0x0 DUP1 REVERT JUMPDEST PUSH1 0x0 DUP1 REVERT JUMPDEST PUSH1 0x0 PUSH1 0x1F NOT PUSH1 0x1F DUP4 ADD AND SWAP1 POP SWAP2 SWAP1 POP JUMP JUMPDEST PUSH32 0x4E487B7100000000000000000000000000000000000000000000000000000000 PUSH1 0x0 MSTORE PUSH1 0x41 PUSH1 0x4 MSTORE PUSH1 0x24 PUSH1 0x0 REVERT JUMPDEST PUSH3 0x1FD DUP3 PUSH3 0x1B2 JUMP JUMPDEST DUP2 ADD DUP2 DUP2 LT PUSH8 0xFFFFFFFFFFFFFFFF DUP3 GT OR ISZERO PUSH3 0x21F JUMPI PUSH3 0x21E PUSH3 0x1C3 JUMP JUMPDEST JUMPDEST DUP1 PUSH1 0x40 MSTORE POP POP POP JUMP JUMPDEST PUSH1 0x0 PUSH3 0x234 PUSH3 0x194 JUMP JUMPDEST SWAP1 POP PUSH3 0x242 DUP3 DUP3 PUSH3 0x1F2 JUMP JUMPDEST SWAP2 SWAP1 POP JUMP JUMPDEST PUSH1 0x0 PUSH8 0xFFFFFFFFFFFFFFFF DUP3 GT ISZERO PUSH3 0x265 JUMPI PUSH3 0x264 PUSH3 0x1C3 JUMP JUMPDEST JUMPDEST PUSH3 0x270 DUP3 PUSH3 0x1B2 JUMP JUMPDEST SWAP1 POP PUSH1 0x20 DUP2 ADD SWAP1 POP SWAP2 SWAP1 POP JUMP JUMPDEST PUSH1 0x0 JUMPDEST DUP4 DUP2 LT ISZERO PUSH3 0x29D JUMPI DUP1 DUP3 ADD MLOAD DUP2 DUP5 ADD MSTORE PUSH1 0x20 DUP2 ADD SWAP1 POP PUSH3 0x280 JUMP JUMPDEST DUP4 DUP2 GT ISZERO PUSH3 0x2AD JUMPI PUSH1 0x0 DUP5 DUP5 ADD MSTORE JUMPDEST POP POP POP POP JUMP JUMPDEST PUSH1 0x0 PUSH3 0x2CA PUSH3 0x2C4 DUP5 PUSH3 0x247 JUMP JUMPDEST PUSH3 0x228 JUMP JUMPDEST SWAP1 POP DUP3 DUP2 MSTORE PUSH1 0x20 DUP2 ADD DUP5 DUP5 DUP5 ADD GT ISZERO PUSH3 0x2E9 JUMPI PUSH3 0x2E8 PUSH3 0x1AD JUMP JUMPDEST JUMPDEST PUSH3 0x2F6 DUP5 DUP3 DUP6 PUSH3 0x27D JUMP JUMPDEST POP SWAP4 SWAP3 POP POP POP JUMP JUMPDEST PUSH1 0x0 DUP3 PUSH1 0x1F DUP4 ADD SLT PUSH3 0x316 JUMPI PUSH3 0x315 PUSH3 0x1A8 JUMP JUMPDEST JUMPDEST DUP2 MLOAD PUSH3 0x328 DUP5 DUP3 PUSH1 0x20 DUP7 ADD PUSH3 0x2B3 JUMP JUMPDEST SWAP2 POP POP SWAP3 SWAP2 POP POP JUMP JUMPDEST PUSH1 0x0 DUP1 PUSH1 0x40 DUP4 DUP6 SUB SLT ISZERO PUSH3 0x34B JUMPI PUSH3 0x34A PUSH3 0x19E JUMP JUMPDEST JUMPDEST PUSH1 0x0 DUP4 ADD MLOAD PUSH8 0xFFFFFFFFFFFFFFFF DUP2 GT ISZERO PUSH3 0x36C JUMPI PUSH3 0x36B PUSH3 0x1A3 JUMP JUMPDEST JUMPDEST PUSH3 0x37A DUP6 DUP3 DUP7 ADD PUSH3 0x2FE JUMP JUMPDEST SWAP3 POP POP PUSH1 0x20 DUP4 ADD MLOAD PUSH8 0xFFFFFFFFFFFFFFFF DUP2 GT ISZERO PUSH3 0x39E JUMPI PUSH3 0x39D PUSH3 0x1A3 JUMP JUMPDEST JUMPDEST PUSH3 0x3AC DUP6 DUP3 DUP7 ADD PUSH3 0x2FE JUMP JUMPDEST SWAP2 POP POP SWAP3 POP SWAP3 SWAP1 POP JUMP JUMPDEST PUSH32 0x4E487B7100000000000000000000000000000000000000000000000000000000 PUSH1 0x0 MSTORE PUSH1 0x22 PUSH1 0x4 MSTORE PUSH1 0x24 PUSH1 0x0 REVERT JUMPDEST PUSH1 0x0 PUSH1 0x2 DUP3 DIV SWAP1 POP PUSH1 0x1 DUP3 AND DUP1 PUSH3 0x3FE JUMPI PUSH1 0x7F DUP3 AND SWAP2 POP JUMPDEST PUSH1 0x20 DUP3 LT DUP2 SUB PUSH3 0x414 JUMPI PUSH3 0x413 PUSH3 0x3B6 JUMP JUMPDEST JUMPDEST POP SWAP2 SWAP1 POP JUMP JUMPDEST PUSH2 0x1699 DUP1 PUSH3 0x42A PUSH1 0x0 CODECOPY PUSH1 0x0 RETURN INVALID PUSH1 0x80 PUSH1 0x40 MSTORE CALLVALUE DUP1 ISZERO PUSH2 0x10 JUMPI PUSH1 0x0 DUP1 REVERT JUMPDEST POP PUSH1 0x4 CALLDATASIZE LT PUSH2 0xEA JUMPI PUSH1 0x0 CALLDATALOAD PUSH1 0xE0 SHR DUP1 PUSH4 0x3EAAF86B GT PUSH2 0x8C JUMPI DUP1 PUSH4 0xA9059CBB GT PUSH2 0x66 JUMPI DUP1 PUSH4 0xA9059CBB EQ PUSH2 0x263 JUMPI DUP1 PUSH4 0xB09F1266 EQ PUSH2 0x293 JUMPI DUP1 PUSH4 0xD28D8852 EQ PUSH2 0x2B1 JUMPI DUP1 PUSH4 0xDD62ED3E EQ PUSH2 0x2CF JUMPI PUSH2 0xEA JUMP JUMPDEST DUP1 PUSH4 0x3EAAF86B EQ PUSH2 0x1F7 JUMPI DUP1 PUSH4 0x70A08231 EQ PUSH2 0x215 JUMPI DUP1 PUSH4 0x95D89B41 EQ PUSH2 0x245 JUMPI PUSH2 0xEA JUMP JUMPDEST DUP1 PUSH4 0x18160DDD GT PUSH2 0xC8 JUMPI DUP1 PUSH4 0x18160DDD EQ PUSH2 0x16D JUMPI DUP1 PUSH4 0x23B872DD EQ PUSH2 0x18B JUMPI DUP1 PUSH4 0x313CE567 EQ PUSH2 0x1BB JUMPI DUP1 PUSH4 0x32424AA3 EQ PUSH2 0x1D9 JUMPI PUSH2 0xEA JUMP JUMPDEST DUP1 PUSH4 0x24C2DDD EQ PUSH2 0xEF JUMPI DUP1 PUSH4 0x6FDDE03 EQ PUSH2 0x11F JUMPI DUP1 PUSH4 0x95EA7B3 EQ PUSH2 0x13D JUMPI JUMPDEST PUSH1 0x0 DUP1 REVERT JUMPDEST PUSH2 0x109 PUSH1 0x4 DUP1 CALLDATASIZE SUB DUP2 ADD SWAP1 PUSH2 0x104 SWAP2 SWAP1 PUSH2 0xE2F JUMP JUMPDEST PUSH2 0x2FF JUMP JUMPDEST PUSH1 0x40 MLOAD PUSH2 0x116 SWAP2 SWAP1 PUSH2 0xE88 JUMP JUMPDEST PUSH1 0x40 MLOAD DUP1 SWAP2 SUB SWAP1 RETURN JUMPDEST PUSH2 0x127 PUSH2 0x324 JUMP JUMPDEST PUSH1 0x40 MLOAD PUSH2 0x134 SWAP2 SWAP1 PUSH2 0xF3C JUMP JUMPDEST PUSH1 0x40 MLOAD DUP1 SWAP2 SUB SWAP1 RETURN JUMPDEST PUSH2 0x157 PUSH1 0x4 DUP1 CALLDATASIZE SUB DUP2 ADD SWAP1 PUSH2 0x152 SWAP2 SWAP1 PUSH2 0xF8A JUMP JUMPDEST PUSH2 0x3B6 JUMP JUMPDEST PUSH1 0x40 MLOAD PUSH2 0x164 SWAP2 SWAP1 PUSH2 0xFE5 JUMP JUMPDEST PUSH1 0x40 MLOAD DUP1 SWAP2 SUB SWAP1 RETURN JUMPDEST PUSH2 0x175 PUSH2 0x492 JUMP JUMPDEST PUSH1 0x40 MLOAD PUSH2 0x182 SWAP2 SWAP1 PUSH2 0xE88 JUMP JUMPDEST PUSH1 0x40 MLOAD DUP1 SWAP2 SUB SWAP1 RETURN JUMPDEST PUSH2 0x1A5 PUSH1 0x4 DUP1 CALLDATASIZE SUB DUP2 ADD SWAP1 PUSH2 0x1A0 SWAP2 SWAP1 PUSH2 0x1000 JUMP JUMPDEST PUSH2 0x49C JUMP JUMPDEST PUSH1 0x40 MLOAD PUSH2 0x1B2 SWAP2 SWAP1 PUSH2 0xFE5 JUMP JUMPDEST PUSH1 0x40 MLOAD DUP1 SWAP2 SUB SWAP1 RETURN JUMPDEST PUSH2 0x1C3 PUSH2 0x60C JUMP JUMPDEST PUSH1 0x40 MLOAD PUSH2 0x1D0 SWAP2 SWAP1 PUSH2 0x106F JUMP JUMPDEST PUSH1 0x40 MLOAD DUP1 SWAP2 SUB SWAP1 RETURN JUMPDEST PUSH2 0x1E1 PUSH2 0x623 JUMP JUMPDEST PUSH1 0x40 MLOAD PUSH2 0x1EE SWAP2 SWAP1 PUSH2 0x106F JUMP JUMPDEST PUSH1 0x40 MLOAD DUP1 SWAP2 SUB SWAP1 RETURN JUMPDEST PUSH2 0x1FF PUSH2 0x636 JUMP JUMPDEST PUSH1 0x40 MLOAD PUSH2 0x20C SWAP2 SWAP1 PUSH2 0xE88 JUMP JUMPDEST PUSH1 0x40 MLOAD DUP1 SWAP2 SUB SWAP1 RETURN JUMPDEST PUSH2 0x22F PUSH1 0x4 DUP1 CALLDATASIZE SUB DUP2 ADD SWAP1 PUSH2 0x22A SWAP2 SWAP1 PUSH2 0x108A JUMP JUMPDEST PUSH2 0x63C JUMP JUMPDEST PUSH1 0x40 MLOAD PUSH2 0x23C SWAP2 SWAP1 PUSH2 0xE88 JUMP JUMPDEST PUSH1 0x40 MLOAD DUP1 SWAP2 SUB SWAP1 RETURN JUMPDEST PUSH2 0x24D PUSH2 0x684 JUMP JUMPDEST PUSH1 0x40 MLOAD PUSH2 0x25A SWAP2 SWAP1 PUSH2 0xF3C JUMP JUMPDEST PUSH1 0x40 MLOAD DUP1 SWAP2 SUB SWAP1 RETURN JUMPDEST PUSH2 0x27D PUSH1 0x4 DUP1 CALLDATASIZE SUB DUP2 ADD SWAP1 PUSH2 0x278 SWAP2 SWAP1 PUSH2 0xF8A JUMP JUMPDEST PUSH2 0x716 JUMP JUMPDEST PUSH1 0x40 MLOAD PUSH2 0x28A SWAP2 SWAP1 PUSH2 0xFE5 JUMP JUMPDEST PUSH1 0x40 MLOAD DUP1 SWAP2 SUB SWAP1 RETURN JUMPDEST PUSH2 0x29B PUSH2 0x792 JUMP JUMPDEST PUSH1 0x40 MLOAD PUSH2 0x2A8 SWAP2 SWAP1 PUSH2 0xF3C JUMP JUMPDEST PUSH1 0x40 MLOAD DUP1 SWAP2 SUB SWAP1 RETURN JUMPDEST PUSH2 0x2B9 PUSH2 0x820 JUMP JUMPDEST PUSH1 0x40 MLOAD PUSH2 0x2C6 SWAP2 SWAP1 PUSH2 0xF3C JUMP JUMPDEST PUSH1 0x40 MLOAD DUP1 SWAP2 SUB SWAP1 RETURN JUMPDEST PUSH2 0x2E9 PUSH1 0x4 DUP1 CALLDATASIZE SUB DUP2 ADD SWAP1 PUSH2 0x2E4 SWAP2 SWAP1 PUSH2 0xE2F JUMP JUMPDEST PUSH2 0x8AE JUMP JUMPDEST PUSH1 0x40 MLOAD PUSH2 0x2F6 SWAP2 SWAP1 PUSH2 0xE88 JUMP JUMPDEST PUSH1 0x40 MLOAD DUP1 SWAP2 SUB SWAP1 RETURN JUMPDEST PUSH1 0x1 PUSH1 0x20 MSTORE DUP2 PUSH1 0x0 MSTORE PUSH1 0x40 PUSH1 0x0 KECCAK256 PUSH1 0x20 MSTORE DUP1 PUSH1 0x0 MSTORE PUSH1 0x40 PUSH1 0x0 KECCAK256 PUSH1 0x0 SWAP2 POP SWAP2 POP POP SLOAD DUP2 JUMP JUMPDEST PUSH1 0x60 PUSH1 0x3 DUP1 SLOAD PUSH2 0x333 SWAP1 PUSH2 0x10E6 JUMP JUMPDEST DUP1 PUSH1 0x1F ADD PUSH1 0x20 DUP1 SWAP2 DIV MUL PUSH1 0x20 ADD PUSH1 0x40 MLOAD SWAP1 DUP2 ADD PUSH1 0x40 MSTORE DUP1 SWAP3 SWAP2 SWAP1 DUP2 DUP2 MSTORE PUSH1 0x20 ADD DUP3 DUP1 SLOAD PUSH2 0x35F SWAP1 PUSH2 0x10E6 JUMP JUMPDEST DUP1 ISZERO PUSH2 0x3AC JUMPI DUP1 PUSH1 0x1F LT PUSH2 0x381 JUMPI PUSH2 0x100 DUP1 DUP4 SLOAD DIV MUL DUP4 MSTORE SWAP2 PUSH1 0x20 ADD SWAP2 PUSH2 0x3AC JUMP JUMPDEST DUP3 ADD SWAP2 SWAP1 PUSH1 0x0 MSTORE PUSH1 0x20 PUSH1 0x0 KECCAK256 SWAP1 JUMPDEST DUP2 SLOAD DUP2 MSTORE SWAP1 PUSH1 0x1 ADD SWAP1 PUSH1 0x20 ADD DUP1 DUP4 GT PUSH2 0x38F JUMPI DUP3 SWAP1 SUB PUSH1 0x1F AND DUP3 ADD SWAP2 JUMPDEST POP POP POP POP POP SWAP1 POP SWAP1 JUMP JUMPDEST PUSH1 0x0 DUP1 PUSH1 0x1 PUSH1 0x0 CALLER PUSH20 0xFFFFFFFFFFFFFFFFFFFFFFFFFFFFFFFFFFFFFFFF AND PUSH20 0xFFFFFFFFFFFFFFFFFFFFFFFFFFFFFFFFFFFFFFFF AND DUP2 MSTORE PUSH1 0x20 ADD SWAP1 DUP2 MSTORE PUSH1 0x20 ADD PUSH1 0x0 KECCAK256 PUSH1 0x0 DUP6 PUSH20 0xFFFFFFFFFFFFFFFFFFFFFFFFFFFFFFFFFFFFFFFF AND PUSH20 0xFFFFFFFFFFFFFFFFFFFFFFFFFFFFFFFFFFFFFFFF AND DUP2 MSTORE PUSH1 0x20 ADD SWAP1 DUP2 MSTORE PUSH1 0x20 ADD PUSH1 0x0 KECCAK256 SLOAD SWAP1 POP DUP3 DUP2 LT ISZERO PUSH2 0x47B JUMPI PUSH1 0x40 MLOAD PUSH32 0x8C379A000000000000000000000000000000000000000000000000000000000 DUP2 MSTORE PUSH1 0x4 ADD PUSH2 0x472 SWAP1 PUSH2 0x1189 JUMP JUMPDEST PUSH1 0x40 MLOAD DUP1 SWAP2 SUB SWAP1 REVERT JUMPDEST PUSH2 0x487 CALLER DUP6 DUP4 DUP7 PUSH2 0x935 JUMP JUMPDEST PUSH1 0x1 SWAP2 POP POP SWAP3 SWAP2 POP POP JUMP JUMPDEST PUSH1 0x0 PUSH1 0x2 SLOAD SWAP1 POP SWAP1 JUMP JUMPDEST PUSH1 0x0 PUSH2 0x4A9 DUP5 DUP5 DUP5 PUSH2 0xBBF JUMP JUMPDEST DUP3 PUSH20 0xFFFFFFFFFFFFFFFFFFFFFFFFFFFFFFFFFFFFFFFF AND DUP5 PUSH20 0xFFFFFFFFFFFFFFFFFFFFFFFFFFFFFFFFFFFFFFFF AND CALLER PUSH20 0xFFFFFFFFFFFFFFFFFFFFFFFFFFFFFFFFFFFFFFFF AND PUSH32 0xD1398BEE19313D6BF672CCB116E51F4A1A947E91C757907F51FBB5B5E56C698F DUP6 PUSH1 0x40 MLOAD PUSH2 0x51D SWAP2 SWAP1 PUSH2 0xE88 JUMP JUMPDEST PUSH1 0x40 MLOAD DUP1 SWAP2 SUB SWAP1 LOG4 PUSH1 0x0 PUSH1 0x1 PUSH1 0x0 DUP7 PUSH20 0xFFFFFFFFFFFFFFFFFFFFFFFFFFFFFFFFFFFFFFFF AND PUSH20 0xFFFFFFFFFFFFFFFFFFFFFFFFFFFFFFFFFFFFFFFF AND DUP2 MSTORE PUSH1 0x20 ADD SWAP1 DUP2 MSTORE PUSH1 0x20 ADD PUSH1 0x0 KECCAK256 PUSH1 0x0 CALLER PUSH20 0xFFFFFFFFFFFFFFFFFFFFFFFFFFFFFFFFFFFFFFFF AND PUSH20 0xFFFFFFFFFFFFFFFFFFFFFFFFFFFFFFFFFFFFFFFF AND DUP2 MSTORE PUSH1 0x20 ADD SWAP1 DUP2 MSTORE PUSH1 0x20 ADD PUSH1 0x0 KECCAK256 SLOAD SWAP1 POP DUP3 DUP2 LT ISZERO PUSH2 0x5E9 JUMPI PUSH1 0x40 MLOAD PUSH32 0x8C379A000000000000000000000000000000000000000000000000000000000 DUP2 MSTORE PUSH1 0x4 ADD PUSH2 0x5E0 SWAP1 PUSH2 0x121B JUMP JUMPDEST PUSH1 0x40 MLOAD DUP1 SWAP2 SUB SWAP1 REVERT JUMPDEST PUSH2 0x600 DUP6 CALLER DUP4 DUP7 DUP6 PUSH2 0x5FB SWAP2 SWAP1 PUSH2 0x126A JUMP JUMPDEST PUSH2 0x935 JUMP JUMPDEST PUSH1 0x1 SWAP2 POP POP SWAP4 SWAP3 POP POP POP JUMP JUMPDEST PUSH1 0x0 PUSH1 0x5 PUSH1 0x0 SWAP1 SLOAD SWAP1 PUSH2 0x100 EXP SWAP1 DIV PUSH1 0xFF AND SWAP1 POP SWAP1 JUMP JUMPDEST PUSH1 0x5 PUSH1 0x0 SWAP1 SLOAD SWAP1 PUSH2 0x100 EXP SWAP1 DIV PUSH1 0xFF AND DUP2 JUMP JUMPDEST PUSH1 0x2 SLOAD DUP2 JUMP JUMPDEST PUSH1 0x0 DUP1 PUSH1 0x0 DUP4 PUSH20 0xFFFFFFFFFFFFFFFFFFFFFFFFFFFFFFFFFFFFFFFF AND PUSH20 0xFFFFFFFFFFFFFFFFFFFFFFFFFFFFFFFFFFFFFFFF AND DUP2 MSTORE PUSH1 0x20 ADD SWAP1 DUP2 MSTORE PUSH1 0x20 ADD PUSH1 0x0 KECCAK256 SLOAD SWAP1 POP SWAP2 SWAP1 POP JUMP JUMPDEST PUSH1 0x60 PUSH1 0x4 DUP1 SLOAD PUSH2 0x693 SWAP1 PUSH2 0x10E6 JUMP JUMPDEST DUP1 PUSH1 0x1F ADD PUSH1 0x20 DUP1 SWAP2 DIV MUL PUSH1 0x20 ADD PUSH1 0x40 MLOAD SWAP1 DUP2 ADD PUSH1 0x40 MSTORE DUP1 SWAP3 SWAP2 SWAP1 DUP2 DUP2 MSTORE PUSH1 0x20 ADD DUP3 DUP1 SLOAD PUSH2 0x6BF SWAP1 PUSH2 0x10E6 JUMP JUMPDEST DUP1 ISZERO PUSH2 0x70C JUMPI DUP1 PUSH1 0x1F LT PUSH2 0x6E1 JUMPI PUSH2 0x100 DUP1 DUP4 SLOAD DIV MUL DUP4 MSTORE SWAP2 PUSH1 0x20 ADD SWAP2 PUSH2 0x70C JUMP JUMPDEST DUP3 ADD SWAP2 SWAP1 PUSH1 0x0 MSTORE PUSH1 0x20 PUSH1 0x0 KECCAK256 SWAP1 JUMPDEST DUP2 SLOAD DUP2 MSTORE SWAP1 PUSH1 0x1 ADD SWAP1 PUSH1 0x20 ADD DUP1 DUP4 GT PUSH2 0x6EF JUMPI DUP3 SWAP1 SUB PUSH1 0x1F AND DUP3 ADD SWAP2 JUMPDEST POP POP POP POP POP SWAP1 POP SWAP1 JUMP JUMPDEST PUSH1 0x0 PUSH2 0x723 CALLER DUP5 DUP5 PUSH2 0xBBF JUMP JUMPDEST DUP3 PUSH20 0xFFFFFFFFFFFFFFFFFFFFFFFFFFFFFFFFFFFFFFFF AND CALLER PUSH20 0xFFFFFFFFFFFFFFFFFFFFFFFFFFFFFFFFFFFFFFFF AND PUSH32 0xDDF252AD1BE2C89B69C2B068FC378DAA952BA7F163C4A11628F55A4DF523B3EF DUP5 PUSH1 0x40 MLOAD PUSH2 0x780 SWAP2 SWAP1 PUSH2 0xE88 JUMP JUMPDEST PUSH1 0x40 MLOAD DUP1 SWAP2 SUB SWAP1 LOG3 PUSH1 0x1 SWAP1 POP SWAP3 SWAP2 POP POP JUMP JUMPDEST PUSH1 0x4 DUP1 SLOAD PUSH2 0x79F SWAP1 PUSH2 0x10E6 JUMP JUMPDEST DUP1 PUSH1 0x1F ADD PUSH1 0x20 DUP1 SWAP2 DIV MUL PUSH1 0x20 ADD PUSH1 0x40 MLOAD SWAP1 DUP2 ADD PUSH1 0x40 MSTORE DUP1 SWAP3 SWAP2 SWAP1 DUP2 DUP2 MSTORE PUSH1 0x20 ADD DUP3 DUP1 SLOAD PUSH2 0x7CB SWAP1 PUSH2 0x10E6 JUMP JUMPDEST DUP1 ISZERO PUSH2 0x818 JUMPI DUP1 PUSH1 0x1F LT PUSH2 0x7ED JUMPI PUSH2 0x100 DUP1 DUP4 SLOAD DIV MUL DUP4 MSTORE SWAP2 PUSH1 0x20 ADD SWAP2 PUSH2 0x818 JUMP JUMPDEST DUP3 ADD SWAP2 SWAP1 PUSH1 0x0 MSTORE PUSH1 0x20 PUSH1 0x0 KECCAK256 SWAP1 JUMPDEST DUP2 SLOAD DUP2 MSTORE SWAP1 PUSH1 0x1 ADD SWAP1 PUSH1 0x20 ADD DUP1 DUP4 GT PUSH2 0x7FB JUMPI DUP3 SWAP1 SUB PUSH1 0x1F AND DUP3 ADD SWAP2 JUMPDEST POP POP POP POP POP DUP2 JUMP JUMPDEST PUSH1 0x3 DUP1 SLOAD PUSH2 0x82D SWAP1 PUSH2 0x10E6 JUMP JUMPDEST DUP1 PUSH1 0x1F ADD PUSH1 0x20 DUP1 SWAP2 DIV MUL PUSH1 0x20 ADD PUSH1 0x40 MLOAD SWAP1 DUP2 ADD PUSH1 0x40 MSTORE DUP1 SWAP3 SWAP2 SWAP1 DUP2 DUP2 MSTORE PUSH1 0x20 ADD DUP3 DUP1 SLOAD PUSH2 0x859 SWAP1 PUSH2 0x10E6 JUMP JUMPDEST DUP1 ISZERO PUSH2 0x8A6 JUMPI DUP1 PUSH1 0x1F LT PUSH2 0x87B JUMPI PUSH2 0x100 DUP1 DUP4 SLOAD DIV MUL DUP4 MSTORE SWAP2 PUSH1 0x20 ADD SWAP2 PUSH2 0x8A6 JUMP JUMPDEST DUP3 ADD SWAP2 SWAP1 PUSH1 0x0 MSTORE PUSH1 0x20 PUSH1 0x0 KECCAK256 SWAP1 JUMPDEST DUP2 SLOAD DUP2 MSTORE SWAP1 PUSH1 0x1 ADD SWAP1 PUSH1 0x20 ADD DUP1 DUP4 GT PUSH2 0x889 JUMPI DUP3 SWAP1 SUB PUSH1 0x1F AND DUP3 ADD SWAP2 JUMPDEST POP POP POP POP POP DUP2 JUMP JUMPDEST PUSH1 0x0 PUSH1 0x1 PUSH1 0x0 DUP5 PUSH20 0xFFFFFFFFFFFFFFFFFFFFFFFFFFFFFFFFFFFFFFFF AND PUSH20 0xFFFFFFFFFFFFFFFFFFFFFFFFFFFFFFFFFFFFFFFF AND DUP2 MSTORE PUSH1 0x20 ADD SWAP1 DUP2 MSTORE PUSH1 0x20 ADD PUSH1 0x0 KECCAK256 PUSH1 0x0 DUP4 PUSH20 0xFFFFFFFFFFFFFFFFFFFFFFFFFFFFFFFFFFFFFFFF AND PUSH20 0xFFFFFFFFFFFFFFFFFFFFFFFFFFFFFFFFFFFFFFFF AND DUP2 MSTORE PUSH1 0x20 ADD SWAP1 DUP2 MSTORE PUSH1 0x20 ADD PUSH1 0x0 KECCAK256 SLOAD SWAP1 POP SWAP3 SWAP2 POP POP JUMP JUMPDEST PUSH1 0x0 PUSH20 0xFFFFFFFFFFFFFFFFFFFFFFFFFFFFFFFFFFFFFFFF AND DUP5 PUSH20 0xFFFFFFFFFFFFFFFFFFFFFFFFFFFFFFFFFFFFFFFF AND SUB PUSH2 0x9A4 JUMPI PUSH1 0x40 MLOAD PUSH32 0x8C379A000000000000000000000000000000000000000000000000000000000 DUP2 MSTORE PUSH1 0x4 ADD PUSH2 0x99B SWAP1 PUSH2 0x1310 JUMP JUMPDEST PUSH1 0x40 MLOAD DUP1 SWAP2 SUB SWAP1 REVERT JUMPDEST PUSH1 0x0 PUSH20 0xFFFFFFFFFFFFFFFFFFFFFFFFFFFFFFFFFFFFFFFF AND DUP4 PUSH20 0xFFFFFFFFFFFFFFFFFFFFFFFFFFFFFFFFFFFFFFFF AND SUB PUSH2 0xA13 JUMPI PUSH1 0x40 MLOAD PUSH32 0x8C379A000000000000000000000000000000000000000000000000000000000 DUP2 MSTORE PUSH1 0x4 ADD PUSH2 0xA0A SWAP1 PUSH2 0x13A2 JUMP JUMPDEST PUSH1 0x40 MLOAD DUP1 SWAP2 SUB SWAP1 REVERT JUMPDEST PUSH1 0x1 PUSH1 0x0 DUP6 PUSH20 0xFFFFFFFFFFFFFFFFFFFFFFFFFFFFFFFFFFFFFFFF AND PUSH20 0xFFFFFFFFFFFFFFFFFFFFFFFFFFFFFFFFFFFFFFFF AND DUP2 MSTORE PUSH1 0x20 ADD SWAP1 DUP2 MSTORE PUSH1 0x20 ADD PUSH1 0x0 KECCAK256 PUSH1 0x0 DUP5 PUSH20 0xFFFFFFFFFFFFFFFFFFFFFFFFFFFFFFFFFFFFFFFF AND PUSH20 0xFFFFFFFFFFFFFFFFFFFFFFFFFFFFFFFFFFFFFFFF AND DUP2 MSTORE PUSH1 0x20 ADD SWAP1 DUP2 MSTORE PUSH1 0x20 ADD PUSH1 0x0 KECCAK256 SLOAD DUP3 EQ PUSH2 0xAD1 JUMPI PUSH1 0x40 MLOAD PUSH32 0x8C379A000000000000000000000000000000000000000000000000000000000 DUP2 MSTORE PUSH1 0x4 ADD PUSH2 0xAC8 SWAP1 PUSH2 0x140E JUMP JUMPDEST PUSH1 0x40 MLOAD DUP1 SWAP2 SUB SWAP1 REVERT JUMPDEST DUP1 PUSH1 0x1 PUSH1 0x0 DUP7 PUSH20 0xFFFFFFFFFFFFFFFFFFFFFFFFFFFFFFFFFFFFFFFF AND PUSH20 0xFFFFFFFFFFFFFFFFFFFFFFFFFFFFFFFFFFFFFFFF AND DUP2 MSTORE PUSH1 0x20 ADD SWAP1 DUP2 MSTORE PUSH1 0x20 ADD PUSH1 0x0 KECCAK256 PUSH1 0x0 DUP6 PUSH20 0xFFFFFFFFFFFFFFFFFFFFFFFFFFFFFFFFFFFFFFFF AND PUSH20 0xFFFFFFFFFFFFFFFFFFFFFFFFFFFFFFFFFFFFFFFF AND DUP2 MSTORE PUSH1 0x20 ADD SWAP1 DUP2 MSTORE PUSH1 0x20 ADD PUSH1 0x0 KECCAK256 DUP2 SWAP1 SSTORE POP DUP3 PUSH20 0xFFFFFFFFFFFFFFFFFFFFFFFFFFFFFFFFFFFFFFFF AND DUP5 PUSH20 0xFFFFFFFFFFFFFFFFFFFFFFFFFFFFFFFFFFFFFFFF AND PUSH32 0xB3FD5071835887567A0671151121894DDCCC2842F1D10BEDAD13E0D17CACE9A7 DUP5 DUP5 PUSH1 0x40 MLOAD PUSH2 0xBB1 SWAP3 SWAP2 SWAP1 PUSH2 0x142E JUMP JUMPDEST PUSH1 0x40 MLOAD DUP1 SWAP2 SUB SWAP1 LOG3 POP POP POP POP JUMP JUMPDEST PUSH1 0x0 PUSH20 0xFFFFFFFFFFFFFFFFFFFFFFFFFFFFFFFFFFFFFFFF AND DUP4 PUSH20 0xFFFFFFFFFFFFFFFFFFFFFFFFFFFFFFFFFFFFFFFF AND SUB PUSH2 0xC2E JUMPI PUSH1 0x40 MLOAD PUSH32 0x8C379A000000000000000000000000000000000000000000000000000000000 DUP2 MSTORE PUSH1 0x4 ADD PUSH2 0xC25 SWAP1 PUSH2 0x14C9 JUMP JUMPDEST PUSH1 0x40 MLOAD DUP1 SWAP2 SUB SWAP1 REVERT JUMPDEST PUSH1 0x0 PUSH20 0xFFFFFFFFFFFFFFFFFFFFFFFFFFFFFFFFFFFFFFFF AND DUP3 PUSH20 0xFFFFFFFFFFFFFFFFFFFFFFFFFFFFFFFFFFFFFFFF AND SUB PUSH2 0xC9D JUMPI PUSH1 0x40 MLOAD PUSH32 0x8C379A000000000000000000000000000000000000000000000000000000000 DUP2 MSTORE PUSH1 0x4 ADD PUSH2 0xC94 SWAP1 PUSH2 0x155B JUMP JUMPDEST PUSH1 0x40 MLOAD DUP1 SWAP2 SUB SWAP1 REVERT JUMPDEST PUSH1 0x0 DUP1 PUSH1 0x0 DUP6 PUSH20 0xFFFFFFFFFFFFFFFFFFFFFFFFFFFFFFFFFFFFFFFF AND PUSH20 0xFFFFFFFFFFFFFFFFFFFFFFFFFFFFFFFFFFFFFFFF AND DUP2 MSTORE PUSH1 0x20 ADD SWAP1 DUP2 MSTORE PUSH1 0x20 ADD PUSH1 0x0 KECCAK256 SLOAD SWAP1 POP DUP2 DUP2 LT ISZERO PUSH2 0xD23 JUMPI PUSH1 0x40 MLOAD PUSH32 0x8C379A000000000000000000000000000000000000000000000000000000000 DUP2 MSTORE PUSH1 0x4 ADD PUSH2 0xD1A SWAP1 PUSH2 0x15ED JUMP JUMPDEST PUSH1 0x40 MLOAD DUP1 SWAP2 SUB SWAP1 REVERT JUMPDEST DUP2 DUP2 PUSH2 0xD2F SWAP2 SWAP1 PUSH2 0x126A JUMP JUMPDEST PUSH1 0x0 DUP1 DUP7 PUSH20 0xFFFFFFFFFFFFFFFFFFFFFFFFFFFFFFFFFFFFFFFF AND PUSH20 0xFFFFFFFFFFFFFFFFFFFFFFFFFFFFFFFFFFFFFFFF AND DUP2 MSTORE PUSH1 0x20 ADD SWAP1 DUP2 MSTORE PUSH1 0x20 ADD PUSH1 0x0 KECCAK256 DUP2 SWAP1 SSTORE POP DUP2 PUSH1 0x0 DUP1 DUP6 PUSH20 0xFFFFFFFFFFFFFFFFFFFFFFFFFFFFFFFFFFFFFFFF AND PUSH20 0xFFFFFFFFFFFFFFFFFFFFFFFFFFFFFFFFFFFFFFFF AND DUP2 MSTORE PUSH1 0x20 ADD SWAP1 DUP2 MSTORE PUSH1 0x20 ADD PUSH1 0x0 KECCAK256 PUSH1 0x0 DUP3 DUP3 SLOAD PUSH2 0xDBF SWAP2 SWAP1 PUSH2 0x160D JUMP JUMPDEST SWAP3 POP POP DUP2 SWAP1 SSTORE POP POP POP POP POP JUMP JUMPDEST PUSH1 0x0 DUP1 REVERT JUMPDEST PUSH1 0x0 PUSH20 0xFFFFFFFFFFFFFFFFFFFFFFFFFFFFFFFFFFFFFFFF DUP3 AND SWAP1 POP SWAP2 SWAP1 POP JUMP JUMPDEST PUSH1 0x0 PUSH2 0xDFC DUP3 PUSH2 0xDD1 JUMP JUMPDEST SWAP1 POP SWAP2 SWAP1 POP JUMP JUMPDEST PUSH2 0xE0C DUP2 PUSH2 0xDF1 JUMP JUMPDEST DUP2 EQ PUSH2 0xE17 JUMPI PUSH1 0x0 DUP1 REVERT JUMPDEST POP JUMP JUMPDEST PUSH1 0x0 DUP2 CALLDATALOAD SWAP1 POP PUSH2 0xE29 DUP2 PUSH2 0xE03 JUMP JUMPDEST SWAP3 SWAP2 POP POP JUMP JUMPDEST PUSH1 0x0 DUP1 PUSH1 0x40 DUP4 DUP6 SUB SLT ISZERO PUSH2 0xE46 JUMPI PUSH2 0xE45 PUSH2 0xDCC JUMP JUMPDEST JUMPDEST PUSH1 0x0 PUSH2 0xE54 DUP6 DUP3 DUP7 ADD PUSH2 0xE1A JUMP JUMPDEST SWAP3 POP POP PUSH1 0x20 PUSH2 0xE65 DUP6 DUP3 DUP7 ADD PUSH2 0xE1A JUMP JUMPDEST SWAP2 POP POP SWAP3 POP SWAP3 SWAP1 POP JUMP JUMPDEST PUSH1 0x0 DUP2 SWAP1 POP SWAP2 SWAP1 POP JUMP JUMPDEST PUSH2 0xE82 DUP2 PUSH2 0xE6F JUMP JUMPDEST DUP3 MSTORE POP POP JUMP JUMPDEST PUSH1 0x0 PUSH1 0x20 DUP3 ADD SWAP1 POP PUSH2 0xE9D PUSH1 0x0 DUP4 ADD DUP5 PUSH2 0xE79 JUMP JUMPDEST SWAP3 SWAP2 POP POP JUMP JUMPDEST PUSH1 0x0 DUP2 MLOAD SWAP1 POP SWAP2 SWAP1 POP JUMP JUMPDEST PUSH1 0x0 DUP3 DUP3 MSTORE PUSH1 0x20 DUP3 ADD SWAP1 POP SWAP3 SWAP2 POP POP JUMP JUMPDEST PUSH1 0x0 JUMPDEST DUP4 DUP2 LT ISZERO PUSH2 0xEDD JUMPI DUP1 DUP3 ADD MLOAD DUP2 DUP5 ADD MSTORE PUSH1 0x20 DUP2 ADD SWAP1 POP PUSH2 0xEC2 JUMP JUMPDEST DUP4 DUP2 GT ISZERO PUSH2 0xEEC JUMPI PUSH1 0x0 DUP5 DUP5 ADD MSTORE JUMPDEST POP POP POP POP JUMP JUMPDEST PUSH1 0x0 PUSH1 0x1F NOT PUSH1 0x1F DUP4 ADD AND SWAP1 POP SWAP2 SWAP1 POP JUMP JUMPDEST PUSH1 0x0 PUSH2 0xF0E DUP3 PUSH2 0xEA3 JUMP JUMPDEST PUSH2 0xF18 DUP2 DUP6 PUSH2 0xEAE JUMP JUMPDEST SWAP4 POP PUSH2 0xF28 DUP2 DUP6 PUSH1 0x20 DUP7 ADD PUSH2 0xEBF JUMP JUMPDEST PUSH2 0xF31 DUP2 PUSH2 0xEF2 JUMP JUMPDEST DUP5 ADD SWAP2 POP POP SWAP3 SWAP2 POP POP JUMP JUMPDEST PUSH1 0x0 PUSH1 0x20 DUP3 ADD SWAP1 POP DUP2 DUP2 SUB PUSH1 0x0 DUP4 ADD MSTORE PUSH2 0xF56 DUP2 DUP5 PUSH2 0xF03 JUMP JUMPDEST SWAP1 POP SWAP3 SWAP2 POP POP JUMP JUMPDEST PUSH2 0xF67 DUP2 PUSH2 0xE6F JUMP JUMPDEST DUP2 EQ PUSH2 0xF72 JUMPI PUSH1 0x0 DUP1 REVERT JUMPDEST POP JUMP JUMPDEST PUSH1 0x0 DUP2 CALLDATALOAD SWAP1 POP PUSH2 0xF84 DUP2 PUSH2 0xF5E JUMP JUMPDEST SWAP3 SWAP2 POP POP JUMP JUMPDEST PUSH1 0x0 DUP1 PUSH1 0x40 DUP4 DUP6 SUB SLT ISZERO PUSH2 0xFA1 JUMPI PUSH2 0xFA0 PUSH2 0xDCC JUMP JUMPDEST JUMPDEST PUSH1 0x0 PUSH2 0xFAF DUP6 DUP3 DUP7 ADD PUSH2 0xE1A JUMP JUMPDEST SWAP3 POP POP PUSH1 0x20 PUSH2 0xFC0 DUP6 DUP3 DUP7 ADD PUSH2 0xF75 JUMP JUMPDEST SWAP2 POP POP SWAP3 POP SWAP3 SWAP1 POP JUMP JUMPDEST PUSH1 0x0 DUP2 ISZERO ISZERO SWAP1 POP SWAP2 SWAP1 POP JUMP JUMPDEST PUSH2 0xFDF DUP2 PUSH2 0xFCA JUMP JUMPDEST DUP3 MSTORE POP POP JUMP JUMPDEST PUSH1 0x0 PUSH1 0x20 DUP3 ADD SWAP1 POP PUSH2 0xFFA PUSH1 0x0 DUP4 ADD DUP5 PUSH2 0xFD6 JUMP JUMPDEST SWAP3 SWAP2 POP POP JUMP JUMPDEST PUSH1 0x0 DUP1 PUSH1 0x0 PUSH1 0x60 DUP5 DUP7 SUB SLT ISZERO PUSH2 0x1019 JUMPI PUSH2 0x1018 PUSH2 0xDCC JUMP JUMPDEST JUMPDEST PUSH1 0x0 PUSH2 0x1027 DUP7 DUP3 DUP8 ADD PUSH2 0xE1A JUMP JUMPDEST SWAP4 POP POP PUSH1 0x20 PUSH2 0x1038 DUP7 DUP3 DUP8 ADD PUSH2 0xE1A JUMP JUMPDEST SWAP3 POP POP PUSH1 0x40 PUSH2 0x1049 DUP7 DUP3 DUP8 ADD PUSH2 0xF75 JUMP JUMPDEST SWAP2 POP POP SWAP3 POP SWAP3 POP SWAP3 JUMP JUMPDEST PUSH1 0x0 PUSH1 0xFF DUP3 AND SWAP1 POP SWAP2 SWAP1 POP JUMP JUMPDEST PUSH2 0x1069 DUP2 PUSH2 0x1053 JUMP JUMPDEST DUP3 MSTORE POP POP JUMP JUMPDEST PUSH1 0x0 PUSH1 0x20 DUP3 ADD SWAP1 POP PUSH2 0x1084 PUSH1 0x0 DUP4 ADD DUP5 PUSH2 0x1060 JUMP JUMPDEST SWAP3 SWAP2 POP POP JUMP JUMPDEST PUSH1 0x0 PUSH1 0x20 DUP3 DUP5 SUB SLT ISZERO PUSH2 0x10A0 JUMPI PUSH2 0x109F PUSH2 0xDCC JUMP JUMPDEST JUMPDEST PUSH1 0x0 PUSH2 0x10AE DUP5 DUP3 DUP6 ADD PUSH2 0xE1A JUMP JUMPDEST SWAP2 POP POP SWAP3 SWAP2 POP POP JUMP JUMPDEST PUSH32 0x4E487B7100000000000000000000000000000000000000000000000000000000 PUSH1 0x0 MSTORE PUSH1 0x22 PUSH1 0x4 MSTORE PUSH1 0x24 PUSH1 0x0 REVERT JUMPDEST PUSH1 0x0 PUSH1 0x2 DUP3 DIV SWAP1 POP PUSH1 0x1 DUP3 AND DUP1 PUSH2 0x10FE JUMPI PUSH1 0x7F DUP3 AND SWAP2 POP JUMPDEST PUSH1 0x20 DUP3 LT DUP2 SUB PUSH2 0x1111 JUMPI PUSH2 0x1110 PUSH2 0x10B7 JUMP JUMPDEST JUMPDEST POP SWAP2 SWAP1 POP JUMP JUMPDEST PUSH32 0x45524332303A205472616E7366657220616D6F756E7420657863656564732061 PUSH1 0x0 DUP3 ADD MSTORE PUSH32 0x6C6C6F77616E6365000000000000000000000000000000000000000000000000 PUSH1 0x20 DUP3 ADD MSTORE POP JUMP JUMPDEST PUSH1 0x0 PUSH2 0x1173 PUSH1 0x28 DUP4 PUSH2 0xEAE JUMP JUMPDEST SWAP2 POP PUSH2 0x117E DUP3 PUSH2 0x1117 JUMP JUMPDEST PUSH1 0x40 DUP3 ADD SWAP1 POP SWAP2 SWAP1 POP JUMP JUMPDEST PUSH1 0x0 PUSH1 0x20 DUP3 ADD SWAP1 POP DUP2 DUP2 SUB PUSH1 0x0 DUP4 ADD MSTORE PUSH2 0x11A2 DUP2 PUSH2 0x1166 JUMP JUMPDEST SWAP1 POP SWAP2 SWAP1 POP JUMP JUMPDEST PUSH32 0x45524332303A207472616E7366657220616D6F756E7420657863656564732061 PUSH1 0x0 DUP3 ADD MSTORE PUSH32 0x6C6C6F77616E6365000000000000000000000000000000000000000000000000 PUSH1 0x20 DUP3 ADD MSTORE POP JUMP JUMPDEST PUSH1 0x0 PUSH2 0x1205 PUSH1 0x28 DUP4 PUSH2 0xEAE JUMP JUMPDEST SWAP2 POP PUSH2 0x1210 DUP3 PUSH2 0x11A9 JUMP JUMPDEST PUSH1 0x40 DUP3 ADD SWAP1 POP SWAP2 SWAP1 POP JUMP JUMPDEST PUSH1 0x0 PUSH1 0x20 DUP3 ADD SWAP1 POP DUP2 DUP2 SUB PUSH1 0x0 DUP4 ADD MSTORE PUSH2 0x1234 DUP2 PUSH2 0x11F8 JUMP JUMPDEST SWAP1 POP SWAP2 SWAP1 POP JUMP JUMPDEST PUSH32 0x4E487B7100000000000000000000000000000000000000000000000000000000 PUSH1 0x0 MSTORE PUSH1 0x11 PUSH1 0x4 MSTORE PUSH1 0x24 PUSH1 0x0 REVERT JUMPDEST PUSH1 0x0 PUSH2 0x1275 DUP3 PUSH2 0xE6F JUMP JUMPDEST SWAP2 POP PUSH2 0x1280 DUP4 PUSH2 0xE6F JUMP JUMPDEST SWAP3 POP DUP3 DUP3 LT ISZERO PUSH2 0x1293 JUMPI PUSH2 0x1292 PUSH2 0x123B JUMP JUMPDEST JUMPDEST DUP3 DUP3 SUB SWAP1 POP SWAP3 SWAP2 POP POP JUMP JUMPDEST PUSH32 0x45524332303A20617070726F76652066726F6D20746865207A65726F20616464 PUSH1 0x0 DUP3 ADD MSTORE PUSH32 0x7265737300000000000000000000000000000000000000000000000000000000 PUSH1 0x20 DUP3 ADD MSTORE POP JUMP JUMPDEST PUSH1 0x0 PUSH2 0x12FA PUSH1 0x24 DUP4 PUSH2 0xEAE JUMP JUMPDEST SWAP2 POP PUSH2 0x1305 DUP3 PUSH2 0x129E JUMP JUMPDEST PUSH1 0x40 DUP3 ADD SWAP1 POP SWAP2 SWAP1 POP JUMP JUMPDEST PUSH1 0x0 PUSH1 0x20 DUP3 ADD SWAP1 POP DUP2 DUP2 SUB PUSH1 0x0 DUP4 ADD MSTORE PUSH2 0x1329 DUP2 PUSH2 0x12ED JUMP JUMPDEST SWAP1 POP SWAP2 SWAP1 POP JUMP JUMPDEST PUSH32 0x45524332303A20617070726F766520746F20746865207A65726F206164647265 PUSH1 0x0 DUP3 ADD MSTORE PUSH32 0x7373000000000000000000000000000000000000000000000000000000000000 PUSH1 0x20 DUP3 ADD MSTORE POP JUMP JUMPDEST PUSH1 0x0 PUSH2 0x138C PUSH1 0x22 DUP4 PUSH2 0xEAE JUMP JUMPDEST SWAP2 POP PUSH2 0x1397 DUP3 PUSH2 0x1330 JUMP JUMPDEST PUSH1 0x40 DUP3 ADD SWAP1 POP SWAP2 SWAP1 POP JUMP JUMPDEST PUSH1 0x0 PUSH1 0x20 DUP3 ADD SWAP1 POP DUP2 DUP2 SUB PUSH1 0x0 DUP4 ADD MSTORE PUSH2 0x13BB DUP2 PUSH2 0x137F JUMP JUMPDEST SWAP1 POP SWAP2 SWAP1 POP JUMP JUMPDEST PUSH32 0x45524332303A20696E76616C69642063757272656E74416D6F756E7400000000 PUSH1 0x0 DUP3 ADD MSTORE POP JUMP JUMPDEST PUSH1 0x0 PUSH2 0x13F8 PUSH1 0x1C DUP4 PUSH2 0xEAE JUMP JUMPDEST SWAP2 POP PUSH2 0x1403 DUP3 PUSH2 0x13C2 JUMP JUMPDEST PUSH1 0x20 DUP3 ADD SWAP1 POP SWAP2 SWAP1 POP JUMP JUMPDEST PUSH1 0x0 PUSH1 0x20 DUP3 ADD SWAP1 POP DUP2 DUP2 SUB PUSH1 0x0 DUP4 ADD MSTORE PUSH2 0x1427 DUP2 PUSH2 0x13EB JUMP JUMPDEST SWAP1 POP SWAP2 SWAP1 POP JUMP JUMPDEST PUSH1 0x0 PUSH1 0x40 DUP3 ADD SWAP1 POP PUSH2 0x1443 PUSH1 0x0 DUP4 ADD DUP6 PUSH2 0xE79 JUMP JUMPDEST PUSH2 0x1450 PUSH1 0x20 DUP4 ADD DUP5 PUSH2 0xE79 JUMP JUMPDEST SWAP4 SWAP3 POP POP POP JUMP JUMPDEST PUSH32 0x45524332303A207472616E736665722066726F6D20746865207A65726F206164 PUSH1 0x0 DUP3 ADD MSTORE PUSH32 0x6472657373000000000000000000000000000000000000000000000000000000 PUSH1 0x20 DUP3 ADD MSTORE POP JUMP JUMPDEST PUSH1 0x0 PUSH2 0x14B3 PUSH1 0x25 DUP4 PUSH2 0xEAE JUMP JUMPDEST SWAP2 POP PUSH2 0x14BE DUP3 PUSH2 0x1457 JUMP JUMPDEST PUSH1 0x40 DUP3 ADD SWAP1 POP SWAP2 SWAP1 POP JUMP JUMPDEST PUSH1 0x0 PUSH1 0x20 DUP3 ADD SWAP1 POP DUP2 DUP2 SUB PUSH1 0x0 DUP4 ADD MSTORE PUSH2 0x14E2 DUP2 PUSH2 0x14A6 JUMP JUMPDEST SWAP1 POP SWAP2 SWAP1 POP JUMP JUMPDEST PUSH32 0x45524332303A207472616E7366657220746F20746865207A65726F2061646472 PUSH1 0x0 DUP3 ADD MSTORE PUSH32 0x6573730000000000000000000000000000000000000000000000000000000000 PUSH1 0x20 DUP3 ADD MSTORE POP JUMP JUMPDEST PUSH1 0x0 PUSH2 0x1545 PUSH1 0x23 DUP4 PUSH2 0xEAE JUMP JUMPDEST SWAP2 POP PUSH2 0x1550 DUP3 PUSH2 0x14E9 JUMP JUMPDEST PUSH1 0x40 DUP3 ADD SWAP1 POP SWAP2 SWAP1 POP JUMP JUMPDEST PUSH1 0x0 PUSH1 0x20 DUP3 ADD SWAP1 POP DUP2 DUP2 SUB PUSH1 0x0 DUP4 ADD MSTORE PUSH2 0x1574 DUP2 PUSH2 0x1538 JUMP JUMPDEST SWAP1 POP SWAP2 SWAP1 POP JUMP JUMPDEST PUSH32 0x45524332303A207472616E7366657220616D6F756E7420657863656564732062 PUSH1 0x0 DUP3 ADD MSTORE PUSH32 0x616C616E63650000000000000000000000000000000000000000000000000000 PUSH1 0x20 DUP3 ADD MSTORE POP JUMP JUMPDEST PUSH1 0x0 PUSH2 0x15D7 PUSH1 0x26 DUP4 PUSH2 0xEAE JUMP JUMPDEST SWAP2 POP PUSH2 0x15E2 DUP3 PUSH2 0x157B JUMP JUMPDEST PUSH1 0x40 DUP3 ADD SWAP1 POP SWAP2 SWAP1 POP JUMP JUMPDEST PUSH1 0x0 PUSH1 0x20 DUP3 ADD SWAP1 POP DUP2 DUP2 SUB PUSH1 0x0 DUP4 ADD MSTORE PUSH2 0x1606 DUP2 PUSH2 0x15CA JUMP JUMPDEST SWAP1 POP SWAP2 SWAP1 POP JUMP JUMPDEST PUSH1 0x0 PUSH2 0x1618 DUP3 PUSH2 0xE6F JUMP JUMPDEST SWAP2 POP PUSH2 0x1623 DUP4 PUSH2 0xE6F JUMP JUMPDEST SWAP3 POP DUP3 PUSH32 0xFFFFFFFFFFFFFFFFFFFFFFFFFFFFFFFFFFFFFFFFFFFFFFFFFFFFFFFFFFFFFFFF SUB DUP3 GT ISZERO PUSH2 0x1658 JUMPI PUSH2 0x1657 PUSH2 0x123B JUMP JUMPDEST JUMPDEST DUP3 DUP3 ADD SWAP1 POP SWAP3 SWAP2 POP POP JUMP INVALID LOG2 PUSH5 0x6970667358 0x22 SLT KECCAK256 0xE9 CALLDATASIZE ADDMOD ADD DUP12 PUSH32 0xFF49ECD23D77C5D04EA9152BCA0B8681D2740CEC580D58FD440164736F6C6343 STOP ADDMOD 0xD STOP CALLER "},"gasEstimates":{"creation":{"codeDepositCost":"1157000","executionCost":"infinite","totalCost":"infinite"},"external":{"_allowances(address,address)":"infinite","_decimals()":"2560","_name()":"infinite","_symbol()":"infinite","_totalSupply()":"2452","allowance(address,address)":"infinite","approve(address,uint256)":"infinite","balanceOf(address)":"2886","decimals()":"2546","name()":"infinite","symbol()":"infinite","totalSupply()":"2460","transfer(address,uint256)":"infinite","transferFrom(address,address,uint256)":"infinite"},"internal":{"_approve(address,address,uint256,uint256)":"infinite","_transfer(address,address,uint256)":"infinite"}},"methodIdentifiers":{"_allowances(address,address)":"024c2ddd","_decimals()":"32424aa3","_name()":"d28d8852","_symbol()":"b09f1266","_totalSupply()":"3eaaf86b","allowance(address,address)":"dd62ed3e","approve(address,uint256)":"095ea7b3","balanceOf(address)":"70a08231","decimals()":"313ce567","name()":"06fdde03","symbol()":"95d89b41","totalSupply()":"18160ddd","transfer(address,uint256)":"a9059cbb","transferFrom(address,address,uint256)":"23b872dd"}},"storageLayout":{"storage":[{"astId":86,"contract":"SimpleToken.sol:SimpleToken","label":"_balances","offset":0,"slot":"0","type":"t_mapping(t_address,t_uint256)"},{"astId":92,"contract":"SimpleToken.sol:SimpleToken","label":"_allowances","offset":0,"slot":"1","type":"t_mapping(t_address,t_mapping(t_address,t_uint256))"},{"astId":94,"contract":"SimpleToken.sol:SimpleToken","label":"_totalSupply","offset":0,"slot":"2","type":"t_uint256"},{"astId":96,"contract":"SimpleToken.sol:SimpleToken","label":"_name","offset":0,"slot":"3","type":"t_string_storage"},{"astId":98,"contract":"SimpleToken.sol:SimpleToken","label":"_symbol","offset":0,"slot":"4","type":"t_string_storage"},{"astId":100,"contract":"SimpleToken.sol:SimpleToken","label":"_decimals","offset":0,"slot":"5","type":"t_uint8"}],"types":{"t_address":{"encoding":"inplace","label":"address","numberOfBytes":"20"},"t_mapping(t_address,t_mapping(t_address,t_uint256))":{"encoding":"mapping","key":"t_address","label":"mapping(address => mapping(address => uint256))","numberOfBytes":"32","value":"t_mapping(t_address,t_uint256)"},"t_mapping(t_address,t_uint256)":{"encoding":"mapping","key":"t_address","label":"mapping(address => uint256)","numberOfBytes":"32","value":"t_uint256"},"t_string_storage":{"encoding":"bytes","label":"string","numberOfBytes":"32"},"t_uint256":{"encoding":"inplace","label":"uint256","numberOfBytes":"32"},"t_uint8":{"encoding":"inplace","label":"uint8","numberOfBytes":"1"}}},"userdoc":{"kind":"user","methods":{},"version":1}}